:20C10000F01000203963010037F700008D4101000000000000000000000000000000000065
:20C12000000000000000000000000000EFF8000000000000000000003FF900003B1D010087
:20C14000E336010049500100E73601000FBC010019BC01001BBC01001DBC01003BBC0100C1
:20C160003DBC01001564010017640100196401001B6401001D6401001F6401002164010045
:20C18000236401002564010027640100296401002B6401002D6401002F6401003164010027
:20C1A0001B4A0100336401003564010037640100396401003B6401008BF7000011E4000096
:20C1C000F8B4EFF3108172B6784D2C1800221300237243010093764B009E9E19FF23338083
:20C1E0001700B770B280F770C000281805002035B560B28132827282B282F28215003576B6
:20C2000075761D00B576F57615003577F5777577B5776572AF4C009D641923801300A37086
:20C2200022836377A280E3700C30A060A28122826282E282A2821000A076E276207FF0226C
:20C240000240227781F31088F1BC704780B5574908600879002801D101200871002002001F
:20C2600002E002000A750122002AFAD003E00020FFF7A6FF01200028F9D001BD10B41300FF
:20C28000954C002818D1206810305C00E318DB00C05C012801D0022805D10120434B0C00E1
:20C2A0001B19187204E00020404B0C001B1918723F484901425217E0606810309C00E3186C
:20C2C0009B00C05C012801D0022805D10120374B0C001B19587204E00020344B0C001B193D
:20C2E00058727C484901425210BC7047FEB506000024EFF31080019072B6774842683300AB
:20C300009D00EB189B00D2181588002D01D0012404E0704BDB78002B00D0012423003FD1F3
:20C3200000918988D388994201D2012421E0002901D101241DE00B0080277F01BB4201D30C
:20C34000012416E0D27B012A09D10720174A5219527A801AC0B288420BD2012409E0806808
:20C36000405D002805D1BD486901405C002800D00124200014D12800FFF722FF320028005C
:20C3800001000120FFF77AFF680152490322CB1C1A5401220B1D1A52009A9288081842823F
:20C3A000019880F310882000FEBD00004C060020B4060020F1B584B000263500EFF310800B
:20C3C000029072B66846008A02287DD20C00A2882168684601F0F0F93F4800686946098A7A
:20C3E0004A005118C900411808880A7C012A01D0022A0AD101226B461B78097D8B4201D0C4
:20C40000110003E03100150000E0310000295BD169462A00895CF0220A4006D0102A1FD063
:20C42000202A38D0302A47D04EE08D49420189188C4A0B886F463F8ABB4205D101238B7771
:20C4400013181B7A8B7000E08E7711180D72A388DBB26A4601006846008A00F05BFD33E098
:20C460007F49420189187F4A0B886F463F8ABB4205D101238B7713181B7A8B7000E08E779D
:20C4800011180D72A388DBB26A4601006846008A00F01EFE18E0734909180D726946098AB1
:20C4A0006F4A4301D152A388DBB26A4601006846008A00F01FFF07E0A388DBB26A4601005D
:20C4C0006846008A01F088F8029880F3108805B0F0BD0000D406002048630100002800D00E
:20C4E0007047F8B5604E7068058869015F4A5418E278002A3ED0102A06D0202A0CD0302A24
:20C500001BD0402A00D093E00021084601F076F92800FFF755FEF1BD218A0622514B5B19B2
:20C520005B7AD21AD2B2891821820121E1704089052101F0C4F9A080F1BD218A0722494B2C
:20C540005B195B7AD21AD2B289182182A17E00290BD0491EA176090607D10121E17040891A
:20C56000052101F0ACF9A080F1BD0220E070E07EA080F1BD3A484418E07800285BD01028D2
:20C5800006D0202812D030282AD0402843D04FE00120E070306821884A005118C900401819
:20C5A0008089052101F08BF9A080F1BD227E521C2276208835682900133103005F00FB183C
:20C5C000DB00C95CD2B28A4217D3082101F048F9208841000818C000285AFFF7F1FDF1BDE9
:20C5E000207E401C207631681331228853009A18D200895CC0B288421AD2607FE070306879
:20C600000A3021884A005118C900405A052101F056F9A080F1BD0A21208801F021F9306877
:20C6200021884A005118C900405AFFF7C9FDF1BD2800FFF7C5FDF1BD10B50024200003E057
:20C64000204600F015F801200028F9D003E0002000F09CFA0124002CF9D010BDB706002018
:20C66000B40600204C06002048630100D4060020F8B584B00600EFF31080039072B635007F
:20C68000824869014418E078002800D176E2A088002801D0401EA0808020E17801420DD0A9
:20C6A000A188002903D1E1784840E07036E0207F0107090F300001F011F82FE008460C2893
:20C6C0001AD122001632618A208801F09FF800280ED12200163221000831208801F0ABF8E3
:20C6E000002800D19BE1022814D10720E07015E0022800D0A4E011E0072852D1220016321F
:20C7000021000831208801F096F8002800D186E1022803D00E20E0700020A080A08800282D
:20C7200000D02BE2E078002800D127E2012800D1F7E102281ED0032800D18AE1042800D174
:20C74000A4E1052800D1BAE1062800D1D0E1072800D102E2092800D1FFE10E2800D1FCE161
:20C76000102800D1EBE1202800D1E8E1402800D1E5E100E21020E070207FF0210140217718
:20C78000C0480068083021884A005118C900405A052101F094F8A0800021300000F09EFF91
:20C7A000ECE10D285BD122001632618A208801F02DF8002832D1B3480768E08A618A884284
:20C7C00008D33800113021884A005118C900405C607607E00721AC4A525D891AC9B201F0AB
:20C7E0006BF86076607EA0763800123021884A005118C900405CE0762200163221000831B7
:20C80000208801F018F8002834D0022840D10820E070A088022800D380E7D6E0022819D13A
:20C820000D20E070A088022800D377E795480068133021884A005118C900405C002802D1B4
:20C840000020A0806AE70D2060770620E0700020A08063E70420E0700020A0805EE708281A
:20C860001BD12200163221000831208800F0E3FF0028CAD106208449495D401AC0B22082C4
:20C880000220E0700020A08048E700BFB40600200320E0700020A08040E70B2844D12200DA
:20C8A000163221000831208800F0C5FF0721764A525D891AC9B2A181228A521822820122C6
:20C8C000E27000281FD1208841000818C00002906C4805680527A088019028000C3002998E
:20C8E000405A390000F0EBFF01000091280012300299405C390000F0E2FF0099091A0198F9
:20C900004018A0800AE7022809D1208A401A20820B20E070A088002800D0FFE696E00020EE
:20C92000A0800E20E070F9E60A286AD12200163221000831208800F07EFF53484719072012
:20C940003978401AC0B2A081218A0818208202252800E0702200163221000831208800F0D1
:20C960006AFF002822D1E08A618A228A891A89B2884209D343480068113021884A0051181E
:20C98000C900405C607607E007213A78891AC9B200F092FF401C6076607EA076E570207FE2
:20C9A000F021014021770020A080B7E602281ED1208A07213A78891AC9B2401A20820A20CF
:20C9C000E070A088022800D3A8E62E480068133021884A005118C900405C002800D199E6FA
:20C9E000E07860770520E0700020A08096E60320E070207FF02101400D4325770020A08047
:20CA00008CE6092800D089E62200163221000831208800F010FF618A218200280DD1002114
:20CA2000208800F01DFF1748006821884A005118C900405AFFF7C4FB70E6022800D069E668
:20CA40000920E070A088002800D067E60E20E07064E64020E070207FF0210140022008431A
:20CA6000207708480068083021884A005118C900405A052100F023FFA0800221300000F0D5
:20CA80002DFE7BE048630100540600205020E070207FF02101400220084320773A4800684B
:20CAA000083021884A005118C900405A052100F006FFA0800221300000F010FE5EE0202075
:20CAC000E070207FF02101400120084320772E480068083021884A005118C900405A052117
:20CAE00000F0EDFEA0800121300000F0F7FD45E03020E070207FF02101400120084320774C
:20CB000021480068083021884A005118C900405A052100F0D4FEA0800121300000F0DEFD28
:20CB20002CE00421208800F09BFE1748006821884A005118C900405AFFF742FB1EE00221B9
:20CB4000208800F08DFE1048006821884A005118C900405AFFF734FB10E00A21208800F05B
:20CB60007FFE0948006821884A005118C900405AFFF726FB02E03000FFF722FB039880F376
:20CB8000108805B0F0BD000048630100F1B586B0EFF31080049072B66846058B964869015F
:20CBA0004418A088002800D1ABE1401EA0808026E0783042A08815D0002800D194E12100E2
:20CBC0000831D2484068801C228893009A189200805A00F047FF002800D092E1E0784640E4
:20CBE000E6708EE1002800D08BE1E078012800D1DFE0022800D1E5E003280CD0102800D12B
:20CC000072E1202800D16FE1302800D16CE1402800D169E171E1BE484019477A0720C01BEB
:20CC200069460870B9484068019000200978628A914235D31021E170A082628AB448E900B6
:20CC4000411810003B00CB1818733800401CC0B208180C30029002A8828001980E302288A1
:20CC600093009A189200805C012814D10820A08168460078628A801AC0B220830822101A95
:20CC80000200D2B2082A4CD255220300DBB2CB181A73401CF4E7608AC019401CA08140E0B0
:20CCA0002021E170618AE1822082608A6946097800F002FEA08201980E3021888A00511853
:20CCC0008900405C012809D1A08A694609784843618A401A801DC01BC0B220830820A0812C
:20CCE000207FF0210140012008432077628A8848E900411813001B0A102018433B00CB1861
:20CD000018733800401CC0B2081802733800801CC0B208180C3002900620C01BC0B202A99B
:20CD200088800198083021888A0051188900405A052100F0C4FD401EA0802088744F230078
:20CD4000163339001431020092008A1802A900F049FD012800D1D0E0032800D1CDE0022878
:20CD600004D1E07808210143E170CAE02088390014318200895C002900D0C2E08100081855
:20CD8000800001991031095C012901D0022905D101990918497CEA00BA18117321000831BD
:20CDA000019A1018408800F05DFE002800D097E0A7E00321208800F021FD6846008BFFF79E
:20CDC000FFF99EE0A08A401EA082207F504A5119497AEB00D5180F221700074020233B43A5
:20CDE0000F00EF193B73F0230340170007400F2F04D1237706E000BFD4060020401C0240D0
:20CE00001A432277E08A628A238AD21A904208D00121208800F0F2FC6846008BFFF7D0F9E3
:20CE20006FE00800401C0200D2B2AA180C320292364A576802AAA38A002B21D1E18A918074
:20CE40004022E2703B000E339C46228893009A18920063469A5C012A0ED10820A081218BA1
:20CE6000401A0100C9B2082912D255210200D2B2AA181173401CF4E7C0B20818A08107E0B4
:20CE80000720401AC0B290800820A0813020E0703800083021888A0051188900405A052151
:20CEA00000F00DFDA08023001633002202A9208800F098FC208881000818800039001031B0
:20CEC000095C012901D0022902D13918497C2973210008313818408800F0C4FD002810D017
:20CEE000E0780643E6700CE00221208800F086FC6846008BFFF764F903E06846008BFFF774
:20CF00005FF9049880F3108807B0F0BD486301004C060020FFB581B00500002630006B499C
:20CF20006A4612898F18397A039A0B00D25C1407240F6A461289520100926A46127C9442E4
:20CF400001DB01201EE00722511AC9B2A1420BDB72490B689C462A0053009A18D200634644
:20CF60009A18D288944201DA01200BE089686A461289895C002905D17849009A895C00295F
:20CF800000D00120DA49009A8C18A17F012806D1012900D098E0A677A078387294E0012930
:20CFA0000CD10721280000F05BFC5C48006829004A005118C900405AFFF702F92580387A6A
:20CFC00003990200891800910F21009A12780B00134063822682039A401CC0B21018A060AF
:20CFE000009800780140A18122001632618A280000F00CFC002841D122001632210008314B
:20D00000280000F018FC45490E6800280AD10021280000F025FC68004019C000305AFFF782
:20D02000CFF851E002281DD10720E07068004019C00030184089052100F041FCA0802348F9
:20D0400069460989C90045186846027C03992800203000F0B1FB387A401CC0B2281820307D
:20D06000A06031E00A21208800F0FAFB208841000818C000305AFFF7A3F825E002281FD1E4
:20D080000C20E0702548006869004919C90040184089052100F013FCA0800C4869460989B0
:20D0A000C90045186846027C03992800203000F083FB387A401CC0B228182030A06003E0A9
:20D0C00068460089FFF77CF805B0F0BD4C060020FFB583B0002528009E4F6946098A7E18E2
:20D0E00039466A46128A8918097A059A0B00D25C1302F02212011A40059B491CC9B2595CA0
:20D100000A4369468A80098A4901009103496A46127E082A04D2012027E000BF4863010074
:20D120000A686B469B895C00E318DB00D218D27B012A01D1012018E00722337AD21AD2B2E3
:20D140006B469B889A4201D301200EE08A686B461B8AD25C002A08D1004A01E0D70600209B
:20D16000009BD25C002A00D00120614A009BD418A27F012806D1012A00D0B7E0A577A078B2
:20D180003072B3E00868694689894B005918C90040180090012A08D107216846808900F0E9
:20D1A0005FFB00980088FFF70BF86846808920806846808860820721327A891AC9B200F02B
:20D1C0007BFBA082207F0007000F102101432177280020820598317A891CC9B24018A0606B
:20D1E0000620317A401AC0B2A0810098407CA0760098807CE07622001632618A6846808911
:20D2000000F004FB002851D1E08A618A884203D30098407C607606E00721327A891AC9B2DE
:20D2200000F04AFB6076607EA0760098807CE07622001632210008316846808900F0FBFAA5
:20D2400000280CD10220E070207FF021014021770620317A401AC0B22082A58046E002281A
:20D260001AD10820E07000984089052100F027FBA08025766846008AC0003D186846027E7C
:20D2800005992800203000F097FA307A801CC0B228182030A06029E00320E070207FF02183
:20D2A0000140022008432077A5801FE002281AD10D20E07000984089052100F000FBA080E1
:20D2C00025766846008AC0003D186846027E05992800203000F070FA307A801CC0B22818D0
:20D2E0002030A06002E00420E070A58007B0F0BDB4060020FAB585B0050000206946898A5A
:20D3000049010191B149019BCC18E178012901D0012017E0AE490B682E007700BE19F6006F
:20D320009B19DB7B012B01D101200BE089686B469B8AC95C002905D1A649019BC95C002915
:20D3400000D00120012800D13EE102926846868A004F01E04C060020B8190190017A029858
:20D360000A00805C0007000F227F120990420CD00521280000F074FA95480068690049198B
:20D38000C900405AFEF71CFF1EE1029A0800401CC0B21018A060608A228A801A80B203908C
:20D3A0000720401A0100C9B2039A914241DB10466946097E884242DAA081220016322100C6
:20D3C0000831280000F037FA618A218200280CD10021280000F044FA7D48006869004919C9
:20D3E000C900405AFEF7ECFEEEE0022800D0DFE00398081A20820920E070754800686900FE
:20D400004919C90040184089052100F058FAA080F0003D186846027E02992800203000F0C2
:20D42000CBF90198007A401CC0B228182030A060CAE001006A46127EC9B291420CD311216D
:20D44000280000F00DFA6248006869004919C900405AFEF7B5FEB7E0C0B2A0812200163231
:20D4600021000831280000F0E6F904906946072238466B469B8AC018007A101A0870208AFD
:20D480000978401820820120E0705148006829004A005118C900401803908089052100F0F0
:20D4A0000EFAA080207F010009090F2902DA1030207702E00007000F2077607E002852D0F0
:20D4C000401E607600064ED1049800281ED1E08A618A228A891A89B2884203D30398407C6A
:20D4E000607608E00721019A127A891AC9B200F0E3F9401C6076607EA0760220E070207FFE
:20D50000F021014021770120A0805DE002281FD1208A69460978401A20820A20E07003989E
:20D520004089052100F0CBF9A08000202076F0003D186846027E02992800203000F03CF9C7
:20D540000198007A401CC0B228182030A0603BE00320E070207FF0210140022008432077D7
:20D560000120A08030E0049800282DD002281FD1208A69460978401A20820B20E070039893
:20D58000807C052100F09BF9A080F0003E186846027E02993000203000F00EF90198007A2C
:20D5A000401CC0B230182030A060A08800280BD10A21280000F054F90548006869004919C9
:20D5C000C900405AFEF7FCFD07B0F0BDB406002048630100D7060020F8B50C001E00002517
:20D5E00023007049C9180F7AFF1CFFB2BE4201D2012520E05E0100966B4E009FF619F67856
:20D60000012E01D0012516E0684E3768BC4647003818C00067463818C07B012801D10125E7
:20D6200009E0B068C05C002805D16148009E805D002800D00125002D4FD1497A0800105C09
:20D640000007000F03D0022834D021D33CE056485B01C4180220E0700800401CC0B2105C19
:20D66000A076891CC9B2515C0800090608D5F138092802D20120E07607E01A20E07604E0D3
:20D68000052100F01CF9401CE076E07EA080F1BD4548590144180120E070444840682188F0
:20D6A0008A005118890040184089052100F007F9A080F1BD0A213C485A01805A00F09EF87F
:20D6C0002000FEF77DFDF1BD062137485A01805A00F094F82000FEF773FDF1BDF8B584B0A2
:20D6E000344A03005B01D41825886A005219D20001922E4E3268131D019FDB5B6F463B80EE
:20D70000019BD3181F7C274B012F01D0022F06D17668AF007D19AD0075196D7C1D76181862
:20D72000457A30200843190018312E008855A17E1E0018362800401CC0B23154E17E1E009F
:20D7400018362800801CC0B23154180018300290ED1C208841000818C0001018807B0128B0
:20D760000FD106E05520190018312A00D2B288546D1C2800C0B20828F4D3082002A988808D
:20D7800002E0EDB202A8858002A96846008800F069F9002803D0E07880210143E17005B0E8
:20D7A000F0BD00004C060020D406002048630100B7060020B406002010B4002303E0CC5CFB
:20D7C000C4545B1C9BB21400A342F8DB10BC704710B500242046FEF789FD002800D0012437
:20D7E000200010BD10B50C000121002804D12100002000F037FB0100080010BD002800D01B
:20D80000704780B5002000F063FB01BD38B5030001201D4C24685D00EB18DB00E318DB7B5E
:20D82000002B03D1002000F069FA32BD012B01D100F064FA32BD38B503000120124C246851
:20D840005D00EB18DB00E318DB7B002B03D1002000F097FA32BD012B01D100F092FA32BD44
:20D8600080B5094A126843001818C0001018C07B002803D1002000F0B6FA01BD012802D19A
:20D88000012000F0B0FA01BD48630100F446002804D4494200F013F84042604740420029CF
:20D8A00005D45FD000F00BF8404249426047494200F005F84942604703460B43E6D400229C
:20D8C000030A8B420BD203098B4219D243088B422ED2411A00D20146524110467047FF2280
:20D8E00009023FD012068B4205D3121209028B4201D31212090203098B4219D300E0090A9A
:20D90000C3098B4201D3CB01C01A524183098B4201D38B01C01A524143098B4201D34B0102
:20D92000C01A524103098B4201D30B01C01A5241C3088B4201D3CB00C01A524183088B4258
:20D9400001D38B00C01A524143088B4201D34B00C01A5241884200D3401A5241CFD20146E5
:20D960001046704708B500F01DFB08BD002A01E0521E8154FCD1704710B40023002A03E048
:20D98000CC5CC4545B1C521EFAD110BC704770B500263000764C0125002804E00720A0706C
:20D9A000300020702800F9D072480088A08072480288E28031469148FFF7D8FFE088C20067
:20D9C00031468F48FFF7D2FFE08841000A18920031468C48FFF7CAFF300020810320002EA9
:20D9E00001E020702E00FCD0657070BD10B50024012914D033D3032927D030D25C4800787C
:20DA0000012804D10321204600F01EFC0400200026D10021084600F017FC040020E0544847
:20DA20000078032804D00121204600F00DFC0400200004D10221002000F006FC040020009C
:20DA40000ED1002000F033F90AE00121204600F0FBFB040004D1002000F029F900E0012443
:20DA6000200010BDF0B587B007000E000822002104A800F013FD002404A803903C4D687805
:20DA8000002800D101242878022806D0032803D10121934800F00CFD0124200065D1A87838
:20DAA00069460F8081070BD4400705D401218C4800F0FEFC012458E0384600F05FF854E06B
:20DAC000300001AE3946318069460F88390106918449069A8958029181880A00082A02DD1B
:20DAE0000821B17000E0B170002105E00268525C039B5A54491CC9B2B2789142F6DB01A919
:20DB00007948069A8018407A00F010FC002800D00124022829D1EFF31080069072B6374866
:20DB2000C0190178002904D1012101702889401C28813348F9004418B27803992000FFF7A0
:20DB40001BFF7800C01980002E49029A0B1D1A50B2788B1C1A540A00083214506A46128804
:20DB60000A52069880F310880024200007B0F0BD5A070020A6DF0000B2E40000FEB5574E04
:20DB8000B178490739D5584D000128180090C068002804D0009800880099C9688847EFF3C9
:20DBA0001080019072B63089002823D000273800124C01E0401CC0B2F18888421ADA29007C
:20DBC000093102018A181178009B5B7A9942F1D1215C0129EED105000A48690049198900BF
:20DBE0004118107800F0A2FB002803D167553089401E3081019880F31088F7BDC4080020F3
:20DC000094060020F0050020FEB5344CA478E40738D5364C0500655D06E03768B94202D350
:20DC200076688E4211D2A58A314C6E007619F600A419FF2D09D02669002EEED166688E42D8
:20DC4000F1D1667A0700BE42EDD1FF2D1AD02088A57A2E00B24204D20121264800F028FCE4
:20DC6000F7BD6A46958000932269002A05D09368002B07D06A469847F7BDE268002A01D089
:20DC800069469047F7BD7047012904D00ED3032909D004D370470121104A11547047022166
:20DCA0000E4A1154704703210C4A1154704710B4002001000AE0104A545C012C04D11C89DA
:20DCC000641E1C8103005354491CC9B2034BDA889142F0DB10BC7047000000005A07002049
:20DCE0000260000028600100246001003E6401003C5F010001600000C4080020F5B481B04E
:20DD000000221000714B5C8B6D46AD88AC4201D1012034E08D4C25786E0701D502202EE060
:20DD20006E4631808A49B688B60089596E463688B14201D2032022E06E46B688002E02D086
:20DD4000012E09D010E00326824F3E70FE262E402670814C1C6007E003267E4F3E70FE2603
:20DD60002E4026707D4C1C60029C21806946098859607B490978012901D07A490A70FEBCEB
:20DD80007047F8B5040000200500704B1B78042B06D12000012801D0002C22D1022520E042
:20DDA000230002D0012B03D005E0484B187402E00120464B187400920F00444EBA88396835
:20DDC000306800F0E5F83068B988C9B2401830605F48A10040180168BA88891A01600098BB
:20DDE00001802800F2BD002900D0704738B50500364C658301205C4908705948007801F077
:20DE00007BFC5A49420010188000081840680521FFF755FD56490860002D02D0012D0DD0B7
:20DE200031BDDC2040004A4908604B482060A0604648017802220A43027031BD082044491D
:20DE40004860464921604448A060002202E08B5C8354521C082AFAD33C48017802220A43E1
:20DE6000027031BD70B50D001E0038480078000705D503223F49286800F08AF815E03E48EF
:20DE80000078002807D0782805D003223B49286800F07EF809E00D4CAA88A168286800F0FA
:20DEA00077F8A068A9884018A060A88834490A88824202D3101A088001E000200880002E21
:20DEC00001D008883080002070BD00006803002080B5002928D11D4801780A0712D5F72213
:20DEE0000A4002701E48007801F006FC1F49420010188000081880680521FFF7E0FC1C49DE
:20DF0000086013E0FB220A40027000200100114A11701C49FF224A830200174B1A700E4A37
:20DF20000A608A60C86001E001F0C0FB0C480078012809D001200B49087013480068052134
:20DF4000FFF7BDFC1149086001BD00008703002060030020EA02002094000020F80200208B
:20DF600085030020EC020020EB020020A861010090030020CC08002086030020C808002094
:20DF80008A030020680300200C6401009403002010B4002302E0CC5CC4545B1C9342FAD3FF
:20DFA00010BC704770470400C069410A0800C007C00F7047C069C1090800C007C00F704712
:20DFC000C06941080800C007C00F7047006A410A0800C007C00F7047006AC1090800C0076D
:20DFE000C00F7047006A41080800C007C00F704780218900416270478021416270470221F1
:20E00000416270478D490A68104308607047B4490A68104308607047B2490A6830239A436E
:20E02000104308607047002A01E0521E8154FCD1704738B5AC480478002002251DE0AB4905
:20E040008968026A2B4699431140016214E07C49A0000818C0684A78012AF0D0C269920750
:20E060000AD5A24A9268036AAA431A400262012048708888FFF782FD01200028E7D031BD77
:20E0800070480078984909780200FF2A00D17047F8B584B06A4610700391802408E005B055
:20E0A000F0BD01AB68460078FFF7AEFDE86844626348039989004518EB68D8692040EED06B
:20E0C000196D5A6D986DDB6DCE0402D44905490D06E08F04864E3E40490B8903890B711892
:20E0E0001207120F01AE07003770070A777007003F0CB770000EF07018003071180A7071EE
:20E100001800000CB071180EF0717A488142C8D170783E28C5D1B0788028C2D17648017897
:20E12000CA0620D475480078002803D07448C068002813D173480078012809D001207249EA
:20E140000870724800680521FFF7B9FB70490860002001006F4A11706F4908600020C04396
:20E160006E490860A2E7002213006D4E3370FF23634E7383EF230B4003706A4802606A4805
:20E180000260A148026091E7704770B52C4C01221146601CFFF747FF0222FF21201DFFF75D
:20E1A00042FF012200212000FFF73DFF0422002120000830FFF737FF80200003FFF722FF03
:20E1C0008020C001FFF723FF1020FFF725FF0021802630E00420A0704348007880002018B6
:20E1E0000121C2681160C3689A690A40FCD09A690A4020D03D4A15689D605368C568EB60AD
:20E20000D368C5682B665369C568AB66D369C5682B67536AC568AB67D36AC568AB51136932
:20E22000C5686B669369C568EB66136AC5686B67926AC068C2670029CCD070BD3C2400400B
:20E24000080000203D640100F8B50024270026480578002905D002293FD026D303293CD0A8
:20E260003AE08A4E01221146701CFFF7DCFE0222FF21301DFFF7D7FEA8003018C1684C60B5
:20E280000221C2681160C16808228B691340FCD08869024007D01548806808620221204618
:20E2A000FFF7F2FC19E0B47017E02800FFF76CFF7648A9004118CA681460CA680123946924
:20E2C0001C40FCD09169194004D003213846FFF7DBFC02E0837000E001273800F2BD0000BC
:20E2E0004C240040442400403C640100180000200000FC1FDF070000870300208603002099
:20E300006803002085030020EC0200200C64010094030020EB02002090030020DC030020D5
:20E32000EA020020D0030020D4030020F3B403000020010002005C00E318554CE55C334E60
:20E34000765DEFF31087009772B6641CE35C4F4CB600A619F768BF697F0505D46719FF1868
:20E360007F78012F00D10122012A45D1019A6719FF187870680020185B00C01813888380B6
:20E38000F06830305468E30003D463055B0D036008E06303A40C6405640D1C43C0235B01A6
:20E3A000234303609078F36858639068C279120683791B041343427914021C4302792243AA
:20E3C000C3781C0683781B042343447824021C4300782043F3689863F068C2630220F268F5
:20E3E00050622C4A6B005B191B01D258F3681C6A10402043186200E00221009880F310881C
:20E400000800F6BC70470000D80300203C64010010B5214C2000FFF7DFFD01280CD12000A5
:20E42000FFF7C8FD012807D101F0CFF90020FFF727FE2000FFF7E0FD2000FFF7D3FD01282A
:20E440000CD12000FFF7BCFD012807D101F0BDF90020FFF7EEFD2000FFF7D1FD2000FFF76D
:20E46000B5FD012810D12000FFF79EFD01280BD101F0A7F901210020FFF7E6FE0020FFF767
:20E4800002FC2000FFF7B4FD10BD000008000020A4BC0100200000200094014010B5040083
:20E4A000080011000200200001F0F4F9200010BD70470400F8B501F0F9F80120AF49487734
:20E4C000AF4908700020AD49C8620121AC4A917101009173DC21490091670822A84BDA67D1
:20E4E0000246A84B02E01A54401C80B28842FAD31146080003E0A24B1B181A74401C0828F0
:20E50000F9D3A148A1490968102201F0F1F90022100006E09A498300C91813000B854B850C
:20E52000401C1428F6D31546280095498872934CA084E567052718E0A8002618A648A9002F
:20E54000491989004018009040683900FFF7B7F930630098407B8A494919087600980068C8
:20E560003900FFF7ACF9F0646D1C072DE4D3012108002077824841710022110041701300CB
:20E58000202602E04518AB55491C0729FAD301207B490200CA723A460A73FF220A721A00BD
:20E5A00002E01A00CA710200FBD019460A006284A277734A13712167DB4363670B003546B8
:20E5C000635551735072F1BD0078401E012815D91038012814D9E13801281DD9801E012805
:20E5E00018D9801E012813D9801E01280ED9801E012809D9801E012804D90FE001200EE07E
:20E6000002200CE003200AE0042008E0052006E0062004E0072002E0082000E0002001008C
:20E62000A04A517001218140FE20084070470120524948779B490870704780B500F09DFFE0
:20E6400000F090FF00F005F800F0B0FD00F094FE01BDF8B54A4D69796818484CC27D002ACE
:20E6600022D18A00A618B26C002A02D0521EB2641AE0594A8B0059188900511814394A7B22
:20E68000C27508680521FFF71AF9B0640020010006E002002B0020330E00F6B29A55491CFF
:20E6A0000A00D2B2072AF4D3A87901280DD1206B002802D0401E206307E00020A871464898
:20E6C00040680521FFF7FBF82063287901281FD1E06A00281CD0401EE06219D101F02AFC47
:20E6E000FFF7A5FF00263000287101F020FD00F051FF300006E031002A0020320300DBB2F0
:20E70000D154401C0100C9B20729F4D301202077E87801282FD1606F002821D0A06A401E74
:20E72000A062002000F034F8607F00F0E5FFA46A41000D18AD00AF4E0527301D405939007F
:20E74000FFF7BDF8A04216D2701980683900FFF7B6F8400884420ED2012000F019F8F1BD38
:20E760001021200000F01EFC200000F033FCE07F10210143E177F1BD00000000680300209A
:20E78000E802002094000020C0070020680000201CB5020011A003C86B4603C3964CA06A9A
:20E7A000002801D0012A15D1E07F08210143E17792487F21017092490978417078218170A9
:20E7C0000090032069468880608BFFF701F8606F401E606713BD0000B05E01000000000022
:20E7E0000000000080B500F09EFE01BD80B500F09AFE01BD80B580484168042903D0132145
:20E8000000F0D0FB01BDB349C16601F0F3FD01BD10B5794C20684078401E012806D9801EEF
:20E820000CD0401E12D0801F18D01EE0606803281BD01321200000F0B5FB16E0606802287D
:20E8400013D01321200000F0ADFB0EE0606806280BD01321200000F0A5FB06E0606802286E
:20E8600003D01321200000F09DFBA07F002801D100F0C2FE10BD000080B55F484168491E67
:20E880004160CA0703D5132100F08CFB01BD4908152903D3312100F085FB01BD00F0AEFD45
:20E8A00001BD0000E8020020F8B50027524C2668701CFFF789FE884DA979002904D0222150
:20E8C000200000F06FFBF1BD69790A00AB18DB7D002B10D1814EB05C012807D136212000AA
:20E8E00000F060FB384669797054F1BD3721200000F058FBF1BD7378DB073BD561680229C1
:20E9000052D17749227F82421FD17078A268507006E00020A2683B00DBB2D21890707F1CB0
:20E920006878020093009B189B00CB583E00F6B29E42EED36871012029001F3188549B1C64
:20E94000E360200000F046FBF1BD6878687101222B001F331A548200101880000858801C88
:20E96000E06060482021615C09014158E16620008847F1BD28001F30805CC00702D5687859
:20E98000814206D02421200000F00CFB00F0DAFDF1BD6168B74A83001818800010180C38A4
:20E9A0000068801C814206D01321200000F0FAFA00F0C8FDF1BD4B482021615C09014158EB
:20E9C000E16620008847F1BD80B5AB484168032903D0132100F0E6FA01BD016889788A07C6
:20E9E00001D0042903D3312100F0DCFA01BD00F003FE01BDA861010068030020CC08002035
:20EA000094000020FEB50020019004460125064602F0BDFBFF212E31884203DB02F0BAFBAA
:20EA2000002840D094480268517809029278114309E02300DBB21B01D258914202D1019D03
:20EA400026003C46641C244AD27A6B461A708B4A23006F463F78DBB2BB42EAD3F6B2310114
:20EA600051184A7BEDB2012D02D00B79012B03D0312100F097FAF7BD4368CC88E41CA342DB
:20EA800003D0132100F08EFAF7BD437F1A420AD0027C012A02D18B7B5B1E04DD002A07D16D
:20EAA0008A7BD20704D42221734800F07BFAF7BD0A7B002A06D0037F134003D1332100F017
:20EAC00071FAF7BD8268521C82608968C1668847F7BD0000F5030100E8020020A308002074
:20EAE000AC5E010014580100F8B584B000200190074601250090019E5F4C02F048FBFF216A
:20EB00002E31884203DB02F045FB002840D0206841780902807801430291009913E03800A5
:20EB2000C0B2574A83001B18DB00D2180392029A039B1B689A4205D1019D0100039846794A
:20EB4000684607787F1C4F48007B6A46107038001278C0B29042E2D328000200120604D0DA
:20EB60003121200000F01EFA81E0627F16420FD0434A8B005918C9005518217C012902D149
:20EB8000AA79521E04DD002907D1A979C90704D42221200000F006FA69E02979002907D0F8
:20EBA000227F0A4004D13321200000F0FBF9012000065CD12068C078002805D0022821D011
:20EBC00011D303282DD03DE0606804283FD16969E166002904D13121200000F0E3F946E08D
:20EBE0002000884743E06068042830D1A969E166002904D13121200000F0D4F937E0200051
:20EC0000884734E06068042821D1E969E166002904D13121200000F0C5F928E0200088477D
:20EC200025E06068E968091D884210D1296AE166002904D13121200000F0B4F917E02000E7
:20EC4000884714E06068A968C91C884204D01321200000F0A7F90AE0696AE166002904D1AF
:20EC60003121200000F09EF901E02000884705B0F0BD0000B05E0100680300202863010043
:20EC8000985C0100E8020020FEB50027012001900446FF26684646700198694608709F4D6A
:20ECA00002F075FAFF212E31884204DB02F072FA002800D139E1296888780002C97808433B
:20ECC0006946497808E0AD4A1388984203D10024567D117D019F7F1C3A001206F3D02700A0
:20ECE000012F04D13121280000F05CF912E0687F064204D12221280000F054F90AE0287F21
:20ED0000014204D13321280000F04CF902E000206946087068460078002800D02CE1019C39
:20ED200028684078012856D194482C2179434618B068002800D11BE1307901280BD168686D
:20ED4000716A091D884204D01321280000F02AF902E0002400E00024240600D00CE1202074
:20ED6000285CFF2800D103E1297C012904D1964A927B521E00D1CEE0002904D1924A927BCC
:20ED8000D20700D4D1E0012906D1904A03001B01D25C521E00D1BEE0002905D18B4A000139
:20EDA000105CC00700D4C0E0012903D1B07D401E00D1B0E0002903D1B07DC00700D4B4E069
:20EDC0008348390001720021C019C171B168E96628008847F7BD02285FD168482C2179436A
:20EDE0004618F068002800D1C2E0307901280BD16868F169091D884204D01321280000F0DA
:20EE0000D1F802E0002400E00024240600D0B3E02020285CFF2800D1AAE0297C012903D1A9
:20EE2000694A927B521E76D0002903D1664A927BD2077AD5012905D1644A03001B01D25C7F
:20EE4000521E68D0002904D1604A0001105CC0076BD5012902D1B07D401E5CD0002902D13E
:20EE6000B07DC00761D55A4CE019C0790521014065D038002072F168E96628008847E01992
:20EE8000C079810778D5FE210140E019C171062972D10020E119C871F7BD032868D137487D
:20EEA0002C21794346183069002861D03079012809D16868042804D01321280000F072F8C7
:20EEC00002E0002400E00024240655D12020285CFF284DD0297C012903D13B4A927B521E2B
:20EEE00019D0002903D1384A927BD2071DD5012905D1364A03001B01D25C521E0BD0002991
:20EF000004D1324A0001105CC0070ED5012907D1B07D401E04D100F0E3F8F7BD680300201D
:20EF2000002907D1B07DC00704D42221280000F039F8F7BD264CE019C079800704D124217F
:20EF4000280000F02FF8F7BD380020723169E96628008847E019C07941070DD5FE21014058
:20EF6000E019C171062907D10020E119C871F7BD1221280000F016F8F7BD0000D861010011
:20EF800080B585484168022903D0132100F00AF801BD0221C16000F01DF801BD80B500F0B8
:20EFA000C2FA01BD7C4A937F002B00D191777B497F230B707A4B1B784B70927F8A7081601B
:20EFC0000321C16070470000C007002020580100E8020020F1B582B03FA003C86A4603C2D4
:20EFE000002427006C4DE87FC10669D4687C012802D1A87F002802D0E86800280ED1687F63
:20F00000012808D0012067490871674800680521FEF755FCE86200F049FB4DE0614EFF21A8
:20F02000BA31884204D331212800FFF7BBFF15E0287C012812D1A87F31280FD1B07B0028C2
:20F040000CD1687F012807D001203071564800680521FEF734FCE86200F028FBA97F0298BA
:20F06000002906D0782904D04C4981600321C16005E04B4981600268127840320A7081683E
:20F080000091C1686A469180C1686984408BFF2803D06946FEF79CFB0700002F08D12000B0
:20F0A0007073F070AC626874AC66EC662C6703E001207073AC66EC660020C0436867F7BD3B
:20F0C0002100384A9170FF216983EF210140E977AC66EC662C67F7BD000000000000000024
:20F0E00080B52D480021C160FFF774FF01BD70B52C498A7A2848FF2A36D013009B00CC182E
:20F10000836F258D2D0A1D70258D5D70B44D648D24012C19E48826009B199B1C8367C36F93
:20F12000A41C1B19C367836F8360C36FC360521C8A721300DBB2848CA34209D22B00083347
:20F140002A31D2B29200895A09015958C16670BD134A8260002213008B72110081848267DC
:20F16000C267FFF737FF70BDFFF734FF70BD0100FF2000224023194200D0704710B40C0060
:20F18000862C06DA080600D51A0096480068A11A405C10BC7047000068030020C808002045
:20F1A00094000020E80200200C640100FEB501206946C8708C4CE07F810700D4D9E00025F4
:20F1C00029002022A154FD21014004200843E07726683078FFF7CBFF8449096802018A18D1
:20F1E00051680191117A6B469970517A5970917A1970117B537B0293937B227C7C4F3F684A
:20F20000B84200D3A4E0012A04D1581E02DCFFF767FFA6E0002A06D1D80704D4112120005D
:20F22000FFF7C0FE9DE06068022804D213212000FFF7B8FE95E0684600786B465B78677FD0
:20F24000384209D1012A02D1FFF74AFF89E07F212000FFF7A7FE84E0002B02D0207F184001
:20F2600064D06846807801286CD17078C0096074206842785206520E42700E006846C07829
:20F280000299AF4F0CE023685B781201BA18127A934204D128002022A6540E00761C761CDA
:20F2A0003200D2B20B005B1C9A42ECDB217C012809D1002904D112212000FFF773FE50E0EB
:20F2C000FFF70EFF4DE038462022A25C12018318D87A9A7A5D7A012D09D0002904D112211D
:20F2E0002000FFF75FFE3CE0FFF7FAFE39E0012905D11D7B6D1E02DCFFF7F2FE31E0002957
:20F3000007D1197BC90704D412212000FFF74AFE27E0617F084204D17E212000FFF742FE4D
:20F320001FE0002A07D0207F104004D133212000FFF738FE15E001200E4988730198A06662
:20F3400080470EE00B4885730198A066804708E0002A04D111212000FFF724FE01E0FFF71F
:20F36000BFFEA07F002804D0782802D02000FFF731FEF7BDE80200203EB500BF1DA003C806
:20F380006A4603C2AD4C607B012827D1164DA86A002802D1E87F00071CD5A8680090E86844
:20F3A00001006A4691806884688BFF2803D06946FEF70EFA00E00120002808D100200100E3
:20F3C0006173E170A862A866E866286737BD0120607337BD0020607300F068F937BD0000FF
:20F3E000645601006400002068030020680000209CBC01000000000000000000FEB500238C
:20F400001D46A84C2068401C019018468B498872A08403E00198801C01909B1C60688342E3
:20F420005CD2019800780102019840780143002002912CE0A18C0A00920000927F4A029E72
:20F44000009FD7193E852A32009E9053491CA1841B201AE0267C012E02D1977B7F1E14D087
:20F46000002E02D1927BD20709D5012E02D18A7B521E0AD0002EDDD1897BC907DAD42221D5
:20F480002000FFF78FFD1B206368401C80B21B28C0D2904902018918029A0E68B242F4D119
:20F4A0006D1C4A7B667F3242E9D0227F0E7B16420DD0521E9241D20F6E463270864A577A72
:20F4C0003E00F607F60F6F463F783E42C2D033212000FFF767FD1B206368D6E7A07F002896
:20F4E00020D12D0604D131212000FFF75BFDF7BDA08C002802D1FFF7F3FDF7BDA068401C7A
:20F50000A0600120E060A168A167E0674B48734902002A32807A8000105A00010958E166F8
:20F5200020008847F7BD80B55E484168022903D01321FFF737FD01BD00F05EF801BD000086
:20F54000145801003D4841794018C27D002A08D0521EC275120604D10120614A5118491E36
:20F56000087070474F48C17F490700D4704780B5C16E002900D0884701BD10B5494CE07F07
:20F58000400706D4216F002903D0002088470020206710BDF0B500252800284C02E02800EB
:20F5A000E07101200028FAD0FF20207228002900202302E02218D154401C0728FAD30120E8
:20F5C00038490877A079002815D112E04548A9004919890046183348A9004018C76C30684C
:20F5E0000521FEF76CF9874202D1707B611908766D1C072DEAD3F0BD38B52A4C3A4D2020BB
:20F60000205C00012958E166002901D020008847A07F002801D078280ED1344801785029B7
:20F6200002D14078324908702020205C000128184068002800D0206731BD0000E802002030
:20F6400070B500221300002908D1FFF77BFF70BD1C00E4B2091920240A555B1C12491C004C
:20F66000E4B2072CF4D304004D791E48AA005219920080181438427B4919CA75094E006822
:20F680000521FEF71CF9A90071188864347770BD1748017A4118CA7901231343CB71FF21F8
:20F6A0000172704768030020E80200200020104A0100D1700F49886203004B748B779370C6
:20F6C0000122CA77FF224A838866C866C860C0434867704764560100C00700206C560100C6
:20F6E000A4080020B05E01001458010094000020E8020020680300200100002002290CD051
:20F7000004290CD008290CD010290CD020290CD040290CD080290CD070470120704702201E
:20F7200070470320704704207047052070470620704707207047FEE7010005D40121C0061F
:20F74000C00E8140504801607047406908404003400B4903490B884201D1012070470020B7
:20F7600070474903490B4161704710B5474C002206212000083000F09DF8002208212000F0
:20F7800000F098F800F012F810BD10B5404C02212000FFF7DAFF002806D002212000FFF788
:20F7A000E0FF1E20FFF7C8FF10BD0000FA20400036494881704780B500F01BF800F048F8E1
:20F7C00001BD012031490870704700202F4902008A7148804A7005228A8002000A700A7C57
:20F7E000012A00D0704780B50874022001F017FD01BD70B5254C2078002828D00025280026
:20F8000020700126300060706088401C608002F08FF801F0F8FD6088A179002909D106287B
:20F8200002DA0520A08070BD65801420A080A67170BD1421062801DCA18070BD6580A18069
:20F84000207C002803D12674304601F0E8FC70BD0E484178002900D1704780B581880029D7
:20F8600001D0491E8180818800290BD100214170FEF78BFC02210020FEF7B8F802F046F8DB
:20F8800001F0B8FD01BD000080E200E078070020C00D00401206130A1A43130C1A4300BF49
:20F8A000094205D083070BD00270401C491EF9D1704700001206130A1A43130C1A4300BF40
:20F8C0001300103906D330B41400150010393CC0FCD230BC490700D30CC000D504C08900D6
:20F8E00002D30280801C002900D502707047FEE770B4103A03D378C9103A78C0FBD25307DB
:20F9000001D318C918C001D508C908C0D20704D30B880380891C801C002A01D50B780370EE
:20F9200070BC70478B0701D18307E1D0124205D00B78491C0370401C521EF9D17047FEE78F
:20F9400030B40022130004E014001D00ADB244555B1C1C000D00A4B2AC42F5D330BC704732
:20F9600030B40023150003E01C00A4B201555B1C1C00A4B2AC42F7D330BC704770B5060051
:20F98000B448B100891945185020A8730024200006E00222214628000F30FFF7E1FF01201D
:20F9A0000028F6D06C74AC74BB4880198473C47670BD38B5A74A8300181815180878A87306
:20F9C00000200C0006E00222611C28000F3002F07FF801200028F6D0400020184178697487
:20F9E0008078A87431BD0100AC480A0053009A1880188078002812D0002000E0401C020009
:20FA0000A54B5B78D2B29A4209D2924A0300DBB2D21852780B009A42F0D1C0B27047FF20D8
:20FA2000704701009C4A5278914212D28949820010180818010011310A78002A01D0002229
:20FA40000A700A78521C0A70817C002901D101218174704710B50400FFF7C5FFFF2812D070
:20FA6000B449095D7B4A83001B18D3189A7B8A4209D09973052281000918203189B218008A
:20FA80000E3002F0BBF810BD1CB5002418E07148A1000919401850218173022200210F300C
:20FAA000FFF75EFF0AE068460078FC21014050200843694608702000FFF77BFF641CE4B2FD
:20FAC0007548407884421ADA0522200081000918203189B2684602F074F80128D7D16846F7
:20FAE0000078002803D068460078FF28DBD105216846FFF725FF502069460870DBE713BD83
:20FB000038B5EFF3108472B6634D0421A81DFFF717FF0421A81CFFF713FF0D212800283015
:20FB2000FFF70EFF697828000E30FFF709FF697828001B30FFF704FF84F3108831BD020031
:20FB40000D2A00DB7047F0B49208400006230340EFF3108472B603254F4EB01887782800A0
:20FB6000984087430D409D403D43B018857084F31088F0BC704770B40100890803234200EC
:20FB800006241440A340DA43EFF3108372B6424C6518AD7916002E406518AE71AD782A406A
:20FBA00061188A70002120182822815483F3108870BC7047F8B40200002013009B08009352
:20FBC000520006231340EFF3108272B6324C009D6519AE781E4182F3108803252A003240CC
:20FBE000009EA619B67937001F412F4097420CD0012A01D0022A00D101209D40AE431500C1
:20FC00009D403543009BE3189D710A70F2BC704730B40020204902004A7005E0FF238C1838
:20FC200023730300A372521C012AF7DD7E4C0DE01A4A43001B18D2189278002A05D04A7863
:20FC4000030015006355521C4A70401C0C28EFDD30BC7047AC04002038B50025354C09E061
:20FC60005020605505E0B249820010180818807B60556D1C0D2D0EDA0848690049194018E7
:20FC800080780028ECD02800FFF7ADFEFF28EAD150206055EDE731BDB805002004620100B2
:20FCA00038B50500FFF7B4FFAA4C60780E2800DBFEE72800012804D1FFF7E6FEFFF7CCFF24
:20FCC00031BD280001D0022D18D10D2250211948FFF746FE002504E02800C0B2FFF74EFE05
:20FCE0006D1C607829000200C9B29142F4D381000A1892B220219D4801F080FF31BD10B434
:20FD00000100FF200A7812044B781B021343897819430022964C00E0521C1300DBB20D2B6E
:20FD200004DA9B00E3588B42F6D11000C0B210BC70470000D007002010B50400FFF753FE6F
:20FD400021008C4A4B005B18D2189278002A0AD00100804A5278914201D2FFF70FFE200098
:20FD6000FFF778FE10BD5020834A505410BD38B5040020780004617809020143A078084384
:20FD80007E49884206D1FFF7BBFE0220FFF788FF002032BDC0210904884209D0802109045F
:20FDA000884205D04908884202D08908884218D100252900C9B20D29EADAC0206C4A890091
:20FDC0005158090C014022781040814207D12800C0B2FFF7D0FE2800C0B2FFF7ADFF6D1C7C
:20FDE000E7E72000FFF78BFF04000D2805DAFFF7C2FE2000FFF7A0FFCAE71320C04332BD3C
:20FE000010B5FFF77DFE0120FFF74AFF514C052020700D2120002830FFF792FD606BF021F3
:20FE200009010143616310BDAD040020FEB504000C287CDC2200D2080092012263075B0F4A
:20FE400015009D40EDB20195424D009BEB189B7A019E33426BD0484B1B181E78002933D161
:20FE60002F21314319700E003609164202D0EF260E401E7019780E00B609164202D0BF2264
:20FE80000A401A7000996918097B019A11424ED0D6433140009AAA1811738A49420010183D
:20FEA00008188078002842D02000FFF79CFDFFF7B8FD2000FFF7CEFD00982818807A06409D
:20FEC000009828188672F7BD009969180F7B01993943009FEF193973FE21314019700E006A
:20FEE0003609164202D0EF260E401E7019780E00B609164202D0BF220A401A701978422276
:20FF00000A4002D1FB220A401A706E49420010180818807800280AD02000FFF79BFD009852
:20FF20002818807A01998843009969188872F7BDAC04002010B5644C606B01004905C90F23
:20FF400001D1FFF7DDFD606BA021C9000143616310BD0000B80500205B48416B5B4A0A40BA
:20FF6000426370475A49085C70470000BA0400204461010004620100D0070020FFFFFF0088
:20FF8000FEB5060000206946087037004D487900C919401801904C4CE51969463000FFF7E6
:20FFA00009FE00283BD068460078012819D101988078002833D03000FFF715FD2118897B9D
:20FFC000491C201881730020282168543000C0082018817A012273075B0F9A400A4382721E
:20FFE0001DE068460078022819D101988078002815D03748C05D4121014010D03000FFF7E7
:020000021000EC
:20000000F2FC01980078282168543000C0082018817A012273075B0F9A400A4382726846E1
:200020000078012814D12820285C01990978884202D2401C2822A8542820285C88422BD37F
:2000400000213000FFF7F2FE002028216854F7BD6846007802281FD12820285C0199497829
:2000600000290AD1002808D001213000FFF7DEFE0198007828216854F7BD002804D0401E34
:2000800028216854000607D101213000FFF7CEFE0198007828216854F7BD10B50024C020D6
:2000A00080000949496B0140814209D104E02000C0B2FFF765FF641C2000C0B20D28F6DBF4
:2000C00010BD000004620100B8050020FFFAFFFFD0070020BFF34F8F8D48AB490860BFF3AE
:2000E0004F8F00BFFDE7A948002101704170704710B504008748407C002815D1BB48416886
:200100000A0AA3689A70A268D17080680A21FDF7D6FB010AA2681171A16848710620E060D4
:200120002000FEF757FF10BDFEF7DAFF10BD00210A00002800D0704710B5012494480470D8
:2001400004E094481300DBB2C154521C1000C0B20728F6D39048047090480170FF20904AB4
:200160001070080002E08F4801702000FBD0084601F068FD01F0CAFB01F03CF9FFF7DAFE94
:20018000B348047010BD80B501F001F8FF212E31884208DB00F0FEFF002804D122215D4806
:2001A000FEF700FF01BD5B48407C002808D10120FEF7EEFA8E480178FB220A40027001BD49
:2001C0000120BC490872FEF78BFF01BD002800D0704780B501F085FD01BD10B504004D48CF
:2001E000407C002815D1814841680A0AA3689A70A268D17080680A21FDF761FB010AA268D7
:200200001171A16848710620E0602000FEF7E2FE10BDFEF765FF10BD30B5002421000028FA
:2002200021D104205A4A107004E05A480A00D2B28454491C0800C0B20728F6D301255648FD
:200240000570564805709C4800680521FDF737FB9A490860FF2052490870200002E0514866
:2002600004702800FBD030BD10B504002948407C002815D15D4841680A0AA3689A70A268A5
:20028000D17080680A21FDF71AFB010AA2681171A16848710620E0602000FEF79BFE10BDC7
:2002A000FEF71EFF10BD00210A00002818D10820374B187004E037481300DBB2C154521C6B
:2002C0001000C0B20728F6D3012233480270FF20334B1870080002E0324801701000FBD0BF
:2002E000704710B5040000F052FFFF212E31884208DB00F04FFF002804D122210548FEF751
:2003000051FE10BD0220E0602000FEF763FE10BD0400FA056803002000210A00002800D06B
:20032000704710B501201A4B187004E0194B1400E4B21955521C1300DBB2072BF6D3164A6A
:200340001070FF22164B1A700A0002E0154A11700200FBD0FFF7BEFE10BD10B5040000F040
:2003600016FFFF212E31884208DB00F013FF002804D12221BC48FEF715FE10BD0220E060BF
:200380002000FEF727FE10BD0CED00E075070020850300200803002084030020EC02002059
:2003A000F0020020EF02002000210A00002800D0704710B50120964B187004E0954B140019
:2003C000E4B21955521C1300DBB2072BF6D3924A1070FF22914B1A700A0002E0BC4A1170BA
:2003E0000200FBD0FFF776FE10BD0000A8610100870300201CB5040000F0C9FEFF212E313A
:20040000884208DB00F0C6FE002804D122219648FEF7C8FD13BD68462168497801702168E1
:20042000897841702168C9788170FFF7A0FC1321C943884204D131212000FEF7B3FD13BDF7
:20044000002804D10120E0602000FEF7C3FD13BD7707002070B505009048C6889D4C320090
:20046000B649200001F034FB002005E0215CAA6812189170401CC0B231008842F6DBFEF7EF
:2004800036FE70BD70B505008448C68A9E4C3200B849200001F01CFB002005E0215CAA68DC
:2004A00012189170401CC0B231008842F6DBFEF71EFE70BDC07F00200C64010094030020B2
:2004C00070B505007548C68C9D4C3200B949200001F0FEFA002005E0215CAA6812189170FE
:2004E000401CC0B231008842F6DBFEF700FE70BD70B505006948C68E9F4C3200BC492000D1
:2005000001F0E6FA002005E0215CAA6812189170401CC0B231008842F6DBFEF7E8FD70BDAA
:2005200070B5050095480688954C3200BB49200001F0CEFA002005E0215CAA681218917077
:20054000401CC0B231008842F6DBFEF7D0FD70BD70B5050098480688984C3200C449200037
:2005600001F0B6FA002005E0215CAA6812189170401CC0B231008842F6DBFEF7B8FD70BDAA
:2005800070B50500A6480688A64C3200C249200001F09EFA002005E0215CAA68121891701E
:2005A000401CC0B231008842F6DBFEF7A0FD70BD70B505009C480688B84C3200642120006B
:2005C00001F0FFFA002005E0215CAA6812189170401CC0B231008842F6DBFEF788FD70BD31
:2005E00070B50500AE480688BA4C32007421200001F0E7FA002005E0215CAA6812189170CF
:20060000401CC0B231008842F6DBFEF770FD70BD850300200803002084030020F002002025
:2006200080B5AD490978012903D10121AB4A11700AE0022903D10221A84A117004E00429E8
:2006400002D10321A54A1170002106E0A34A525C83685B189A70491CC9B2BA4A12889142D8
:20066000F4DBFEF744FD01BD6803002070B50500A7480688C34C32007A21200001F0A1FAFD
:20068000002005E0215CAA6812189170401CC0B231008842F6DBFEF72AFD70BD64560100FD
:2006A00070B50500A8480688C54C32007821200001F087FA002005E0215CAA681218917065
:2006C000401CC0B231008842F6DBFEF710FD70BDEF0200200C07002070B50500AA48068863
:2006E000AA4C3200C549200001F0F2F9002005E0215CAA6812189170401CC0B23100884240
:20070000F6DBFEF7F4FC70BDF007002070B50500AC480688AC4C3200C749200001F0D8F917
:20072000002005E0215CAA6812189170401CC0B231008842F6DBFEF7DAFC70BDB0BF0000F9
:20074000FC07002070B50500AD480688AD4C3200CA49200001F0BCF9002005E0215CAA6831
:2007600012189170401CC0B231008842F6DBFEF7BEFC70BD10BC0100080800203A57010049
:200780009007002070B50500AC480688AC4C3200C749200001F09CF9002005E0215CAA6882
:2007A00012189170401CC0B231008842F6DBFEF79EFC70BD20BC01004A57010044080020CD
:2007C00070B50500B3480688C54C32007C21200001F0F7F9002005E0215CAA6812189170C6
:2007E000401CC0B231008842F6DBFEF780FC70BD30BC010010B50022BA4913000B7005E077
:200800008B5C8468A418A370521CD2B2BE4B1B889A42F5DBFEF76BFC10BD000050BC0100B6
:200820005A570100500800206A57010038B50500AD4C002001F0E9FB392148430A21FDF7E8
:200840003EF8AF21890040186421FDF738F82070002005E0215CAA6812189170401CC0B2EB
:20086000AA4909888842F5DBFEF741FC31BD000060BC010080B5002106E0A54A525C836859
:200880005B189A70491CC9B2B94A12889142F4DBFEF72DFC01BD000070BC0100A0070020EC
:2008A0007A57010070B50500B2480688B24C3200B249200001F00CF9002005E0215CAA68DF
:2008C00012189170401CC0B231008842F6DBFEF70EFC70BDAC08002085030020E0080020A3
:2008E00070B50500A6480688A64C3200A649200001F0EEF8002005E0215CAA681218917089
:20090000401CC0B231008842F6DBFEF7F0FB70BD9A57010070B50500BA480688BA4C32004C
:200920001421200001F04DF9002005E0215CAA6812189170401CC0B231008842F6DBFEF7DD
:20094000D6FB70BD8A570100AA57010070B50400AE494878FF2800D1AD49C7480688AD4D50
:200960003200280001F0B4F8002005E0295CA26812189170401CC0B231008842F6DBFEF732
:20098000B6FB70BD72080020BA570100B008002070B50500B9480688B94C320000212000C4
:2009A00001F00FF9002005E0215CAA6812189170401CC0B231008842F6DBFEF798FB70BD30
:2009C000E1080020CA5701003407002038B5040001F048FB6D46691C684601F075FB002005
:2009E00005E0295CA26812189170401CC0B2B94909888842F5DBFEF77AFB31BDA0BC0100A8
:200A0000DA5701007406002038B5040001F02AFB6D46691C684601F061FB002005E0295C46
:200A2000A26812189170401CC0B2AB4909888842F5DBFEF75CFB31BD90BF0000EA570100C9
:200A40005C08002010B500218D4B05E08268521892785A54491CC9B2A04AD2881400A14248
:200A6000F4DB04000021180001F0C8F803209C49C8602000FEF7AEFA10BD000070BF0000D0
:200A800080B598498979826811710521C160FEF7A1FA01BDFA570100704780B59149897923
:200AA000826811710621C160FEF794FA01BD0000B0BC010080B58B49897882681171062137
:200AC000C160FEF787FA01BD7047704780B50021BF4A51700421C160FEF77CFA01BD0000C4
:200AE000E2080020E3080020DE08002080B5B849F0224A7082681279103A4A700521C16019
:200B0000FEF768FA01BD00000A580100BA560100DF080020F1B500273C0000688078CD49C6
:200B20000D7805403E0007E03000C0B2FFF71AFA284000D0641C761C3000C0B20C28F3DD2A
:200B4000C448007800998968887000988068C770200080B2000A00998968087100988068F9
:200B6000447106200099C8600098FEF733FAF1BDCA560100EA56010020080020C07F000088
:200B80002A5701003808002090BC0100F8B50025016889782E000400009101E0761CF6B20C
:200BA0000C2E1FDC3000FFF7DDF90921014000980A000240F2D0C048B2008058AA000300B4
:200BC0001B0CA768BF18FB70030AA768BF183B71A3689B185871A068801881716D1CADB2FD
:200BE0003F2DDBDB20000168497882685170CB49097882689170A900C91CC160FEF7EAF9D7
:200C0000F1BD0000FA5601002C080020B0BF000040BC01001408002070B58E490978826872
:200C20009170002504001EE0A348A9004058AE000100090CA2689219D170010AA2689219E6
:200C40001171A168891948712800C0B2FFF78AF9A168891D8855A068801D8019017809222D
:200C60000A4002706D1C0D2DDED320003721C160FEF7B0F970BD0000AA560100DA560100AE
:200C80002007002070B500210A001CE0B54B9400A4181B199C7C002C14D0874C95006459F0
:200CA00025002D0C06687618B570250A06687618F57005686D182C719B7C046864186371C3
:200CC000091DC9B2521C0C2AE0DD891CC160FEF781F970BD0A5701001A5701002863010050
:200CE0006803002000000020FEB50026FF2469460E7001684A796B465A708A781204CB781E
:200D00001B0213430979194335000700019118E02800C0B20C2813D1012631213800FEF764
:200D200041F90DE00198644A890051588842EFD12800C0B2FFF716F9B96848712C000D25B2
:200D40006D1C2900C9B20C29ECDD3D002000310030D169464978012901D0FF2925D101212E
:200D6000AA6891710221AA68D171C0B2FEF73BFEFF281AD0BE490A78AB681A724A78AB683A
:200D80005A72784A830018181018C27BAB689A728A78AB68DA72C978AA681173007CA968C9
:200DA00048730E206946087004E031212800FEF7F9F80126002E06D168460078E86028001D
:200DC000FEF708F9F7BD2800FEF704F9F7BD00007507002002781202437813431A02837849
:200DE00013431A02C078104302094240D2005040020E0A700200120C4A70020A8A70C87065
:200E00000020704780B5A948FFF7E4FF01BD10B5A7490A6892B2A54913120B7013004B7077
:200E200053108B709210CA700268527883685A70002206E08B5C9F4CA468A418A370521C6C
:200E400092B29D4B1B699A42F4D39B1CC360FEF7C1F810BD8E0000207CB5060000242500BC
:200E600069460220FFF7CEFF09E03168091989786A46125D914201D06D1C0400641C8E4893
:200E800080688442F1D32D060CD101208B49087001460220FEF7D4FB0220F0603000FEF79F
:200EA00099F873BD00210220FEF7CAFB35213000FEF778F873BD00004461010010B50400EA
:200EC00000F065F9FF212E31884208DB00F062F9002804D122217748FEF764F810BD754873
:200EE00000688078012804D100F010FD00F082FA0EE0022803D1002000F0D0FE08E003284E
:200F000006D1002000F0CAFE00F000FD00F072FA0220E0602000FEF75DF810BD8E00002092
:200F200010B50400634800688078012804D100F00BFD00F05FFA0EE0022803D1002000F0A2
:200F40009BFE08E0032806D1002000F095FE00F0FBFC00F04FFA0220E0602000FEF73AF8A2
:200F600010BD0000AC04002010B50400514800688078012804D100F0C9FC00F044FA0EE043
:200F8000022803D1002000F089FE08E0032806D1002000F083FE00F0B9FC00F034FA02205C
:200FA000E0602000FEF716F810BD10B5040000F0EEF8FF212E31884208DB00F0EBF800283B
:200FC00004D122213B48FDF7EDFF10BD394800688078012804D100F0B7FC00F014FA0EE05B
:200FE000022803D1002000F047FE08E0032806D1002000F041FE00F0A7FC00F004FA0220C2
:20100000E0602000FDF7E6FF10BD10B50400FEF73FFB01F08DFB002805D10020A1680871B9
:201020000520E06003E022212248FDF7BBFF2000FDF7D0FF10BD10B5040000F0A8F8FF21E4
:201040002E31884208DB00F0A5F8002804D122211848FDF7A7FF10BD012019490870FEF700
:2010600069FF0220E0602000FDF7B4FF10BD00001064010010B5040000F089F8FF212E31E4
:20108000884208DB00F086F8002804D122210948FDF788FF10BD002009490870FEF75CFF22
:2010A0000220E0602000FDF795FF10BDB408002018E000E068030020B05E0100750700206F
:2010C000770700200020354902000A704A708A708880C870704780B5082231493148FEF766
:2010E00021FC01BD80B508222F493048FEF71AFC01BD80B508222E492E48FEF713FC01BDEF
:2011000080B5082226492748FEF70CFC01BD80B5082225492548FEF705FC01BD80B508228A
:2011200023492448FEF7FEFB01BD80B51B49002000F022FA01BD10B5184C611C012000F0F1
:201140001BFAA11C022000F017FA211D032000F013FAE11C042000F00FFA10BD00200F49DD
:2011600008701548017801220A430270704700200A4902004A708A708880C8700E48017850
:2011800002220A43027070470448007870470348808870470148C078704700008A07002047
:2011A000846301007C0800208C63010084080020946301008C080020EA08002080B50022F2
:2011C00015213C48FEF776FB01BD3A49087070473849487070473749887070473549C870AA
:2011E00070473449087170473249487170473149887170472F49C87170472E490872704766
:201200002C49487270472B49887270472949C872704728490873704726494874704725496D
:20122000887470472349C87470472249087570472049087800220A7070471E494878002278
:201240004A7070471B49887800228A7070471949487900224A7170471649C8790022CA7132
:2012600070471449087A00220A7270471149487A00224A7270470F49887A00228A727047A3
:201280000C49C87A0022CA7270470A49487C00224A7470470749C87C0022CA7470470549FB
:2012A000087D00220A7570470249887C00228A7470470000F406002038B50024250004E0F7
:2012C000280080B200F02BF86D1C280080B20228F6D32000A24902E02000087001200028FD
:2012E000FAD031BD0200022A00D3704730B48A888A4B44001B5B93420FD39A4BC00018186D
:201300008368002B09D0002305E00C68E45C8568EC545B1CDBB29342F7DB30BC7047FEB5F4
:201320000400022843D22500680000908D4E009837188D486900491949004018808805211C
:20134000FCF7BDFAB883E9007018884A51180A688260898881818168AA000192019AB2180A
:2013600051626E4A009BD25A6B461A806A4612883A847F4A019BD2181368002B0DD00029ED
:201380000BD0002105E013685B5C87687B54491CC9B26B461B889942F5DB751900263000B9
:2013A000A871200000F004F830002871AE70F7BD0100022900D3704710B4C908C9B2684AF5
:2013C000535C01244007400F8440A343535410BC7047010005200A00022A0AD26548D21008
:2013E000D2B2805C4907490F0200CA401000C007C00F704700205F4902E0FF20087001201A
:201400000028FAD07047002001005A4A02E00100117001210029FAD07047F8B50026350026
:201420000BE003689B5C8C68A354521CD2B23B4B6C001B5B9A42F4DB6D1C022D4AD2280073
:20144000FFF7C7FF0128F7D16800401940004649444C221D525D002A11D0091D085A052118
:20146000FCF72DFA6900611888833000211D48555F4801780122AA4091430170DCE70A1803
:201480009278012AD8D16278022AD5D16A00A718BA8B002AD0D0521EBA831204CCD1091D04
:2014A000085A0521FCF70BFAB883AF005948C059002800D080470120611988705648C0193F
:2014C00001680029B8D0E90061188A68002AB3D03200ACE7EFF3108472B6224D6878012816
:2014E00018D1288B002815D0401E2883000411D1022068700CE06648710089194900405ACA
:201500000521FCF7DCF929001C3172008852761C022EF0D384F31088F1BD00007CBC0100A0
:20152000F8B504000F00022819D2FFF752FF012815D139002000FFF7D5FE2500094EB888A2
:20154000E90071188881200001F0ACF90120711908715048A9004058002800D08047F1BDF0
:20156000E8080020200600206C6301001863010054000020E808002070B50C0001250100ED
:20158000052910D286008348805BFFF722FF01280AD181488159002903D020008847002541
:2015A00002E0032500E00425280070BD0100032900D3704710B4C908C9B2784A535C012466
:2015C0004007400F8440A343535410BC7047010005200A00032A0AD27048D210D2B2805C6E
:2015E0004907490F0200CA401000C007C00F7047EA0800200100262900D3704710B4C90859
:20160000AD4A535C01244007400F8440A343535410BC7047FC6301005C00002070B5040090
:2016200001F004F92000B84C25184600C000201801001831AA48805BFCF714FA00280DD1FF
:2016400000202872287B4006400E2873B748805B0521FCF734F9A119088670BD01202872AE
:2016600070BD38B50024250004E0280080B200F097F86D1C280080B20328F6D32000064904
:2016800002E02000087001200028FAD031BD000070630100F463010020060020F1B582B085
:2016A0006846068970000090A64D00982C18208B00286BD1A948805DC0070AD46846008965
:2016C000FFF785FF012804D08F488019007C01285ED12089002810D0401E208100040CD1BE
:2016E0009F480099405A0521FCF7E9F8208186488019017B80220A430273208A002801D04B
:20170000401E2082208A002842D17F48871968460089FFF75CFF012807D192480099405AE7
:201720000521FCF7CCF820822BE0387C012821D1A81901790A00521E0BD0002909D0491E57
:20174000017189480099405A0521FCF7B8F8208217E00025280038742089002801D0208274
:2017600006E07F480099405A0521FCF7A8F82082258106E07A480099405A0521FCF79FF8FD
:201780002082387B802101433973F7BD401E2083F7BD0000F062010004630100E90800202E
:2017A000F1B586B06846008B032800D382E0564D6846008B2E180024200030726846008B73
:2017C000C00002900298281801909F48029940180168019A91618088019988835F48694679
:2017E000098B405C30736846008B40000090554F00983818039020000399088200982818D0
:20180000210001866946098B791804912100049A1171317501872000307030718B4800997B
:20182000405A0521FCF74BF839001831009A8852029838180199896941620199898B018470
:20184000200030740399088181486946098B89004018016800290FD0029969188A69002A08
:201860000AD0220005E003689B5C8D69AB54521C92B28B8B9A42F6DB6846008BFFF796FEF8
:201880006846058B73480099475A3E0004E0300080B2FFF7AFFE761C300080B239006E4A09
:2018A000525D89188842F2DB049804706846008B00F004F807B0F0BD7408002001000329DF
:2018C00000D3704710B4C908C9B2644A535C01244007400F8440A343535410BC7047000082
:2018E000D4630100010005200A00032A0AD25B48D210D2B2805C4907490F0200CA401000CE
:20190000C007C00F70470000400500200020534902E0FF20087001200028FAD048780028E5
:2019200003D164200883012048707047B463010000204A4A02E00120010011700028FAD0F1
:20194000704700008005002000200100434A02E00100117001210029FAD070476CBC010024
:201960009C630100A4630100BC630100F8B500273C003B4D47E0401E308743E02000FFF732
:20198000B1FF01283ED12000FFF788FE60002E18318E002901D0491E31862919097B090671
:2019A00002D5318E002903D02919097A012913D12919097A002909D12919097D002905D133
:2019C0002849085A0521FBF77AFF30872000FFF725FE0120291908752348005D800611D59F
:2019E0002819007D01280DD1308F0028C3D1012028552C48A1004058002800D08047380065
:201A000029190875641C032CB8D3F1BD70B50400032817D2FFF766FF012813D16600104DB7
:201A20002148805B0521FBF74AFFA91908862D19002028751D48A1004058002800D0804751
:201A40000120287170BD0000C4620100CC63010048000020AC6301004CBC01002006002081
:201A600040050020C46301006CBC010070B50C0001250100262912D206000D48F100405A3F
:201A8000FFF730FF01280BD10F48B1004158002903D020008847002502E0032500E0042558
:201AA000280070BD54630100B4630100606301009459010080B5FFF7FFFBFFF7D2FD002045
:201AC0000249487001BD0000185E01002006002030B4002304E01C00A4B20D5D05555B1CF0
:201AE0001400621E2404F6D130BC704738B521200090514C002525801EE089004018009923
:201B000001700099090A41700099090C81700099090EC1700DE0694600F0ECFF0128474848
:201B20002188EAD1890040182900017041708170C1702088401C2080208801002129EAD39F
:201B400031BDFEB53E4C2088212801D3002020806946208800F0CEFF012802D10020C043A2
:201B600000900098000C694608710098010E2088324A03009B00D218537815782E00009F91
:201B8000FFB2BE420DD11E00009F3F0AFFB2BE4207D196786F463F79BE4202D1D6788E42BB
:201BA0000BD0D178090292780A4311020B4319020D430095009900F0BFFF2088401C208053
:201BC000F7BD10B4130004D00B0014001B19852B01D3042010E0EFF3108372B6174C611842
:201BE00003E00C780470401C491C1400621E2404F7D183F31088012010BC704710B413003C
:201C000004D00B0014001B19852B01D3042010E0EFF3108372B6094C611803E004780C70BF
:201C2000401C491C1400621E2404F7D183F31088002010BC70470000D8080020006000202E
:201C4000DA080020002801D0012070471D480078002801D10120704705480078032801D140
:201C600001207047032003490870002070470000E5080020E70800200100012000290AD18C
:201C800010490978002906D00F490978032902D10020014908707047E608002001000122C8
:201CA000100000290DD107490978002909D006490978032905D105490B78012B01D00A7020
:201CC00000207047E4080020E5080020E6080020BFF34F8F0F4810490860BFF34F8F00BF0F
:201CE000FDE780B5012000F003F8FFF7F1FF01BD80B501000022D24310000092012902D10F
:201D0000064807490091904203D00422694600F009F801BD0400FA050CED00E0C07F002030
:201D2000A5A5E53410B4002302E0CC5CC4545B1C9342FAD3002010BC7047FEE70121016013
:201D40007047816801220A438260704781680122914381607047816802220A43826070476F
:201D6000816901220A4382617047026A49004908114301627047026A490049088A430262C4
:201D80007047802252008A40806C1040904201D10120704700207047802252008A4082649B
:201DA0007047016901220A430261704730B58FB001240094032001900025029503956846E5
:201DC00001F05FF80495059504A829000172210041720795089509950A950B210B912021ED
:201DE000445448030D90C02080030E90954C04A9200001F075F82000FFF7B2FF2A4672218C
:201E00009148FDF757FD0FB030BD10B58F48FFF7C8FF8C4C02212000FFF7A7FF2021200084
:201E2000FFF7A3FF40212000FFF79FFFA10C2000FFF79BFF610C2000FFF797FF8021C90114
:201E40002000FFF792FF802149042000FFF78DFF2000FFF773FF2000FFF773FF2000FFF725
:201E60007AFF10BDF8B5784C794D04212800FFF788FF002800D1A9E004212800FFF78CFFCB
:201E8000704D2800FFF75AFF2800FFF75FFF802149042800FFF76FFF8021C9012800FFF78F
:201EA0006AFF690C2800FFF766FFA90C2800FFF762FF40212800FFF75EFF20212800FFF752
:201EC0005AFF02212800FFF756FF0E22210062312000FDF727FD00267020205C042813DCAA
:201EE000300009E0820012185200A218490051184200A25ACA81401C7021615C0728F1D339
:201F0000491C702021541DE030000BE0820012185200A2184B00D218138AD381491C0429CF
:201F2000F4DB401C072801D23100F8E7300007E04100615A820012185200A218D182401CEA
:201F40000728F5D3370015E0B900C919490061185300C918C9894018521CD2B27021615CE3
:201F60008A42F1DB80B2FBF7A7FC79006118542288527F1C072F02D230003200EEE72000C4
:201F80007030467002212800FFF7EFFE20212800FFF7EBFE40212800FFF7E7FEA90C280034
:201FA000FFF7E3FE690C2800FFF7DFFE8021C9012800FFF7DAFE802149042800FFF7D5FE9A
:201FC0002800FFF7BEFE2800FFF7C5FE250070356878401C6870C0B232280FDB1948FFF75B
:201FE000B5FE00206870024672212000FDF762FCFFF7DCFE01F029F8FFF707FFF1BD124902
:20200000400008185421405A704730B50E498C89104A12881300104D5B193B2B01D30F4ADE
:2020200012884000085A0021D31701F03FF80C4A002301F03BF82203121B002301F04FF8E7
:2020400030BD0000005C0140E803002000A401400004004008FBFF1FABF9FFFFF6FBFF1FF0
:20206000B80B0000F8B500247E4F00E0641C042C19DA002528003855082DF7DA0AA0E10011
:202080004018405D01000E290BD20126AE4001F0C6F80128385D02D0B043385501E0064338
:2020A0003E556D1CE8E7F1BDFFFF0C080A06FFFFFF07FFFFFFFF0DFFFF0B0509FF04FF0E31
:2020C000020003FFFFFFFFFF10B4664A1378DC4304705078C2430A7010BC704710B4614A35
:2020E0009378DC430470D078C2430A7010BC704780B55D498200101880000818C17B6A46E7
:2021000011706946407BFFF7B1FC01BD80B500216A4611706946544A830018188000101844
:20212000407BFFF7A3FC01BD38B54F498200101880000D184D4CA87CE07000202071E078A7
:20214000082801DB0720E0706A7CE178002000F026F8687BA07031BD1CB504216A46517047
:202160000121117040498200101880000C1800A9491C607BFFF77AFC6946A07BFFF776FC5E
:2021800013BD80B538498200101880000818017C6A4611706946407BFFF768FC01BD70B41B
:2021A0000023060006E0314C1D00EDB2AD19641962715B1C1C000D00E4B2AC42F3D370BCAB
:2021C000704738B528498200101880000D18274CA87CE07000202071E078082801DB072078
:2021E000E070EA7BE1780020FFF7D9FF687BA07031BD38B505001D4C0320E0700020207183
:2022000002460321FFF7CBFF1748A900491989004018407BA07031BD144A101801757047DB
:2022200010B500F091FF114C00220D2120001430FDF740FB00220D210D48FDF73BFB002228
:202240000D2120002830FDF735FB00220C212000FDF730FB00200100A184E1602182A074E8
:2022600010BD0000BC080020C45A0100FC04002048070020FEB500263446254608E0300029
:20228000C0B200F0CCFF012801D16D1CEDB2761C3000C0B20D28F2D3C648807C002806D0B8
:2022A000F7BD00212000C0B2FFF7B6FF0CE000950BE02000C0B200F0B2FF002804D100214F
:2022C0002000C0B2FFF7A8FF641C2000C0B20D2800D36EE12500EDB2B64F7819007D062861
:2022E000DFD802A14000095E8F4400BF0E00860020028E02C6FF0401660100980228E3DA55
:202300002000C0B200F08BFF012813D1C148A900491989004018007B002805D101212000F4
:20232000C0B2FFF779FFCFE701212000C0B2FFF773FFC9E70120A0400190C14E308A019946
:202340008842C1D168003818018D0A00FA235B009A4202DA491C0185B6E70220B949AA004B
:2023600089588847308A0199CA43D2B210403082AAE7009802286FDAA648A90049198900A8
:2023800045182E7B2000C0B200F049FF00280DD1002E05D100212000C0B2FFF73DFF93E704
:2023A00006212000C0B2FFF737FF8DE7002E11D12000C0B200F03AFF6968814205D203216A
:2023C0002000C0B2FFF728FF7EE72000C0B2FFF78FFE79E72000C0B200F028FF2968884270
:2023E00000D271E705212000C0B2FFF715FF6BE70098022830DA8748A90049198900451813
:202400002E7B2000C0B200F00AFF00280CD1012E00D059E72000C0B2FFF7D3FE00212000AA
:20242000C0B2FFF7F9FE4FE7012E00D04CE72000C0B200F0FBFEA968884200D244E7200062
:20244000C0B2FFF755FE02212000C0B2FFF7E4FE3AE70098022809DB2000C0B2FFF756FE91
:2024600004212000C0B2FFF7D7FE2DE76948A9004919890047183E7B2000C0B200F0CFFE1A
:20248000002828D1012E00D01EE76D484519287801280BD12000C0B2FFF746FE00202870DB
:2024A00001462000C0B2FFF7B7FE0DE72000C0B200F0CBFE962804D22000C0B200F0BCFE89
:2024C00002E72000C0B200F0C7FE05212000C0B2FFF7A2FEF8E6012E00D0F5E62000C0B234
:2024E00000F0BAFE2000C0B200F0A0FE544949193A68904207D30020087005212000C0B277
:20250000FFF78AFEE0E601200870DDE60098022809DB2000C0B2FFF76CFE04212000C0B2CC
:20252000FFF77AFED0E62000C0B2FFF72AFE3948A9004919890045182E7B2000C0B200F02A
:202540006EFE002808D1012E00D0BDE600212000C0B2FFF761FEB7E6012E00D0B4E620000E
:20256000C0B200F063FE6968884200D2ACE603212000C0B2FFF750FEA6E62000C0B2FFF78B
:20258000EBFD2000C0B200F04AFE002805D100212000C0B2FFF740FE96E601202949AA00EB
:2025A000895888472648018A0122A2400A4302828AE6F7BDFC04002080B523480178002916
:2025C00001D0491E01700178002913D10179C27891420DD20A2202700A00821852796B46A8
:2025E0001A70491C017169468078FFF73FFA01BD0021817401BD10B5134C0B2000F00FFEC6
:20260000002801D09620A084A08C002801D0401EA08410BDC45A010010B50C4C0E2000F019
:2026200005FEA04202D3022000F000FE102000F0FDFDA04202D20F2000F0F8FD10BD00001F
:202640004807002010610100FC040020F149020080B500F0BFFDFFF70DFEFFF7DDFFFFF793
:20266000ABFFFFF7C8FF01BD80B50020FFF7C7FC58490A78092A56D801A39B5C9F4400BF66
:202680000A2A3E52A6A6A6627E8E4A88824204DB012008700020487047E0CA88904242DBC8
:2026A00007200870002048703FE04A88824237DB4878401C4870C0B2642836DB0CE00022EB
:2026C0008B88984203DB032008704A702DE04A702BE08A8890421DDA0020487002200870BB
:2026E00023E0CA8890421BDB4878401C4870C0B264281ADB002048700820087015E00A89F6
:202700008242F7DB00204870092008700DE00A898242EFDB4878401C4870C0B2642804DBEB
:202720000020088001E00020088000F01DF801BD284908780C2814D801A2125C974400BFE9
:202740000E0E12121216160E1A1A1A1E1E00002070470220704705207047082070470B20CD
:20276000704700200870704710B5FFF7E1FF1A4C60702178884228D1082801D00B2808D119
:202780006088C8281DDB0120FEF74FFD0020608017E0022801D0052808D16088C82810DB4C
:2027A0000120FEF73FFD002060800AE06088C82807DB0220FEF736FD0220FEF736FD00206F
:2027C00060806088401C608001E0002060806078207010BD78000020D4080020F0B40200A5
:2027E0000B00FF24200000252E0001E00800761C31001F00C9B2B94212D23100C9B2515CBA
:202800004140C9B22F003800C0B20828EEDA4800090601D4010001E02F2141407F1CF2E798
:2028200044402000C0B2F0BC7047000070B501001BD10020174C621C174D03E02918897883
:202840001154401C0628F9DB0F2620783040687029A1085CE07108212000FFF7BFFF28708C
:202860002078401C0640267070BD022810D1002006E00A49D2008918095C094A1154401C0B
:2028800004490A7A0828F4DB521C5007400F087270BD0000680800207C080020E45F010035
:2028A0008C080020704780B5FEF715FC01BD80B5FEF718FC01BD80B5FEF71BFC01BD80B584
:2028C000FEF71EFC01BD80B5FEF721FC01BD80B5FEF724FC01BD80B5FEF727FC01BD80B5DE
:2028E000FEF729FC01BD80B5FEF738FC01BD80B5FEF73DFC01BD00006AB0CD4EE0161C225A
:202900007198D9DFFA76F81481B000210091B14901600068009001B0704770B5040000258E
:2029200000E06D1C2E00F6B2042E0BDAAA48FFF7EBFFF0022118A94800F0FAFC0028F0D184
:20294000012070BD042070BD80B50A000100A34800F05AFD002801D1012002BD042002BDA9
:20296000F8B500240025ED43E0277F023968F0204002006880B289B2002970D0AD4A9142AE
:2029800025D02A0C914200D0ADE0002807D13846FFF7C3FF0100042900D10420F2BDA549E6
:2029A00088420ED13846FFF7B8FF01000429F5D12146F0204002FFF7C7FF01000429EDD1EE
:2029C000EBE700F0C6F801000429E7D1E5E70028994E2BD0290C88423BD1F0204002FFF768
:2029E0009CFF01000429D9D121463846FFF7ACFF01000429D2D1D0E7F968814201D125003B
:202A00002DB2200080B2290088420ED03100200080B200F06FF8012807D03168200080B2EF
