:020000042000DA
:2070000001800000363931470000010079740020BB7400200B75002041750020657500203B
:207020009E490A681043086070479C490A6882430A6070479A490A681043086070479849A0
:207040000A6882430A6070474269964B134019434161704741690122914341614169022233
:207060000A43426170474169022291434161416901220A4342617047816170470021C943EB
:2070800081617047016AE020000308407047006A810A0800C007C00F70478021C9000162D3
:2070A0007047006A410A0800C007C00F7047006A010A0800C007C00F7047802149000162F8
:2070C0007047006A41080800C007C00F7047022101627047016A0800C007C00F70470121D2
:2070E00001627047FEB50024029401226B461A70A34DA84200D0FEE70191084691048842DD
:2071000000D3FEE72020FFF78BFF0198800706D12800FFF7B7FF80210903884201D120467D
:20712000FEBDCF023800FFF785FF21462800FFF78BFF2800FFF797FFEFF3108672B69149D4
:207140002800FFF799FF90492800FFF795FF86F310882800FFF7C3FF2800FFF7AEFF28000A
:20716000FFF79BFF894801990860029E761CA80B864222D22800FFF79AFF00281DD1280016
:20718000FFF78FFF002818D12800FFF780FF002813D12800FFF79EFF0028E7D02800FFF7F9
:2071A0009EFF2800FFF76AFF3800FFF748FF2020FFF73BFF68460078FEBD68460470F0E7EC
:2071C000FEB50024029401226B461A706C4DA84200D0FEE7019108469104884200D3FEE795
:2071E0002020FFF71DFF0198800706D12800FFF749FF80210903884201D12046FEBDCF02A5
:207200003800FFF717FFA90D2800FFF71DFF2800FFF729FFEFF3108672B65A492800FFF793
:207220002BFF5B492800FFF727FF86F310882800FFF755FF2800FFF740FF2800FFF72DFF12
:20724000524801990860029E761CA80B864222D22800FFF72CFF00281DD12800FFF721FF54
:20726000002818D12800FFF712FF002813D12800FFF730FF0028E7D02800FFF730FF280021
:20728000FFF7FCFE3800FFF7DAFE2020FFF7CDFE68460078FEBD68460470F0E73824004081
:2072A0004C240040FFFCFFFFF8B584B016000024029401226B461A70314DA84200D0FEE7F9
:2072C000019108469104884200D3FEE72020FFF7A7FE0198800706D12800FFF7D3FE802155
:2072E0000903884201D1204644E00396CF023800FFF7A0FE2800FFF7ADFEEFF3108672B6BD
:2073000059492800FFF7B8FE58492800FFF7B4FE86F310882800FFF7D0FE2800FFF7BDFEB0
:20732000039801990860029E761CA80B864223D22800FFF7BCFE00281ED12800FFF7B1FE52
:20734000002819D12800FFF7A2FE002814D12800FFF7B7FE0028E7D02800FFF7B8FE2800A2
:20736000FFF78CFE3800FFF76AFE2020FFF75DFE6846007805B0F0BD68460470EFE70000E6
:207380000010004096969696EAEAEAEACDAB34123C3C3C3CF7B50124354DA84200D0FEE7FD
:2073A000802900D3FEE7C802009000984005400D56D12020FFF734FEA007FFF73BFE28005B
:2073C000FFF748FEEFF3108672B627492800FFF753FE26492800FFF74FFE86F310882800DF
:2073E000FFF76BFE2800FFF758FE0027029E00E03F1D2048874228D800242800FFF72AFE1C
:207400003068009908600098001D0090361D641CA80B844225D22800FFF749FE002820D1CD
:207420002800FFF73EFE00281BD12800FFF72FFE002816D12800FFF744FE0028E7D028001D
:20744000FFF745FE01242000D2D12800FFF716FE8020C005FFF7F3FD2020FFF7E6FD200055
:20746000FEBD0024EFE70000A5A5A5A5F1F1F1F100100040FF070000F8B50F0016000024B3
:20748000250021006A4611708069002800D080476846007802E0802109016D18B54206D2C6
:2074A00079194148FFF78CFE01000129F3D0012801D12000F2BD0120F2BDF8B50C001500DB
:2074C0001E0000216A4611708069002800D080473100AE08B6B200222700684600780D00C9
:2074E000140000E0641CB44209D22A68A00039182D48FFF7D9FE2D1D01000129F2D0012822
:2075000001D10020F2BD0120F2BDFEB500260190009117001C00089D00E0761CBE420DD2D6
:2075200001988069002800D08047009880190178A25D9142F1D028600120FEBD0020FEBD8E
:2075400038B50D001C008069002800D080472200E90A1548FFF71EFF012801D1002032BDDE
:20756000012032BDF8B50F0016000024250021006A4611708069002800D0804768460078C0
:2075800002E0802189006D18B54206D279190648FFF7A8FD01000129F3D0012801D1200007
:2075A000F2BD0120F2BD000000100040002D10BF79D011B08A351EFC941EA03D0BABC2F323
:2075C00022C9BB3B2242C883588CDC9596B1242ECBD686939C4A52730FC31B0AAC8BF03E6C
:2075E000BC6323D797E0D50BAFFABBA235A5E2CF5F1A705ABCA2167A429B34332E7EE33452
:00000001FF
