:20000000582E0020E5A900001330000029A30000000000000000000000000000000000009D
:200020000000000000000000000000007B3100000000000000000000CB310000FF310000E8
:200040001F320000BD9E0000CB330000CF330000CDA10000D33300007B4C0000DB5400008A
:2000600045BE00006BBF00006DBF0000E37D0000A9BE00006FBF0000FFBF000033A600009B
:200080008BA70000E5A7000073A800007FA800008DAA00008FAA000091AA000093AA000078
:2000A00095AA000097AA000099AA00009BAA000013A400009DAA00009FAA0000B5790000C3
:2000C000002900D1704780B50022C90002F084FF01BD01210160002141608160704710B57A
:2000E00004000DD0A068002805D06168FFF7E8FFA06802F0DAFF0120206000206060A06020
:2001000010BD70B50C0011498C4209D206007068A04219D20821200003F010F8050002D117
:200120000F20C04370BDB16800290BD07068C200280003F023F87168B068FFF7C1FFB068B4
:2001400002F0B3FF7460B560002070BD1127000070B505000C00A54201D1002070BD666883
:20016000002E03D1FFF7BBFF002070BD761E00E0761E002E07D0A068F100401803C800292E
:2001800001D10028F4D0761C206828606868B04204D231002800FFF7B4FF07E00022801BC1
:2001A000C100A868F300C01802F006FFF200A168A86802F0E3FF002070BDF0B585B0002581
:2001C0000490039117001C0019E0EE0003988019029003C801222300D21AD31702F0F6FF49
:2001E00000900191B81903C82200002302F0EEFF009A019B80185941029A03C26D1C04982F
:200200008542E2D305B0F0BDF8B5060014001D000121FFF776FF07001BD100227068C100E1
:20022000B06802F0D9FE002D06DC00DB04D200200146001BA94101E020002900B26803C2A8
:20024000002D04DC00DB02D20020C04300E0012030603800F2BD00B50A00416889018A4289
:2002600001D3002000BD80689109C900401803C89206920E02F0C4FFC007C00F00BDD0B49B
:20028000002680273F06344604E07608FA0716437F08641C402C06D232003B0002400B40D1
:2002A00001D1002AF1D02000D0BC704738B502005468002C01D1002032BD641E00E0641E82
:2002C0009068E100401803C8002C03D0002901D10028F4D04025FFF7D2FF281AA10108180C
:2002E00032BD80B5FFF7E2FFC01DC00802BDF8B584B00C0016008021C9058E4201D3FC206D
:2003000039E00500F0008106890E491E8941C943C90F800941182800FFF7F3FE02900028F1
:2003200027D1002213462800FFF76EFF029000281FD1300003952700040019E003988068A6
:20034000611EC908C900451803CD083D00900191301B385C00212200521ED30038221A40D7
:2003600002F05EFF009A019B1043194303C5641EE4D10298C0B205B0F0BD33B4002213467A
:2003800014466D4608E01B02100E03431202287810430200641C6D1C2000C0B20828F2D34E
:2003A000100019003CBC704780B5FFF7E6FF04BD002900D17047F8B5C9004518083D0400C7
:2003C0000FE003CC083CFFF7EFFF06000F0003CD083DFFF7E9FF03C4083CC0C5083D08341E
:2003E000083DA542EDD2F1BDFEB504000D0016007007400F401E8041C043C00FF1080F18B3
:20040000F800801B01906068B8420CD02000FFF766FE2000FFF75DFE39002000FFF771FE71
:200420000090002813D1002213462000FFF7ECFE009000280BD1290009D03200A068019B39
:20044000C01802F0B5FE3900A068FFF7B1FF0098FEBDF8B50500080011006A68D6008E42A2
:200460000AD2009642187342D4180022891B02F0A3FD0027009E26E0009104000F4600E022
:200480007F1CB742F5D2A868F908C900401803C83A00D30038221A4002F0B2FE0006EFD0DC
:2004A0000720C043F2BDA868F908C900401803C83A00D30038221A4002F0A2FEF11B61188E
:2004C000491E08707F1CB742EDD30020F2BDF2B588B004000026374604A8C0C0089880093F
:2004E00000903F250898284001902000FFF7DEFE089940186168890181420DD20540290021
:20050000491E8941C943C90F800941182000FFF7F8FD029000284DD1304602900098002839
:2005200017D0636809E0A268083A181AC000101803C8DD00521903C25B1E00989842F2D332
:20054000002B06D0A0680838D9004018C0C05B1EF6E7019800282DD0009E009404A830C8B7
:2005600024E0F70004AA00988068F100401803C803C204A803C84022019BD21A02F040FEE8
:2005800006AA03C204A803C8019A02F049FE009A9268D21903C200988068C21903CA083AED
:2005A00004430D4330C206A830C8761C009840688642D6D3029809B0F0BDF8B586B00022C4
:2005C000134602AC0CC48E098A06920E4168B14203D38E4205D1002A03D01A46FFF714FE00
:2005E0004FE0002E1AD0040008E0A5689819C000281803C8DF00ED1903C55B1C6068801BB8
:200600008342F2D36068834207D200200146A568DE00AD1903C55B1CF4E72000002A2FD06F
:200620004668009002A830C80192002E27E0F700009880680838F100401803C802AA03C2D6
:2006400002A803C84022019BD21A02F0E9FD04AA03C202A803C8019A02F0D2FD009A92688B
:20066000083AD21903C2009880680838C21903CA083A04430D4330C204A830C8761ED6D176
:20068000002007B0F0BD7CB40A004668040000E0761E002E08D0A0680838F100401803C814
:2006A000002901D10028F3D0536800E05B1E002B08D090680838D900401803C8002901D10E
:2006C0000028F3D01800304326D0B3421FD39E421FD315000BE00090019110001900009A10
:2006E000019B8B4202D814D3824212D3761E002E12D0F200A0680838801803C8AB68083B90
:200700009A180CCA8B42E6D801D38242E3D2012003E00020C04300E0002076BC70477CB439
:200720000A004668040000E0761E002E08D0A0680838F100401803C8002901D10028F3D041
:20074000536800E05B1E002B08D090680838D900401803C8002901D10028F3D018003043DD
:2007600037D0B34230D311689E4201D2484231E02068002803DD002901D501202AE00029D0
:2007800004DD002802D50020C04323E015000BE00090019110001900009A019B8B4202D82B
:2007A00014D3824212D3761E002E12D0F200A0680838801803C8AB68083B9A180CCA8B42BD
:2007C000E6D801D38242E3D2206803E02168484200E0002076BC704730B585B0002B08DC7E
:2007E00000DB06D200242546A41A9D41694630C101E069460CC10121002B04DC00DB02D242
:200800000022D24300E00A00029203916946049102A9FFF784FF05B030BDF1B586B0150094
:20082000A84201D10D000146884204D0FFF790FC0290002874D10120069908606C6800E0AD
:20084000641E002C08D0A868E1004018083803C8002901D10028F3D021000698FFF751FCD6
:20086000029000285CD1AA68069887680020014606460494039204000D00049886423FD28C
:2008800003980CC803CF083F0019694103C7083FA94202D804D3A04202D30024254601E039
:2008A000012400258018594103C7083F0090019110001900009A019B8B4205D801D38242E8
:2008C00002D20020641C4541761C0398083003900837D2E70024254610E006988068F10038
:2008E000471803CF083F0019694103C7083FA942F0D801D3A042EDD201240025761C083769
:20090000002D01D1002C0BD0069840688642E8D33100491C0698FFF7F4FB02900028DCD089
:20092000029807B0F0BDF0B48AB005000C0013000020014602AA03C2064600960195220045
:200940002FE0340019E03446254608AF30C702AC30CC001BA94104AC03C404A803C803C266
:20096000083A03CB083B03C404A830C803C88D42E7D801D38442E4D20124002508A803C84B
:200980000019694102AC03C404A803C806AC30CC001BA94103C2083A0098401C009008332F
:2009A00008320098019988420DD203CA083A02AC30CCA942C7D801D3A042C4D201243546F3
:2009C00008AF30C7C3E702A803C80AB0F0BC7047FEB506000C0015006846FFF77AFBAE424A
:2009E00006D129006846FFF7B3FB070041D16D4621008E4204D03000FFF7AAFB070038D139
:200A00000120306000276C6800E0641EAA68002C07D0E0001018083803C8002901D100287D
:200A2000F3D0B1682000FFF77EFF002907D1002805D11EE00023401E994103C2641C7368CF
:200A40009C4208D2B068E100421803CA083A002901D10028EED09C4202D10920C043FEBD03
:200A6000B068E100421803CA083A0023401E994103C23800FEBDF8B505000F00160038688A
:200A800004003168484318D531003800FFF7FBFD002808D4320039002800FFF799FF00289D
:200AA00012D12C60F2BD3A0031002800FFF790FF002809D161422960F2BD39002800FFF7CC
:200AC000ACFE002800D12C60F2BDF8B505000F0016003868040031684843002818DD31004B
:200AE0003800FFF7D0FD002808D4320039002800FFF76EFF002812D12C60F2BD3A00310050
:200B00002800FFF765FF002809D161422960F2BD39002800FFF781FE002800D12C60F2BD6C
:200B2000F8B590B003000C000020014602AD03C50C930194009283E002A830C077E002A817
:200B400030C03046026743670198846FC56F0020C0430021204006AA03C22C000025019859
:200B60008030019006A803C80CCA02F02FFB04AA03C2200029000AAA0CCA02F027FB060069
:200B80000F002000290008AA0CCA02F01FFB02000B0004A803C808000021801859413D004D
:200BA0002C00002524184D4104A803C80100002004AA03C23700064606A803C80AAA0CCA89
:200BC00002F004FB02000B0004A803C88018594104AA0CCA994204D801D3904201D2641C3A
:200BE000554180197941B94204D801D3B04201D2641C554102AA0CCA12184B4102A803C8D9
:200C00008B4205D801D3824202D20020641C4541009EB06FF16F12184B418B428CD801D3C0
:200C2000824289D20020641C454102A830C030468267C3670098803000900C9810380C90EC
:200C40000C98102801D200F064FF16A80CC80020C043002110400AAA03C216A803C8080062
:200C6000002108AA03C2019830C80020C043204006AA03C22C00002506A803C80CCA02F0C1
:200C8000A5FA04AA03C2200029000AAA0CCA02F09DFA06000F002000290008AA0CCA02F00E
:200CA00095FA02000B0004A803C808000021801859413D002C00002524184D4104A803C8F7
:200CC0000100002004AA03C23700064606A803C80AAA0CCA02F07AFA04AA0CCA12184B415A
:200CE00004A803C88B4204D801D3824201D2641C454192197B41BB4204D801D3B24201D288
:200D0000641C454102A803C88018594102AA0CCA994205D801D3904202D20022641C55413A
:200D2000009A0CCA80185941994208D801D3904205D20022641C554102AA30C201E002AA76
:200D400030C2009A03C20198083030C80020C0433146204006AA03C22C00002506A803C840
:200D60000CCA02F033FA04AA03C2200029000AAA0CCA02F02BFA06000F002000290008AA11
:200D80000CCA02F023FA02000B0004A803C808000021801859413D002C00002524184D4137
:200DA00004A803C80100002004AA03C23700064606A803C80AAA0CCA02F008FA04AA0CCA2A
:200DC00012184B4104A803C88B4204D801D3824201D2641C454192197B41BB4204D801D3B8
:200DE000B24201D2641C454102A803C88018594102AA0CCA994205D801D3904202D20022A9
:200E0000641C5541009A08320CCA80185941994208D801D3904205D20022641C554102AAC4
:200E200030C201E002AA30C2009A083203C20198103030C80020C0433146204006AA03C268
:200E40002C00002506A803C80CCA02F0BFF904AA03C2200029000AAA0CCA02F0B7F906005A
:200E60000F002000290008AA0CCA02F0AFF902000B0004A803C808000021801859413D00DC
:200E80002C00002524184D4104A803C80100002004AA03C23700064606A803C80AAA0CCAA6
:200EA00002F094F904AA0CCA12184B4104A803C88B4204D801D3824201D2641C454192193D
:200EC0007B41BB4204D801D3B24201D2641C454102A803C88018594102AA0CCA994205D8FB
:200EE00001D3904202D20022641C5541009A10320CCA80185941994208D801D3904205D224
:200F00000022641C554102AA30C201E002AA30C2009A103203C20198183030C80020C043DF
:200F20003146204006AA03C22C00002506A803C80CCA02F04BF904AA03C2200029000AAA1F
:200F40000CCA02F043F906000F002000290008AA0CCA02F03BF902000B0004A803C80800F5
:200F60000021801859413D002C00002524184D4104A803C80100002004AA03C23700064638
:200F800006A803C80AAA0CCA02F020F904AA0CCA12184B4104A803C88B4204D801D3824251
:200FA00001D2641C454192197B41BB4204D801D3B24201D2641C454102A803C880185941D0
:200FC00002AA0CCA994205D801D3904202D20022641C5541009A18320CCA8018594199425E
:200FE00008D801D3904205D20022641C554102AA30C201E002AA30C2009A183203C20198FD
:20100000203030C80020C0433146204006AA03C22C00002506A803C80CCA02F0D7F804AA0A
:2010200003C2200029000AAA0CCA02F0CFF806000F002000290008AA0CCA02F0C7F80200C6
:201040000B0004A803C808000021801859413D002C00002524184D4104A803C801000020C3
:2010600004AA03C23700064606A803C80AAA0CCA02F0ACF804AA0CCA12184B4104A803C830
:201080008B4204D801D3824201D2641C454192197B41BB4204D801D3B24201D2641C454155
:2010A00002A803C88018594102AA0CCA994205D801D3904202D20022641C5541009A2032B1
:2010C0000CCA80185941994208D801D3904205D20022641C554102AA30C201E002AA30C27B
:2010E000009A203203C20198283030C80020C0433146204006AA03C22C00002506A803C81D
:201100000CCA02F063F804AA03C2200029000AAA0CCA02F05BF806000F002000290008AA11
:201120000CCA02F053F802000B0004A803C808000021801859413D002C00002524184D4165
:2011400004A803C80100002004AA03C23700064606A803C80AAA0CCA02F038F804AA0CCA58
:2011600012184B4104A803C88B4204D801D3824201D2641C454192197B41BB4204D801D314
:20118000B24201D2641C454102A803C88018594102AA0CCA994205D801D3904202D2002205
:2011A000641C5541009A28320CCA80185941994208D801D3904205D20022641C554102AA01
:2011C00030C201E002AA30C2009A283203C20198303030C80020C0433146204006AA03C285
:2011E0002C00002506A803C80CCA01F0EFFF04AA03C2200029000AAA0CCA01F0E7FF06004D
:201200000F002000290008AA0CCA01F0DFFF02000B0004A803C808000021801859413D0003
:201220002C00002524184D4104A803C80100002004AA03C23700064606A803C80AAA0CCA02
:2012400001F0C4FF04AA0CCA12184B4104A803C88B4204D801D3824201D2641C4541921964
:201260007B41BB4204D801D3B24201D2641C454102A803C88018594102AA0CCA994205D857
:2012800001D3904202D20022641C5541009A30320CCA80185941994208D801D3904205D260
:2012A0000022641C554102AA30C201E002AA30C2009A303203C20198383030C80020C043FC
:2012C0003146204006AA03C22C00002506A803C80CCA01F07BFF04AA03C2200029000AAA47
:2012E0000CCA01F073FF06000F002000290008AA0CCA01F06BFF02000B0004A803C80800E8
:201300000021801859413D002C00002524184D4104A803C80100002004AA03C23700064694
:2013200006A803C80AAA0CCA01F050FF04AA0CCA12184B4104A803C88B4204D801D3824278
:2013400001D2641C454192197B41BB4204D801D3B24201D2641C454102A803C8801859412C
:2013600002AA0CCA994205D801D3904202D20022641C5541009A38320CCA8018594199429A
:2013800008D801D3904205D20022641C554102AA30C201E002AA30C2009A383203C2019839
:2013A000046C456C0020C0433146204006AA03C22C00002506A803C80CCA01F007FF04AA58
:2013C00003C2200029000AAA0CCA01F0FFFE06000F002000290008AA0CCA01F0F7FE0200B9
:2013E0000B0004A803C808000021801859413D002C00002524184D4104A803C80100002020
:2014000004AA03C23700064606A803C80AAA0CCA01F0DCFE02000B0004A803C88018594152
:2014200004AA0CCA994204D801D3904201D2641C554180197941B94204D801D3B04201D21F
:20144000641C554102AA0CCA12184B4102A803C88B4205D801D3824202D20020641C45418D
:20146000009E306C716C12184B418B4208D801D3824205D20020641C454102A830C001E0E2
:2014800002A830C03046026443640198846CC56C0020C0430021204006AA03C22C0000250B
:2014A00006A803C80CCA01F091FE04AA03C2200029000AAA0CCA01F089FE06000F0020006A
:2014C000290008AA0CCA01F081FE02000B0004A803C808000021801859413D002C0000257E
:2014E00024184D4104A803C80100002004AA03C23700064606A803C80AAA0CCA01F066FE3C
:2015000002000B0004A803C88018594104AA0CCA994204D801D3904201D2641C55418019B2
:201520007941B94204D801D3B04201D2641C554102AA0CCA12184B4102A803C88B4205D814
:2015400001D3824202D20020641C4541009EB06CF16C12184B418B4208D801D3824205D210
:201560000020641C454102A830C001E002A830C030468264C3640198046D456D0020C043CE
:201580000021204006AA03C22C00002506A803C80CCA01F01BFE04AA03C2200029000AAA3B
:2015A0000CCA01F013FE06000F002000290008AA0CCA01F00BFE02000B0004A803C80800E7
:2015C0000021801859413D002C00002524184D4104A803C80100002004AA03C237000646D2
:2015E00006A803C80AAA0CCA01F0F0FD02000B0004A803C88018594104AA0CCA994204D819
:2016000001D3904201D2641C554180197941B94204D801D3B04201D2641C554102AA0CCAE0
:2016200012184B4102A803C88B4205D801D3824202D20020641C4541009E306D716D121800
:201640004B418B4208D801D3824205D20020641C454102A830C001E002A830C030460265CA
:2016600043650198846DC56D0020C0430021204006AA03C22C00002506A803C80CCA01F05C
:20168000A5FD04AA03C2200029000AAA0CCA01F09DFD06000F002000290008AA0CCA01F000
:2016A00095FD02000B0004A803C808000021801859413D002C00002524184D4104A803C8EA
:2016C0000100002004AA03C23700064606A803C80AAA0CCA01F07AFD02000B0004A803C804
:2016E0008018594104AA0CCA994204D801D3904201D2641C554180197941B94204D801D3F0
:20170000B04201D2641C554102AA0CCA12184B4102A803C88B4205D801D3824202D200200B
:20172000641C4541009EB06DF16D12184B418B4208D801D3824205D20020641C454102A8E8
:2017400030C001E002A830C030468265C3650198046E456E0020C0430021204006AA03C2C2
:201760002C00002506A803C80CCA01F02FFD04AA03C2200029000AAA0CCA01F027FD06004B
:201780000F002000290008AA0CCA01F01FFD02000B0004A803C808000021801859413D0040
:2017A0002C00002524184D4104A803C80100002004AA03C23700064606A803C80AAA0CCA7D
:2017C00001F004FD02000B0004A803C88018594104AA0CCA994204D801D3904201D2641C2D
:2017E000554180197941B94204D801D3B04201D2641C554102AA0CCA12184B4102A803C8CD
:201800008B4205D801D3824202D20020641C4541009E306E716E12184B418B4208D801D33A
:20182000824205D20020641C454102A830C001E002A830C03046026643660198846EC56E8D
:201840000020C0430021204006AA03C22C00002506A803C80CCA01F0B9FC04AA03C2200096
:2018600029000AAA0CCA01F0B1FC06000F002000290008AA0CCA01F0A9FC02000B0004A8E2
:2018800003C808000021801859413D002C00002524184D4104A803C80100002004AA03C2BF
:2018A0003700064606A803C80AAA0CCA01F08EFC02000B0004A803C88018594104AA0CCAED
:2018C000994204D801D3904201D2641C554180197941B94204D801D3B04201D2641C5541E9
:2018E00002AA0CCA12184B4102A803C88B4205D801D3824202D20020641C4541009EB06E43
:20190000F16E12184B418B4208D801D3824205D20020641C454102A830C001E002A830C05B
:2019200030468266C3660198046F456F0020C0430021204006AA03C22C00002506A803C87D
:201940000CCA01F043FC04AA03C2200029000AAA0CCA01F03BFC06000F002000290008AA03
:201960000CCA01F033FC02000B0004A803C808000021801859413D002C00002524184D413A
:2019800004A803C80100002004AA03C23700064606A803C80AAA0CCA01F018FC02000B00A4
:2019A00004A803C88018594104AA0CCA994204D801D3904201D2641C554180197941B94266
:2019C00004D801D3B04201D2641C554102AA0CCA12184B4102A803C88B4205D801D382428D
:2019E00002D20020641C4541009E306F716F12184B418B4201D9FFF7A2F803D3824201D375
:201A0000FFF79DF80020641C454102A830C0FFF798F802AA30C273E002AA30C2009A30326A
:201A200003C20198383003C8064006AAC0C20D002C00002501984030019006A803C80CCA56
:201A400001F0C4FB04AA03C2200029000AAA0CCA01F0BCFB06000F002000290008AA0CCA02
:201A600001F0B4FB02000B0004A803C808000021801859413D002C00002524184D4104A8E3
:201A800003C80100002004AA03C23700064606A803C80AAA0CCA01F099FB04AA0CCA12182E
:201AA0004B4104A803C88B4204D801D3824201D2641C454192197B41BB4204D801D3B24201
:201AC00001D2641C454102A803C88018594102AA0CCA994205D801D3904202D20022641C30
:201AE0005541009A38320CCA80185941994290D801D390428DD20022641C554102AA30C226
:201B0000009A383203C20098403000900C9808380C900C98082800D2C4E316A80CC80020E5
:201B2000C043002110400AAA03C216A803C80800002108AA03C2019830C80020C04320407B
:201B400006AA03C22C00002506A803C80CCA01F03DFB04AA03C2200029000AAA0CCA01F010
:201B600035FB06000F002000290008AA0CCA01F02DFB02000B0004A803C8080000218018F1
:201B800059413D002C00002524184D4104A803C80100002004AA03C23700064606A803C84C
:201BA0000AAA0CCA01F012FB04AA0CCA12184B4104A803C88B4204D801D3824201D2641C58
:201BC000454192197B41BB4204D801D3B24201D2641C454102A803C88018594102AA0CCA75
:201BE000994205D801D3904202D20022641C5541009A0CCA80185941994208D801D3904278
:201C000005D20022641C554102AA30C201E002AA30C2009A03C20198083030C80020C0434D
:201C20003146204006AA03C22C00002506A803C80CCA01F0CBFA04AA03C2200029000AAA92
:201C40000CCA01F0C3FA06000F002000290008AA0CCA01F0BBFA02000B0004A803C80800E8
:201C60000021801859413D002C00002524184D4104A803C80100002004AA03C2370006462B
:201C800006A803C80AAA0CCA01F0A0FA04AA0CCA12184B4104A803C88B4204D801D38242C4
:201CA00001D2641C454192197B41BB4204D801D3B24201D2641C454102A803C880185941C3
:201CC00002AA0CCA994205D801D3904202D20022641C5541009A08320CCA80185941994261
:201CE00008D801D3904205D20022641C554102AA30C201E002AA30C2009A083203C2019800
:201D0000103030C80020C0433146204006AA03C22C00002506A803C80CCA01F057FA04AA8C
:201D200003C2200029000AAA0CCA01F04FFA06000F002000290008AA0CCA01F047FA0200B7
:201D40000B0004A803C808000021801859413D002C00002524184D4104A803C801000020B6
:201D600004AA03C23700064606A803C80AAA0CCA01F02CFA04AA0CCA12184B4104A803C8A2
:201D80008B4204D801D3824201D2641C454192197B41BB4204D801D3B24201D2641C454148
:201DA00002A803C88018594102AA0CCA994205D801D3904202D20022641C5541009A1032B4
:201DC0000CCA80185941994208D801D3904205D20022641C554102AA30C201E002AA30C26E
:201DE000009A103203C20198183030C80020C0433146204006AA03C22C00002506A803C830
:201E00000CCA01F0E3F904AA03C2200029000AAA0CCA01F0DBF906000F002000290008AA04
:201E20000CCA01F0D3F902000B0004A803C808000021801859413D002C00002524184D41D8
:201E400004A803C80100002004AA03C23700064606A803C80AAA0CCA01F0B8F904AA0CCACB
:201E600012184B4104A803C88B4204D801D3824201D2641C454192197B41BB4204D801D307
:201E8000B24201D2641C454102A803C88018594102AA0CCA994205D801D3904202D20022F8
:201EA000641C5541009A18320CCA80185941994208D801D3904205D20022641C554102AA04
:201EC00030C201E002AA30C2009A183203C20198203030C80020C0433146204006AA03C298
:201EE0002C00002506A803C80CCA01F06FF904AA03C2200029000AAA0CCA01F067F906004C
:201F00000F002000290008AA0CCA01F05FF902000B0004A803C808000021801859413D007C
:201F20002C00002524184D4104A803C80100002004AA03C23700064606A803C80AAA0CCAF5
:201F400001F044F904AA0CCA12184B4104A803C88B4204D801D3824201D2641C45419219DD
:201F60007B41BB4204D801D3B24201D2641C454102A803C88018594102AA0CCA994205D84A
:201F800001D3904202D20022641C5541009A20320CCA80185941994208D801D3904205D263
:201FA0000022641C554102AA30C201E002AA30C2009A203203C20198283030C80020C0430F
:201FC0003146204006AA03C22C00002506A803C80CCA01F0FBF804AA03C2200029000AAAC1
:201FE0000CCA01F0F3F806000F002000290008AA0CCA01F0EBF802000B0004A803C80800E9
:202000000021801859413D002C00002524184D4104A803C80100002004AA03C23700064687
:2020200006A803C80AAA0CCA01F0D0F804AA0CCA12184B4104A803C88B4204D801D38242F2
:2020400001D2641C454192197B41BB4204D801D3B24201D2641C454102A803C8801859411F
:2020600002AA0CCA994205D801D3904202D20022641C5541009A28320CCA8018594199429D
:2020800008D801D3904205D20022641C554102AA30C201E002AA30C2009A283203C201983C
:2020A00030300CC8F643002730003900104006AC03C41D002C00002506A803C808AA0CCAEB
:2020C00001F084F804AA03C2200029000AAA0CCA01F07CF80EAA03C22000290008AA0CCA9A
:2020E00001F074F802000B0004A803C808000021801859410EAA30CA2C00002524184D41D7
:2021000004A803C80100384604AA03C20EA803C8010038460EAA03C206A803C80AAA0CCAD6
:2021200001F054F802000B0004A803C88018594104AA0CCA994205D801D3904202D20022D4
:20214000641C55410EAA0CCA12184B410EA803C88B4204D801D3824201D2641C454102A8E0
:2021600003C88018594102AA0CCA994205D801D3904202D20022641C5541009A30320CCAA4
:2021800080185941994200D946E402D3904200D342E40022641C554102AA30C23EE402AAEB
:2021A00030C277E00022D243002316A803C8194008AC03C416A830C82C000025019803C8B4
:2021C000024006AE0CC60800002104AA03C201980830019006A803C8220000F0F7FF0600B2
:2021E0000F0004A803C808AA0CCA00F0EFFF0AAA03C204A803C822002B0000F0E7FF3B00A5
:202200001A00002312184B410AA830C82C000025A4185D413700002604A8C0C00AA8C0C8B3
:202220003700002606A803C808AA0CCA00F0CEFF04AA0CCA12184B4104A803C88B4204D829
:2022400001D3824201D2641C454192197B41BB4204D801D3B24201D2641C454102A803C8B7
:202260008018594102AA0CCA994205D801D3904202D20022641C5541009A0CCA801859419E
:2022800099428CD801D3904289D20022641C554102AA30C2009A03C20098083000900C98C5
:2022A000401E0C900C98002800D07BE700980CC802A803C880185941009A03C202AA0CCA32
:2022C000994207D801D3904204D20120002102AA03C203E00020014602AA03C2009808308A
:2022E000009002A803C80029E0D10028DED111B0F0BDF1B58AB00C00150005A8FDF7E9FE31
:2023000002A8FDF7E6FE0A98A04207D1210005A8FDF71EFF0890002851D105AC2A000A98A1
:20232000904207D1110002A8FDF712FF0890002845D102AA656800E06D1E002D08D0A0686C
:20234000E9004018083803C8002901D10028F3D02700546800E0641E002C08D09068E10029
:202360004018083803C8002901D10028F3D0160029190A98FDF7C5FE089000281FD1002291
:2023800013460A98FDF740FF0890002817D1002C0FE0E200B0688018083803C8009001918D
:2023A0000A9880688218083AB9682800FEF7B8FB641EEED10A98396832685143016002A809
:2023C000FDF78DFE05A8FDF78AFE08980BB0F0BD10B586B001240094019404AC02940CC4EE
:2023E0006A46FFF786FF06B010BDF8B590B016AC30CC002D01D1002C06D006000F00AF427D
:202400000CD301D8A64209D31898002803D084A003C8189A03C282A003C8FFE068460CC0E9
:2024200020002900FDF72BFF029020002900029A00F0F6FE16AA03C230003900029A00F060
:20244000EFFE04000D00684603C84022029BD21A00F0D6FE02000B00029E002738460146BD
:20246000801BB941C817C91710401940204329430CAA03C2684603C8029A00F0D1FE02003F
:202480000B0016A803C80800002106AC03C40024E4430D4616A803C8294004AE03C61900E2
:2024A0000800002108AE03C614400AA830C003C806AA0CCA00F0C5FE06000F000CA830C8B9
:2024C00006A803C832003B0000F080FE241A8D41012F18D801D3002E15D22200130000223C
:2024E00008A803C880185941009001913000390004AA0CCA00F06AFE009A019B8B4210D8DD
:2025000001D382420DD20020761E87412000290006AA30CA24184D41012DD9D301D8002C2C
:20252000D6D306A830C80EA8C0C00CA803C80100002008AAC0CA36184F410EA803C816AA1B
:202540000CCA00F043FE361A8F4108A8C0C008A803C822002B0000F074FE6A4603C208A8D5
:20256000C0C8684603C822002B0000F02FFE361A8F4106A830C034003D006846C0C8012F5B
:2025800018D801D3002E15D22200130000220AA803C880185941009001913000390004AA23
:2025A0000CCA00F013FE009A23468B4210D801D382420DD20020761E87412000290006AAA0
:2025C00030CA24184D41012DD9D301D8002CD6D30AA803C834003D00189A002A16D008AA4D
:2025E0000CCA130000228018594106000F002000290016AA0CCA00F0E9FD361A8F41300084
:202600003900029A00F0FCFD189A03C20EA803C80100002024184D412000290011B0F0BD62
:20262000FFFFFFFFFFFFFFFFF8B5A2B005000E0014001F00002213463800FEF7CDF80028C8
:2026400002D10B20C043A0E1149403A8FDF741FD06A8FDF73EFD0CA8FDF73BFD09A8FDF711
:2026600038FD012011900320129018A81390109639001498FEF707F8002813D5280006D0AE
:2026800000221346FDF7C0FD040000D06BE11098002805D01499FDF75BFD040000D062E139
:2026A000002072E1149903A8FDF752FD040000D059E1390006A8FDF74BFD040000D052E1D4
:2026C00001200390069014984168891C0CA8FDF718FD040000D046E1002213460CA8FDF7DB
:2026E00093FD040000D03EE1022109A8FDF709FD040000D037E106A8FDF7D8FD8006800E12
:202700003F2811D23F21081A1590014603A8FDF7DEFE040000D026E1159906A8FDF7D7FE86
:20272000040000D01FE101E000201590049D6D1E0798401E0F902F1ABE01310006A8FDF77C
:20274000C6FE040000D00EE106A903A8FDF7E7FF002811D40E98F900421803CA083A002386
:20276000401C594103C206AA03A903A8FEF7ADF90028E9D00400F6E0310006A8FDF71DFF52
:20278000040000D0EFE02F00CDE0089808381699401803C86FE0C0001690089816994018AC
:2027A00003C820AA03C20F98381A0500E8001790FC00059E301903C81EAA03C21EA80CC858
:2027C00003C88B420AD301D8824207D370A003C80E9A083A179BD21803C211E00020029044
:2027E00020A803C800900191083E30190CC81EA803C8FFF7FAFD0E9A083A179BD21803C2F8
:20280000022F02D20020014603E005980019103803C8139A03C2002F02D10020014603E0E2
:2028200005980838001903C8139A083203C20598001903C8139A103203C2EE000E98083822
:20284000831903CB083B0022401C514103C30F9C0E980838831903CB083B0022401E914165
:2028600003C3134609A8FDF7CFFC002882D1002C8BD1002001460B9A03C20898169940184E
:2028800003C80B9A083203C20E98083880190CC809A909A8FFF79CFD002800D06AE711A981
:2028A00009A8FDF73CFF0028D2DC0F940E98083880190CC806A909A8FFF78AFD040052D168
:2028C0006D1EAD01290009A8FDF701FE04004AD109AA03A903A8FEF7F8F8040043D10022AA
:2028E000134603A8FDF778FF00281BD506A909A8FDF72EFC040036D1290009A8FDF7E7FD16
:20290000040030D109AA03A903A8FEF7B4F8040029D10E980838821903CA083A0023401EF8
:20292000994103C27F1E0F98B84200D233E71098002818D0159903A8FDF73FFE040012D1A5
:2029400014980068039003A91098FDF701FC040009D1002213461098FDF73EFF002802D15E
:2029600001201099086003A8FDF7B9FB06A8FDF7B6FB0CA8FDF7B3FB09A8FDF7B0FB0022B7
:20298000182118A800F028FB200023B0F0BD0000FFFFFFFFFFFFFFFF70B505000C00160047
:2029A000002213463000FDF717FF002802D50920C04370BD2200330029000020FFF734FE44
:2029C00000280FD10400002213462800FDF704FF002808D5320029002800FEF74CF804008C
:2029E000F1D0200070BD31002800FDF798FE0028F7D4320029002800FEF767F80400F2D056
:202A0000EFE7FFB505008868C0C802208019001808220023024092197B41402416E010007C
:202A200019000290039102200021009001913000390000F0CBFB009A0023121A8B41029884
:202A4000039900F0C3FB02000B006408082CE6D2D243DB430020521C43410CC5FFBDF8B548
:202A60008CB004000E001700149D00226868C100A86800F0B1FAA868796872688A4200D972
:202A80000A00002506940896059704000291079235E0E9004018C0C808988068039003CC3B
:202AA000083C0090019130003900039A0CCA00F08DFB009A019B8018594112AA0CCA00F072
:202AC00085FB0AAA03C200960197220003990798FEF726F80AA803C8009001912200059801
:202AE00081680298FEF71CF8C0C4083C08340020014622000832049BD21803C26D1C029812
:202B0000C00004900698806802998D42C1D3069D059E2700029CE200390000F02FFB049801
:202B20003818009003C80022401C5141009A03C2B26839002000FDF7F6FE02000B0000987B
:202B400003C8801A9941009A03C20300DBB23A00A9682000FDF731FB0DB0F0BD70B588B0F5
:202B600004000D000120002106AE03C60390049006A805900C980290009201932A0003A9E9
:202B80002000FFF76CFF08B070BD0000F9B5CB4885440D00140000221346CA20C000684453
:202BA0000068FDF719FE00280FDDCA20C0006844006880680078C00707D50D9400221346B1
:202BC0002046FDF709FE002802D50320C043EEE1CA21C9006944096804A8FFF712FF0AA869
:202BE000FDF777FA07A8FDF774FA0022C021C90012A800F0F1F90D98FDF758FBA8218900C1
:202C0000884202D30620039010E0F02802D3052003900BE0502802D30420039006E01828B2
:202C200002D30320039001E001200390CA20C000684400684468641C610007A8FDF761FA2B
:202C4000070000D089E121009D4868440068FDF758FA070000D080E1210012A80C30FDF790
:202C600050FA070000D078E128680021C943884202D10120119001E000201190CD20C0006F
:202C800068440068002806D0CD20C00068440068806800282ED1012200230AA8FDF7B4FAB8
:202CA000070000D059E1CA20C000684400684068C1010AA8FDF70BFC070000D04DE1CA223D
:202CC000D2006A4412680AA90AA8FFF765FE0A98CD21C9006944096808600B98CD21C90003
:202CE0006944096848600C98CD21C90069440968886007E00C22CD21C900694409680AA811
:202D000000F03CFACA21C900694409682800FDF706FD00280CD4CA22D2006A441268290085
:202D200012A80C30FFF738FE070000D015E107E0290012A80C30FDF70BFA070000D00CE1E1
:202D400007A8029004A803C800900191CA22D2006A4412680AA912A80C30FFF780FE0AA9E3
:202D6000574868440068FDF7F3F9070000D0F4E007A8009004A80CC8CA21C9006944096884
:202D80004F4868440068FFF7E9FE0D984068109000200F9006900E90044605460FE007A898
:202DA000029004A803C800900191CA22D2006A4412684349694409680846FFF750FE0F981F
:202DC00000280CD11098002805D13D4E6E443668039F0E9C9AE0401E109040200F900F9803
:202DE000401E0F900D9880681099C900401803C80F9A00F005FA0200012029461040220018
:202E00002B0002430B4301D1002AD8D0002905D1002803D1002D01D1012CC0D00224069AD3
:202E2000521C06920E9E039A069BD21A00F0F8F930430E90069803998842C0D12C46204D50
:202E40006D442D68CA27FF006F443F68039E0BE007A8029004A803C8009001913A00290019
:202E60002800FFF7FCFD641CB442F1D301B4CA20C0006844056001BC01B44E486844076076
:202E800001BC039607A8029004A803C800900191CA22D2006A44126812A80E994B005918FF
:202EA00089004118064868440068FFF7D8FD01240025284606900E9081E700BFB4F9FFFF45
:202EC0004C06000007A8029004A803C800900191CA22D2006A44126831003000FFF7BFFDCD
:202EE00064002000F840C0070FD507A8029004A803C800900191CA22D2006A44126812A8F1
:202F000001000C313000FFF7AAFD6D1C06988542D8D3CA24E4006C442468039707A8009026
:202F200004A80CC821003000FFF718FE1198002812D00D98406800280ED00D9880680078A9
:202F4000C00709D50020C0433060320021003000FDF791FD070000D1002701242500039830
:202F6000401E8540039E06E06900491989004018FDF7B5F86D1C12A82100B1408D42F3D370
:202F80000C30FDF7ACF807A8FDF7A9F8CD20C00068440068002806D0CD20C0006844006899
:202FA0008068002802D10AA8FDF799F8380001498D44F0BD540600001206130A1A43130CEC
:202FC0001A4300BF094205D083070BD00270401C491EF9D1704700001206130A1A43130CE9
:202FE0001A4300BF1300103906D330B41400150010393CC0FCD230BC490700D30CC000D5B0
:2030000004C0890002D30280801C002900D502707047FEE770B504000F3407218C43A0421F
:203020002CD2082C04D2082402E0083000F048F841490A68100005D1002207E01D68A542BB
:203040000DD2181D0368002BF8D11268081D00E0181D036893420DD01D68A542F8D30028CD
:203060000CD0026813681D00083DA54208D2536803600DE000F01AF90028D6D1002070BD42
:203080001519056056686E601B1B05682B6014600068002804D04368002B01D0001D00E067
:2030A000002008601000083070BD10B5040006D000BF00BF200000F003F800BF00BF10BDA0
:2030C000002800D1704770B408380268072A30D951072ED118494B68002B01D0984203D222
:2030E0004360486017E02B005D68002D01D08542F9D31D685E19B0421BD3864203D1A818D5
:203100001860180007E05C68002C02D0821894420FD3446058604268002A0AD00368C418D3
:20312000944206D100240C601168591801605168416070BC704700001C1E002038B504007F
:203140000D00002C08D00020C043210000F0DDF8A84201D2002032BD6C4300BF00BF20003C
:20316000FFF758FF050000BF00BF002D03D02100280000F021F9280032BDFEE770B4103AC2
:2031800003D378C9103A78C0FBD2530701D318C918C001D508C908C0D20704D30B880380AD
:2031A000891C801C002A01D50B78037070BC70478B0701D18307E1D0124205D00B78491C45
:2031C0000370401C521EF9D17047FEE730B4434351435D18010C0C00130C5C432D1980B288
:2031E000434392B251430024C918644124040B04090C09195043C018694130BC7047FEE7BC
:20320000D2B2203A03D30800D040002170472032D141D04048409140D14048407047FEE708
:20322000D2B2203A03D301009140002070475242D0415242203291404140D04090404140F3
:203240007047124224D0994228D970B500251B4202D00C00002109E00024012649186441B3
:20326000944200D3A41A7641F8D33100012601E0764109D2001864416D41A41A9D41F7D2CA
:20328000A4185D41B619F5D3300022002B0070BD1B42D8D108B500F099F808BD01D19042E6
:2032A000D3D202000B0000210020704707490868002801D000207047054807229043086023
:2032C00004499143091A0160704700BF4C1E00205F2E002058460020F446002804D4494219
:2032E00000F013F8404260474042002905D45FD000F00BF8404249426047494200F005F8D8
:203300004942604703460B43E6D40022030A8B420BD203098B4219D243088B422ED2411A1A
:2033200000D20146524110467047FF2209023FD012068B4205D3121209028B4201D31212E8
:20334000090203098B4219D300E0090AC3098B4201D3CB01C01A524183098B4201D38B014B
:20336000C01A524143098B4201D34B01C01A524103098B4201D30B01C01A5241C3088B427C
:2033800001D3CB00C01A524183088B4201D38B00C01A524143088B4201D34B00C01A524159
:2033A000884200D3401A5241CFD201461046704708B500F00DF808BD4118884204D00022FE
:2033C0000270401C8842FBD17047FEE77047FEE77047FEE7416901220A4342617047406A97
:2033E00080B27047F0B401060202FF231B041340C918020AFF231B021340C918000E081813
:2034000000252900402200BF16A419E003232E016F0977407E191F000F40BF00E759CF191A
:203420007740C019D04E89190601470977403E18CF0A3B409B00E358CB187340ED18521EA3
:2034400013001B06E2D128062902FF2212040A408018290AFF2212020A408018290E40183A
:20346000F0BC70476972E84FD861C36B517D129B0319A45BF4B4C4B0D44A402902D8146CDD
:203480006418146440290CD8002308E01C00E41C5D0006262E40A41BC55C15555B1C8B423F
:2034A000F4D340291DD206201C00E41C5D000540641B802515555B1C07E01C00E41C5D00A4
:2034C0000540641B002515555B1C402BF5D338291CD2106CC100D163400F90630020106459
:2034E00014E013D90020010008E00B00DB1C4C00062525405B1B0400D454491C4029F4D3CE
:20350000116CCB00D363490F91631064002004AC03E0810053586350401C1028F9D310204B
:2035200025E0810004AA5318403B5B685418403CA46B11262500F54113272600FE416E40D8
:20354000A40A74405518403D6D6A641907261D00F54112271E00FE416E40DB087340E31876
:203560005218403A12689A1804AB5A50401C4028D7D34498006844994968449A9268449BEB
:20358000DE681B69449C6469449DAD69449FFF690097002701970296009E51E0BF0003975C
:2035A000009606261F00F741BC460B271E00FE4167467E40B44619261F00F7416646774003
:2035C000009EF719BC4627001F402E009E437E406746BF19BC46BB273F02039EBE596746D9
:2035E000BF19BC4604AF039EBE596746BE19009602260700F741BC460D270600FE416746DD
:203600007E40B44616260700F74166467740BC4617004F40074016000E407E406746BE197F
:2036200003962E0025001C00029B009FDB1902920A0001000098039FC019019F7F1C0197CD
:20364000019F402FAAD300910299449F3F683818449F386044984068009FC019449F7860A6
:20366000449880688018449A90604498C06840184499C86044980069C01844990861449880
:203680004069001944994861449880694019449988614498C06980194499C86145B0F0BCB9
:2036A0007047F8B584B00C0011001A00A609B6B223009B069B0E0093BB4B1B681B190293D2
:2036C000B94D2B60002C4DD00391002E30D000252C000190170008E03A0040210198A30195
:2036E000C018FFF7C7FE641CA4B2B442F4DB01980299039A914235D3AB490D600099382995
:2037000010DB2C000190009D012C2BDC3A002100491C6943019833199B01C018FFF7AAFECD
:20372000641CF1E73A00A301C018FFF7A3FE19E00299039B994215D3002429460C60009957
:2037400038290DDB070016000D46012C0ADC32002100491C69433800FFF78CFE641CF4E726
:20376000FFF788FE05B0F0BD1D0A758F38B5CEB004000D00684601F029FA2A002100684609
:2037800001F004FA0400684601F027FA20004FB030BD80B501F072FA01F0A0FE02F015F949
:2037A0008E480021417202F0A7F9A74800F0ABFF002002BD80B5894802F05CFA01F09CFE8C
:2037C00001F0D6FA01F08FFE01BD0000401D002080B502F0D4FA02F0EDFA02F0FBFA01BDFC
:2037E0007CB50C001600994D9949280002F0EDFB00281CD101F005FF002814D000206A46C6
:2038000003E0A649095C1154401C0828F9DB0820552102E01154401CC0B20828FAD369464D
:20382000082000F050FF9E48406980470EE09D49280002F0CAFB002804D101F0DEFE9A486C
:2038400000F061FF200000F055FF3080002076BDF8B50C00170022257C4E7B49300002F0EA
:20386000B4FB002821D002F021FD002810D101F0BEFE300002F056FC300002F07FFB7448EE
:2038800000F041FF200000F035FF388000250CE086480078012802D1012085490872002020
:2038A00008F04EFA7E48406980472800F2BD38B50C00150001F09BFE7A4800F024FF20002E
:2038C00000F018FF2880002032BDE0B501F099FE002814D000206A4603E0B049095C11548B
:2038E000401C0828F9DB0820552102E01154401CC0B20828FAD36946082000F0E4FE68485F
:203900004069804700200EBDE0B501F07AFE002814D000206A4603E00BA1095C1154401CBD
:203920000828F9DB0820552102E01154401CC0B20828FAD36946082000F0C5FE5848406900
:20394000804700200EBD00000251035555555555002003E0B34B1B5C0B54401C1328F9D37C
:20396000132010800020704710B4AF480378FF2B00D1AE48002302E0C45CCC545B1C0A2B95
:20398000FAD30A201080002010BC7047002003E0A74B1B5C0B54401C0328F9D3032010802C
:2039A0000020704700000000281E0020002003E0A04B1B5C0B54401C0A28F9D30A201080F2
:2039C00000207047002003E09B4B1B5C0B54401C0A28F9D30A20108000207047C41B002067
:2039E000F8B5160000240F001BE0009828700098000A68700098000CA8700098000EE87072
:203A00000EE0A0003D1869462000193080B202F07FFF0128E9D1FF2028706870A870E87027
:203A2000641C032CEDDD102030800020F2BD002003E07C4B1B5C0B54401C0928F9D309203C
:203A4000108000207047000001000040C41D00200200004070B50C001600002020709D4D9A
:203A60001149280002F0B1FA002802D10120207010E09949280002F0A8FA002802D10220D0
:203A8000207007E00749280002F09FFA002801D10320207001203080002070BD004600009B
:203AA00008A900000400004001000040341E0020C07F002038B5140000200D0017E0009842
:203AC00028700098000A68700098000CA8700098000EE8700AE069461D2002F019FF012811
:203AE000EDD1FF2028706870A870E87001200028F1D004202080002032BD38B5140000200B
:203B00000D0012E00098000C28700098000E68700AE069461E2002F0FBFE0128F2D1FF201F
:203B200028706870A870E87001200028F1D002202080002032BD38B5140000200D000EE0AE
:203B4000009828700AE069461E2002F0E1FE0128F6D1FF2028706870A870E8700120002855
:203B6000F1D001202080002032BD002003E0BD4B1B5C0B54401C0428F9D3042010800020AB
:203B80007047002003E0B84B1B5C0B54401C1328F9D3132010800020704700006C470000E2
:203BA00010B487480378FF2B00D1B048002302E0C45CCC545B1C0A2BFAD30A20108000206C
:203BC00010BC7047002003E0AF4B1B5C0B54401C1D28F9D31D20108000207047002003E07B
:203BE000AA4B1B5C0B54401C0A28F9D30A20108000207047002003E0A54B1B5C0B54401CEA
:203C00000A28F9D30A20108000207047002003E0A04B1B5C0B54401C1028F9D31020108031
:203C200000207047B0BF000090BC0100D0BF000010BC010020BC010030BC010001200300A7
:203C40000B70108000207047012003000B70108000207047F8B50E00170000248E4D280083
:203C600001F0DAFF002801D037242EE000968B49184802F0AAF9002805D104222146009896
:203C800002F049FF21E0134E9F49300002F09DF900280FD1280001F0C6FF032806D19B4A1B
:203CA0009B49300002F076F936240EE0009808F0D8F80AE008F0D0F8009808F0D2F8924908
:203CC000300002F05EF901206875042038802000F2BD0000C41D002002000040F7B50700CC
:203CE0000E0000252C008849A34802F06EF9002801D0242422E031003800674E08F0B6F849
:203D000000280DD0300001F08EFF032801D1362400E035247D4A7E49974802F03BF90DE0E0
:203D2000029FB5800098010C0904202002F012FE3D80764A5949904802F02CF92000FEBDD0
:203D4000F8B50E0017000024534D280001F064FF002801D037242EE000968849864802F0C8
:203D600034F9002805D104222146009802F0D3FE21E0814EBE49300002F027F900280FD10F
:203D8000280001F050FF032806D17D4A7D49300002F000F936240EE0009808F062F80AE0F5
:203DA00008F05AF8009808F05CF8B149300002F0E8F811206875042038802000F2BD000020
:203DC00070BC0100F6B583B00E0000273C0004222146684602F009FFA549674802F0F5F8B6
:203DE000050001D0242439E00296684602F013FF294E68460178090242780A431102827885
:203E00000A431102C0780843FFF7ECFAF064029802F0A2FE3065F16C814200D00125002D8B
:203E20000DD0300001F0FFFE032801D1362400E03524534A5349504802F0ACF80EE0049D01
:203E40003800B0800198010C0904202002F082FD2F804B4A4949484802F09CF8200005B0D5
:203E6000F0BD0000A0BC010090BF000060BF0000002318000978012903D0032901D03120C3
:203E8000704713807047000070BF000060BC0100B0BC010050BC0100C41B0020000200401A
:203EA000F4B50F000026A84C6665A665207D002801D02220F2BDA548FFF78CFAA348FFF789
:203EC0008EFA6065350011E0A8003818C178090282780A43110242780A43120201781143F1
:203EE0002800193080B202F035FD6D1C032DEBDD009D9648FFF773FAA06510211E4802F00E
:203F000040F830002880F2BD000400400007004000010040F4B50E0000248B4D6C65AC6581
:203F2000287D002801D02220F2BD884F3800FFF751FA3800FFF753FA686520000DE0F078E5
:203F40000002B17801430802717801430802317801431D2002F0FEFC01200028EFD0009EF5
:203F60003800FFF73CFAA8652021034802F009F820003080F2BD0000C41D00200010004081
:203F80000038004000080040F7B590B009A870491C22FFF7F3F8002400946B4D3120687251
:203FA00000F0A4FB230001AA0DE098002918496A0E0E16540E00360C17187E700E0ABE70F2
:203FC0001018C1705B1C082BEFDB2100009801E0491CC9B2202906DA01AA525C5D4B5B5CB9
:203FE0009A42F5D0642000280CD10F984168091F4160006842180421554801F0E7FD0028FD
:2040000000D06520119900280AD1042002000A705149C96849680880012007F091FE18E05B
:20402000642802D10520087003E0652801D106200870F021C905464801F0BDFF0126300033
:204040002875002C04E002211F2002F083FC3400F9D0129C3E4D280001F090FF0C212800AD
:2040600001F0A9FF01202080002013B0F0BD000000200040F8B514002220334D2A7D002AA2
:2040800028D100910978442924D10098401C02F063FD07000098401D02F05EFD06003120CD
:2040A000687200F023FB2A4D32003900280001F074FD002803D104200099087007E0F02183
:2040C000C905280001F077FF052000990870012020800020F2BDF8B507000D001400312097
:2040E0001949487200F002FB194E2A003900300001F06CFD002802D10420287008E0642838
:2041000002D10520287003E0652801D106202870F021C905300001F04EFF012020800020E1
:20412000F2BD38B50C00150001F06AFD002802D10420207001E005202070A74800F0F6FA56
:2041400001202880002032BDC41B0020008C0140C41D0020780D002074A9000010B4002212
:2041600004E0835C9A245C408C54521CFF2AF8DD10BC7047F4B5D2B00C000026964D3000E3
:2041800028756E65AE65694608803120687200F0ADFA31002000914C03E0425C6254491CD9
:2041A00089B28F4A9142F8DB01908E48FFF712F99D21C90020002030FFF7D8FA300007E007
:2041C0008100BD22120252582B005C335A50401C0828F5DB298B69642B005C330A0020009C
:2041E0002030EF8AC019FFF75CFA32000EE0910028005C3040580AAB5918030E0B7003001F
:204200001B0C4B70030A8B70C870521C082AEEDB744F3800FFF7E3F8686532006846008812
:2042200002E0401C521C92B2A98B8A4209DA698B611889182023C95CA64B9B5C9942F0D0B2
:204240003000A98B80B288422ED012A9BC200002FFF784FF310002AB05E08800BD221202B0
:2042600012581A50491C0829F7DBB90D0A0012A8FFF717FA3200984B01E0521C92B2082A97
:2042800005DA900002A9095818588142F5D00AAB20002030698C421820002030298C4118B9
:2042A00012A802F0BBFE10E00AAB20002030698C421820002030298C41188C462100203173
:2042C000E88B0818614602F0A9FE002801D0012439E0310007E08800BD22120212582B00AC
:2042E0005C331A50491C0829F5DBBC4969642B005C330A002000FFF7D4F932000EE0900036
:2043000029005C3109580AAB18180B0E03700B001B0C43700B0A8370C170521C082AEEDB8E
:204320000AAB686C221800BF18A120002030EC8B001902F073FE040001D0022403E03800C9
:20434000FFF74DF8A865200003D104200199087015E0012803D105200199087004E0022CB0
:2043600002D1062001990870012420002875002E04E021461F2002F0EDFA2600F9D05298E6
:2043800001210180002053B0F0BD000001000100F0B4994B1C78FF2C00D1984B0024250064
:2043A0000A2D09D20D4E8427FF00F65D5F5DBE4201D2012000E020000123000602D10420C2
:2043C000087004E0052008701800A149087513802046F0BC70470000C41B0020780D002065
:2043E0002A050000008C0140002010807047F7B50E000024964D287D002801D0222467E06E
:204400009648008800280BD195480168954A914204D1406880214902884201D0102452E0D0
:20442000C021C9058D4801F0D0FD002801D1242449E0009630460078002803D13046407821
:20444000442801D022243EE03046801C02F084FB07000098801D02F07FFB0600320039001F
:204460007E4801F06AFB7D490988002903D1A96C8919696410E001290ED10021C943696455
:20448000AE64224606E09100BD231B025B5869184B62521C082AF6DB002813D120200099F7
:2044A000087091490098401C02F076FBEF602E61012028720320029908804107674801F08C
:2044C00060FD00E01024200002D0280000F02EF92000FEBD34A9000020BD0000F7B50E00EB
:2044E0000024401E0090C021C9055C4801F06DFD002801D0242451E0944D2F7A01969021B8
:20450000C905564801F061FD01280AD101980078B84201D0732441E09021C9054F4801F041
:2045200030FD019800780100B94204D07F1EB84234D0732432E028698021C90088421AD971
:20454000009888421AD13620687200F0CFF80198431C009AE968414801F00BFB06002B0093
:2045600024336A6C00990198401CFFF79AF8002E06D0722412E000998842E4D013240DE031
:20458000029801210180287A401C2872E86800994018E86028690099401A2861200002D0BE
:2045A0006A4800F0C3F82000FEBDF8B51700002425002A4EC021C905300001F006FD002843
:2045C00004D0624800F0B2F8242505E0D021C905300001F0F0FC3C802800F2BD2A04000008
:2045E00000201080704700201080704780B55748407A00F07BF801BD70BC010060BF0000F2
:20460000065001003200C8553EB500F0F0FF504A5049124801F0BEFC00254F4C207A012867
:2046200014D028006A4603E00AA1095C1154401C0828F9DB0820552102E01154401CC0B253
:204640000828FAD36946082000F03DF8257237BDC41B0020065002003200C855C41D00202F
:204660000470002036393147E0B500206A4603E040A1095C1154401C0828F9DB08205521CE
:2046800002E01154401CC0B20828FAD36946082000F019F807BDE0B5694603220A707F22E8
:2046A0004A7088707820C870042004E055220300DBB2CA54401C0200D2B2082AF6D3082046
:2046C00000F001F807BD10B50A00244C0100002001F008FB00E0641E002001F03FFB002804
:2046E00001D0002CF7D110BD0204000080B5FFF7D2FF01BD00210170322242708170C821F6
:20470000C1700420704738B50500104800F00EF8054C134A1349200001F03CFC0C4A29007B
:20472000200001F037FC31BDC41D002010B50021C160016101720C4C1C21200001F03BFC8D
:20474000F021C905200001F036FC10BDC41B00200700004002000040C07F0020400D030033
:204760000007004000010040C41D00200251015555555555047101F51855555502E000222D
:204780000270401C0A00511E002AF8D170477CB504001500A0236A4602F017FD002806D067
:2047A0006121C943884215D10020286076BD2068009946182A003100200002F019FD0028B6
:2047C00002D03A49401876BD2068B04201D0C64876BD002076BD7CB5060015001C0030235F
:2047E0006A4602F0F2FC002802D03149401876BD2A003068009945182900300002F086FFA2
:2048000000280CD122002900300002F07FFF002805D13068A84201D0B44876BD002076BDD5
:204820007FB504000D001E0000220C213000FEF7D3FB33006A462900200002F0A3FD0028ED
:2048400002D0AB49401800E0002004B070BDF8B588B0060015001C0000206A46107030239A
:2048600001AA300002F0B1FC002802D0A149401819E030680199471805AB6A46390030002F
:20488000FFF7CEFF00280ED1230002AA3900300002F01CFD002802D0BB49401803E0029937
:2048A00069600499A96009B0F0BD000000DEFFFF00DCFFFFF0B58BB004000D001600002244
:2048C0000C2108A8FEF788FB00220C2105A8FEF783FB00220C2102A8FEF77EFB002C01D0B0
:2048E000002D01D1AE48FCE000950196009831464618302301AA3100684602F066FC0028F5
:2049000004D0200000F069F9A648EAE00098301A0199884200D2DEE000984018401B6060B8
:2049200000952846A0600098002801D19E48D8E06168019A891A401800900146019A8F18CC
:204940006161A168401A99490880302301AA3900684602F03AFC060061D1009801994518F4
:204960006069281A2061924908802200183229006846FFF70CFF060000D09DE022001C3241
:204980002900684602F048FD060000D094E008AB220028322900684602F063FD060000D091
:2049A0008AE0A069032804D3200000F016F9814897E0401CA0610098E063302301AA2900C4
:2049C000684602F002FC060029D122004C32009801994118684602F0A1FD06006CD1206EFF
:2049E000A168401A74490880E06D744908800098E16B401AA0632300A43322008C32290039
:204A00006846FFF7E8FE060056D10098A064302301AA2900684602F0D8FB060005D02000AE
:204A200000F0DBF85F4830185BE00198002809D022006C32009801994118684602F06EFD99
:204A4000060039D10098A16C401A6064A3682200BC3229006846FFF7FAFE06002CD100950B
:204A600005AB02AA3900684602F0FBFC060023D1E26A0398824211D10499206B07F0B0FABA
:204A800000280BD1099A0698824207D1002A0AD007990A9807F0A4FA002804D0200000F04E
:204AA0009CF847481DE09020400022183900684602F056FE060004D0200000F08EF83000DF
:204AC0000FE0942040002058A168401A3D4908800098B84204D0200000F07FF83A4800E0BB
:204AE00000200BB0F0BD00009ADDFFFF9ADBFFFF80C5FFFF00C3FFFFF1B582B01700054608
:204B000000263400002D03D000910846002803D12348FEBD2C000500A969002904D09A2040
:204B2000400028580028F5D1002916D09A2040002858002811D19C2149000120FEF7FEFA20
:204B40009A2149006850002801D11748FEBD2C0000F03CF89A2040002D583A0000992800BB
:204B6000FFF7A8FE07000CD0002C02D09A20400026500298854202D02800FEF796FA380030
:204B8000FEBD3046FEBD000000C5FFFF80B5002801D0002901D1024802BDFFF7ADFF02BDD3
:204BA00000D8FFFF80DEFFFF80D7FFFFDA1B0020DC1B002080DAFFFFDE1B0020E01B0020B6
:204BC00080D9FFFFE61B00201ADEFFFF80B500229C214900FEF700FA01BDF8B507003E006B
:204BE0004AD0746E08E02500A46920212800FFF7C5FD2800FEF759FA002CF4D184203458ED
:204C000008E02500A46920212800FFF7B7FD2800FEF74BFA002CF4D1F836346A08E025003B
:204C2000E46810212800FFF7A9FD2800FEF73DFA002CF4D1346808E02500E46810212800A0
:204C4000FFF79CFD2800FEF730FA002CF4D1F66B002EC6D13C003E0025009A204000245852
:204C60009C2149002800FFF789FDB54202D02800FEF71BFA002CEFD1F1BDFEE738B50024FF
:204C8000250009E042482901411842486A018018203000F087F86D1C022DF3D304E03E49C4
:204CA0003C4800F07FF80124002CF8D031BD10B502000120374B52019C182278002A15D1E7
:204CC000E26952790B009A420BD2A2695278002A0CD1200000F09FF8200000F0E1FA00206C
:204CE00010BD6172200000F0D3FA002010BD082900D0704770B5150015D00600254C2200DA
:204D0000012100F06FF82A00082100F0E7F8002809D0220020320221300000F063F82A00BB
:204D2000082100F0C1F870BD38B50025290003001A4C00E0012100290ED121680029F9D04B
:204D40008A6992889A42F5D1080000BF03A20978890051588847256031BD0000CF51000023
:204D6000D1510000E3510000F95100004152000038B5084D0A4C220029002031022000F0BA
:204D800069F8220028322900012000F063F831BDE8A70000401C002044A900002C1E002051
:204DA000D4A4000000221300037043704B7B43718B7B8371CB7BC3714B780372428200BF77
:204DC00004A20B78002B01D1C26101E00832C2618161704700010201020706030102030295
:204DE00003060504F0B40026340005000B0030002F0000E0641C21001E0089B2B14208D28D
:204E0000210089B2490151188E697688BE42F1D10800F0BC7047F8B504000D00E0694079A1
:204E200000902F0038000099FEF76CFA060038000099FEF767FA491CE5826172A682F1BDE5
:204E40000100802905D3F139092901D2012070477F207047F8B500256B4618800F00140035
:204E60001AE0401E708230003178C9006158884711E0280080B240013E18708A0028F0D1F9
:204E800030003178C900611849688847002802D1300000F0F7F96D1C28006946098880B249
:204EA0008842E6D3F1BD000038B503000120002B12D09C692578002D03D0247B1578AC42E7
:204EC0000AD1DC692478145D2409032C04D218000FA3A4001B59984732BD000038B50300D3
:204EE0000120002B12D09C692578002D03D0247B1578AC420AD1DC692478145D2409032C3F
:204F000004D1180002A3A4001B59984732BD0000214F0000834F0000F34F00007B500000CA
:204F2000F7B50400012528000027E2690092029A009B1B78D21813781E07360F01D12F00C5
:204F40005678002E1CD0009A5279B24218DB8E4216DA2078032803D30921207A00F008FB0D
:204F60003200029800994978C919411820000A3001F0C8FD66722570A069008960820020BF
:204F8000FEBDFEB504000D000126A069407800282DD10192E76910463978401801F0C4FD90
:204FA0000005000D694608807879098888421ED22078032803D30921207A00F0D9FA38789C
:204FC0002A1A0198B978411820000A3001F09AFD684601882000FFF71EFF0026E670A06999
:204FE000C07BE07102202070A069008960823000FEBD70B504000125E169207803283AD1AD
:20500000A08A002837D00F23E078401C18400E78965D33400600B34207D1E070A08A401E62
:20502000A082000409D1607A08E00821207A00F09FFA200000F026F91DE04879497851184B
:2050400000F082FA05000FD1A079002808D0401EA07100060FD10021200000F007F90AE076
:20506000A0694089608206E00121207A00F080FA200000F007F9280070BD38B504000120F9
:20508000E1690B002578042D26D10878105C0007000F03D0022811D00CD316E0C878105C95
:2050A000A0711879105CFFF7CBFE6071200000F000F910E0A069008960820CE0062000F0E3
:2050C0008FFA200000F0DEF805E0072000F088FA200000F0D7F8002032BDF8B5040000F054
:2050E0004CF8A08A461EE1693000000401D1607A00E048794978A26995880A008718BFB210
:2051000022000A32511800F055FA0820C21B552120000A30C01901F0FEFC22000A32082169
:20512000280000F0DFFD002805D1A68201206070C348A9004450F1BDC16982691378002BA3
:2051400001D0127B8272427A0A3009784254704710B5C269C18A83691C78002C01D01B7BEB
:2051600083720905090D80235B01C91889B20A301278801801F010FD10BDC1698269137834
:20518000002B01D0127B8272C2781207120F20320A3009784254704710B4C1698269137860
:2051A000002B01D0127B827282781207120F303203000A330C781A55827903000A33CC782A
:2051C0001A5542790A300979425410BC7047704710B50400002000F003FA200000F052F8E9
:2051E00010BDC178491CC1700421017000214170816909894182704710B5040000206070FC
:20520000E078401CE070A08A002806D1002000F0E7F9200000F036F810BDA079002809D04C
:20522000401EA07100060AD104202070A0690089608210BDA069C08860826079207110BDBF
:2052400080B58178002902D0012906D00BE00321017081694989418201BD022101708169EA
:205260000989418201BD00F00DF801BD04220270002242708269D28842828269927B827108
:205280008170704700210A00027042704182704701210170002141708169C9884182704783
:2052A0000221017000214170C1708169C9884182704703210170002141708169C98841823D
:2052C00041790171704770470120704710B50400607A00F021F9002812D121000A31607A6E
:2052E00000F032F9002804D10021207A00F040F903E00121207A00F03BF92000FFF7C2FF18
:2053000010BD0020704710B50400E08A00F004F9002814D121000A31E069807900F014F921
:20532000002804D100212000FFF7A0FF10BD0121207A00F01DF92000FFF7A4FF10BD062857
:2053400003D102212000FFF791FF10BD02000020D179002900D1704780B5481ED0710121C8
:205360001000FFF783FF012002BD10B50400A08A002806D10021207A00F0FAF82000FFF720
:2053800081FF10BD80B50C21007A00F0F1F8002002BD38B50400607800281BD12000FFF739
:2053A000FBFEE069C079A1698D8808210A1A552123000A33181801F0AEFB22000A320821DF
:2053C000280000F08FFC002804D1012060701C48A900445031BD80B58178012903D00A2157
:2053E000007A00F0C5F8002002BD70B504006078002824D12000FFF79FFE607AE1694978F1
:20540000A26995880A008618B6B222000A32511800F0D0F80820821B552120000A308019A7
:2054200001F079FB22000A320821280000F05AFC002804D1012060700148A900445070BD71
:205440002C1E002080B50A2000F0CAF8002002BD38B504006078002819D12000FFF778FE8B
:20546000A0698588E06921000A3182788918807900F0A0F822000A320821280000F032FC88
:20548000002804D1012060700148A900445031BD2C1E002080B50A2000F0A2F8002002BD78
:2054A0004178002900D0704780B50179002901D0491E01710179002901D1FFF70EFE01BDCC
:2054C00080B50A2000F08CF8002002BD704780B50B2000F085F8002002BDFEE79F480021CA
:2054E000017041707047B6480078800700D4704780B500F08DF801BD98484178012900D050
:20550000704780B54188002902D0491E418001BD022000F017FD01BD30B4010000221000FA
:20552000A74B1C88002C0CD11C890D00AC4201D2062007E05A8099800121198087494A7014
:2055400000E0052030BC704770B500259C4C2278D2070AD506003200E0686388C01801F0EB
:20556000D1FA60888019608000E00125280070BD80B5002918D1002802D0012806D00AE07A
:20558000A24AA349A34800F005FD04E09F4AA249A04800F0FFFC8A48002141800221018073
:2055A000002000F0CFFC01BD85480021016000F051F901BD70B50B000025814C2178490700
:2055C0000BD506003200E06861884118180001F099FA60888019608000E00125280070BDD1
:2055E00080B577480021016000F034F901BD5B489F49418001214170704700209D494870C6
:20560000704700209B490978002900D101207047F8B584B000252800694648606848868839
:20562000C7682800944C0872206903902900009101A9891C7819039A5268904700990D1817
:20564000ADB2E26861886846C08800F0E7F804001CD0A06800F0B6F8002817D1A0880028FD
:2056600001D0864228DBE088002801D0B04223DBA06800F0B3F8002820D1A06800F0BAF8D7
:20568000002822D1E0680028CED11BE003984078010008D1002C06D001AA79192800301A07
:2056A00080B263699847464A69468988491989B200F024F805B0F0BD1320E9E7039880781C
:2056C000694608726846007AE2E7332069460872F8E700780880012070470278D209654B78
:2056E0001A7000784006400E08800120704710B50C0001F019FA2080022010BD80B5030018
:20570000080011001A0002D100F008F802E0180000F026F800205749087001BD10B50122AD
:205720000E4B1B78002B10D10B890400A3420CD3C880C9680A7840320A700421204A11800E
:2057400001000020FFF7B3FA0200002A04D000201B49088000F07EF810BD0000341E0020D4
:2057600038B504000D002C49444800F02EFC4449087000280AD1200011281DD012281BD09D
:20578000312819D07F2817D07E2815D00320E880E86801787F220270E8684170E868847002
:2057A000074C0420208003210020FFF780FA002805D00020208031BD00200149088031BD93
:2057C0000000002002000020002A00D1704780B50E491140294800F0F8FB02BD02000020C3
:2057E000002A00D1704780B526491140234800F0ECFB02BD02000020002A00D1704780B5F8
:20580000214911401D4800F0E0FB02BD1800004010000040C41D002008000040F0B4030046
:205820000800110000252C000200280000E0641C25001600ADB2B5420AD22500ADB26E0015
:205840007519ED004D191E002F88BE42EFD12800F0BC704780B50D49084800F0B6FB0028A3
:2058600004D00448024941800121417001BD000088130000341E0020F0A80000C41D0020C5
:20588000541E00200700004000DB004001000040016A022291430162704780B5002802D126
:2058A0009248FFF7F5FF9248417D491C417501BD00281AD18E4800214181027A002A0AD166
:2058C000427A002A11D18181012141720172817B491C81737047032A07DA417A002904D1E3
:2058E00001214172C17B491CC1737047002800D0704770B57E4C207A012827D1607A0128EB
:2059000051D16089401C608180B232284BD300256581207C401C207401263000A07001F0A6
:2059200056FF02F037F902F031F96672A089401CA081A17C491CA17480B2052833D3A58134
:2059400002202072E07C401CE07470BD02282AD1607A012815D16089401C608180B2C82804
:2059600021D3002060810120A07001F030FF02F011F902F00BF902206072207D401C20756D
:2059800070BD02280FD16089401C608180B20A2809D30020608101206072A089401CA081D0
:2059A000E07D401CE07570BD002809D15048017A002905D0002181818160017E491C01763A
:2059C000704770474A498871704710B5002000F051F8474C1E21200002F0F4F90020207077
:2059E000A0700120607010BD80B541484178002908D1017802291AD100210170012000F02E
:205A000039F801BD012912D10178022903D1002101700121C1708178022908D1017801298D
:205A200002D100210170C1700020FFF75FFF01BD20B50A00032A12D12D498A78022A16D025
:205A4000002203005D00EB185B00CB185A818A8001224A7002228A70FFF72AFF07E0012A72
:205A600005D00A0003D0022901D1FFF716FF2000C0B220BD38B5002420000125002804E09A
:205A800021460846FFF79DFF2800F9D02046FFF799FF174884802900C1704170857015481A
:205AA0000178012901D1FF21017031BD10B508000F4CA178022907D1FFF776FF0020A08003
:205AC000012001006170A07010BD002008494A78012A08D18A78022A05D00A7A002A02D13B
:205AE000897B002900D001207047000000940140A41D0020561E00201CB504000020206012
:205B000071498988A18015E06946202000F000FF01280ED000986D4980B2884209D1009803
:205B2000000C0004A188084300900146202000F011FF01200028E7D013BDF8B50400160033
:205B40000125002E0AD00F0000F0D1FA050005D132003900200000F0FFF90500280006D0FC
:205B6000200000F00BFA0C21200000F024FA2800F2BD38B5040000F0E8FA050004D1082118
:205B8000200000F0FEF906E0200000F0F7F90C21200000F010FA280032BD38B5040000F0D9
:205BA000A6FA05000DD1200000F0FBFA050004D10421200000F0E5F903E00C21200000F050
:205BC000FAF9200000F0DAF9280032BD38B5040000F01CFB0500208805D1002807D101203C
:205BE00006F0AEF803E0012801D102F0FBF8200000F0C4F90C21200000F0DDF9280032BD4F
:205C000010B500F053FB040002D100F028FD040000F069FB200010BD010001200968002994
:205C200000D1002070471CB50400002008E06946202000F06DFE012801D00098A0800120C2
:205C40000028F4D0A0880100032901DA401CA080A088032802D11C48006820600098000C96
:205C60000004A188084300900146202000F072FEA08816BD1CB504002068002802D0401E85
:205C8000206011E0002004E06946202000F040FE01200028F8D0009880B2032804D10A4845
:205CA000006820600220A080A0880099020089B2914207D00099090C090401430091202042
:205CC00000F048FE13BD000030AA0000FFFF000080B501F07CFD02F0A5F802BD80B502F0D2
:205CE000C8F801BD7FB5030001204D4C1D002688B54217D20D00092D14DA002A12D0606885
:205D00005C00E3189B00C0186B4644881C804468019459800392017A1972407A58726846B9
:205D200002F0B9F804B070BDF8B584B00500684600F054F807000ED16C466088AE88864291
:205D400000D30600320021000831A86800F0DAFE208828806E80380005B0F0BD10B5010068
:205D600001202F4A0B001488A34207D250684A00511889004018408802F028F910BD38B543
:205D80000025274C10E06068290089B24A00511889004018408802F019F9002803D12800CB
:205DA00080B2A16888476D1C2800218880B28842E9D331BDF8B5684600F010F8002807D186
:205DC00068460200083241880088164B9B68984705B000BD80B502F004F901BDF8B5040040
:205DE0000125104806884768200002F0D3F8002813D1002001E0401C80B2B0420DDA410056
:205E00000918890079184A8823889A42F3D1496862689142EFD1208000252800F2BD000080
:205E200000AA0000F4A9000081B0002100914168802212010A4342600068009001B070478B
:205E400042680C239A43114341607047416801229143416070471CB50020019005200090B1
:205E6000954C6946200002F027F92000FFF7DCFF02F098F90422B021002002F0C5F9FA210A
:205E8000C900012002F0F8F90028F8D08B4C0C212000FFF7D5FF2000FFF7D8FF02F007FA77
:205EA00000F002F9864C206900688047E0680068804700F017F962B613BD10B5814800215F
:205EC0004180814901801E2181828049816102F005FA02F027FA040001D105F0B5FF200026
:205EE00010BD70B57A4A1188526800230400250000E05B1C180080B2884206DAC00010181A
:205F00000688B542F5D140688047002C02D101207049087070BD38B50500694CE068806872
:205F2000804700280DD1A8476A480178012908D14188491E4180090403D10021017060694A
:205F4000804731BD80B5644980000858804701BD624860494880704730B4030001205C8887
:205F60009D8AAC4208DAE0009D692950996908184260641C5C80002030BC70470021418006
:205F800070478A0F9200801842688900890811434160704710B48B009B085C1E1C4008D176
:205FA0001A4206D0890F89004018416891430B43436010BC70478A0F920080184268CB43CA
:205FC00099008908114041607047020001208B0F9B00D21852680A40910000D00020704770
:205FE000020001208B009B08890F8900511849681940994200D10020704780B502F06DF9AC
:2060000000F006F872B602F05CF902F062F901BD10B52B4C6068C06880472069406880472D
:20602000E0684068804702F04BF910BDF0B585B001273E00502568460490052002A98880D7
:206040001F4C02A8216989688847002806D102A86A464188008800F012F80600E068806807
:206060008047002800D16D1E300001D0002DE8D10100090601D117490F7005B0F0BD0123A7
:206080001800052900D2704730B40021080001E0491C89B2052905D2545C114D6D5CAC42D9
:2060A000F6D0180030BC70470A480C494180002101707047000000000014014000280040F1
:2060C00008A90000C41D0020FFFF0000D41A002078AA00003C1E0020A4A90000204E0000AB
:2060E00080AA000080B500F015F9002002BD38B50400080011006A4600F052F905000FD18A
:2061000068460188208800F09EF9002805D168460188200000F0AFF902E0642800D00125C8
:20612000280032BD0188864A538899420CD2D2680B01591A8900511849680A88032A01D16E
:2061400002220A807F4901807047F9B581B00F00160000257B4C194600F091F9010017D1DF
:206160007748C068019909880A01511A8900451829690198FFF734FF010009D13200390017
:206180000224029B280000F087F9010000D1032421006C4A914203D0002D01D069680C80D3
:2061A000FEBDF8B506000024664F3D00012100F066F9010022D16248C06831880A01511AF5
:2061C0008900441860680088032801D1012015E061693000FFF704FF01000FD1022520005C
:2061E00000F062F9010009D1200000F06DF9010004D100F055FA010000D103252900B942D0
:2062000003D0002C01D061680D80F2BDF6B587B007000E0000254B4C684639001C22FCF7DE
:20622000ADFF0899380000F02AF9010034D14448C06839880A01511A89004518A9693800A5
:20624000FFF7CEFE010027D10224089A3100380000F05FF9010001D0642012E06946098882
:2062600001290BD106984168091F41600698016840680A183100684600F04BF9010000D053
:206280006520010008D12988042904D1280000F0A5F9010000D1042421002A4A914203D001
:2062A000002D01D069680C8009B0F0BD10B40021080000E0491C224A0B0054889BB2A34266
:2062C0000FD2D2680B009BB21C01E31A9B00D21852681288012AEDD0042AEBD0052AE9D09F
:2062E000012010BC704710B50024200000E0641C134922004B8892B29A420AD2C8682100F3
:2063000089B20A01511A8900401800F08BF90100EDD010BD10B5002409E0C068210089B296
:206320000A01511A8900401800F00EF8641C04482100428889B29142EFD310BD00000000BC
:2063400074A90000FFFF000038B50400208D05F01DFD002801D005201FE0208D05F004FDB5
:20636000002801D1012018E0208D05F042FD050002F063F8002801D102200EE0280001F0B4
:20638000EAFF002801D0022007E0208D05F0ECFC002801D1012000E002206168088031BD2C
:2063A000F8B5070001207E18BE421BD300241500010000E0641CB9482200438892B29A42DC
:2063C0000FD232003900C3689C46200080B20301181A80006346181800F005F80100E9D1DB
:2063E0002C800800F2BD38B503000120DC69A1420BD31D6A6419944207D300209C8E002CF9
:2064000003D01800343000F001F832BDFCB4040001202388646800252E0001910092190079
:20642000019F01E0761CB6B28E420ADAF200A3181A689742F6D35B68D218009B9A42F1D374
:206440002800F6BC704730B402000020934B14005D88AC420DD28C4201D1642009E0D968B3
:2064600013019A1A9200891849680988032900D1012030BC70470180002141807047020002
:206480000120002A07D0002905D01188834A5288914200D20020704710B50C00416A214043
:2064A000008901F07DFF10BD0100002049680988012900D0704780B58022D200DE21490212
:2064C000012001F085FF02BDFEB501252900828E002A06D12A006F46C3690093036A0193B5
:2064E00000E0876B002406000800029201E0641CA4B202998C420BDAE000381842680068BD
:20650000716A0140308901F063FF0100EFD02800FEBD38B50D00140000F007F8010003D1DE
:206520002800210005F0B7FC32BDF1B584B00024012605F0A6FC0498806903905748C068E0
:20654000049909880A01511A890040182146009103E00099491C89B200910099049A528800
:20656000914237DA0399009AD2008A1811685768FD05ED0D01D18025AD00029001916A4E59
:2065800033002A0001980299496A01400298008901F0EEFE002819D13100280005F076FCA4
:2065A000060014D17F1B0198401901908025AD005E480068804708345D48844203D300240B
:2065C0000120FFF7BFFC002FD9D100E0012602983100BED0300005B0F0BD000080B500F0F9
:2065E00003F801F0B8FE02BD1CB552496A46118001AB0422C469416A2140008901F0B8FE52
:2066000000280CD101A800F09EFA040001A8801C00F099FA01006A46200001F0F0FE68461A
:20662000008816BD38B50500002468680088042813D1288D05F0AAFB00280BD1288D05F084
:206640007FFB0400686802D10121018005E00221018002E0052069680880200032BD10B5B9
:206660000020354C01002182618A324A914210D0491C61820DE0E07C0002A17C01430802BD
:20668000617C01430802217C01431E2000F062F901200028EFD0002010BD000074A9000053
:2066A00038B500242000244D18E0009828740098000A68740098000CA8740098000EE874CC
:2066C0000BE069461E2000F023F90128EDD1FF20010029746974A974E87401200028F0D0D3
:2066E00028690121C943884200D32C61288AFF2801D9FF202882288A0100FF2912DA401C12
:2067000028820DE0E87C0002A97C01430802697C01430802297C01431E2000F01BF9012486
:20672000002CEFD0002032BDA416002010000020E02E0000FFFF0000E01D002038B504003B
:20674000002500E06D1C2800C0B2042808DAC0022118A74801F010FF0028F3D1012032BD1D
:20676000042032BD80B50A000100A14801F078FF002801D1012002BD042002BDF8B50024E7
:206780000025ED43E0277F023968F0204002006880B289B2002970D0AB4A914225D02A0CF8
:2067A000914200D0ADE0002807D13846FFF7C6FF0100042900D10420F2BDA34988420ED109
:2067C0003846FFF7BBFF01000429F5D12146F0204002FFF7C7FF01000429EDD1EBE700F074
:2067E000C6F801000429E7D1E5E70028974E2BD0290C88423BD1F0204002FFF79FFF01002F
:206800000429D9D121463846FFF7ACFF01000429D2D1D0E7F968220092B2914201D1250002
:206820002DB2290088420ED03100200080B200F06FF8012807D03168200080B200F0DAF821
:2068400001000429B8D1641C200080B22128E1DB00213846FFF786FF01000429ACD1F020D5
:206860004002FFF76BFF01000429A5D1A3E700F07EF8010004299FD19DE7002805D100F0D2
:2068800076F80100042997D195E7290C88426F4E08D1F0204002FFF751FF010004298BD1C1
:2068A00089E7641C200080B2212819DAF968220092B2914201D125002DB229008842F0D037
:2068C0003100200080B200F023F80128E9D03168200080B200F08EF801000429E1D0F2BD59
:2068E0000021F0204002FFF73DFF0100042900D062E73846FFF722FF0100042900D05BE7D7
:2069000059E700F034F80100042900D153E7F2BD70B505000C000126002000F03DF8AB28BE
:2069200001D1AB2070BD4003E02149024118724A821830002E0000E0083A0B001B1D9342B7
