:04800000788796A542
:0480100000840000E8
:04802000000000005C
:04803000000000004C
:0C80400000000000000000000000000034
:0C810000464D33334C472D4A69614C69F1
:0C8110004B435448313233343536000004
:0C8120004B4354483132333435360000F4
:0881300048573A412E312E3070
:18814000312E30302E425F3232303731325F313333345F303000000082
:20840000A0480020658500006D8500006F8500000000000000000000000000000000000084
:20842000000000000000000000000000718500000000000000000000738500007585000054
:2084400077850000778500007785000077850000778500007785000077850000778500003C
:2084600077850000778500007785000077850000778500007785000077850000778500001C
:208480007785000077850000778500007785000077850000778500007785000077850000FC
:2084A000778500007785000077850000778500004D8600007785000079D8000079890000AA
:2084C00000F002F800F03EF80CA030C8083824182D18671EA246AB4654465D46AC4201D1CC
:2084E00000F030F87E460F3EB6460FCC0126334200D0FB1A3343A246AB4618472C630000BE
:208500004C630000103A02D378C878C1FAD8520701D330C830C101D504680C6070470000C7
:208520000023002400250026103A01D378C1FBD8520700D330C100D50B6070471FB51FBDBB
:2085400010B510BD00F056F81146FFF7F7FF05F081FE00F06EF803B4FFF7F2FF03BC05F0EC
:2085600077FE00000748804707480047FEE7FEE7FEE7FEE7FEE7FEE704480549054A064B42
:208580007047000015E00000C1840000A0380020A0480020A0400020A0400020D2B210B5A1
:2085A00013029A1813049A1800F00EF810BD01E004C0091F0429FBD28B0701D50280801C1B
:2085C000C90700D00270704700290BD0C30702D00270401C491E022904D3830702D5028018
:2085E000801C891EE3E70022EEE70022DFE7704770477047754600F025F8AE4605006946FA
:208600005346C008C000854618B020B5FFF7B4FF60BCB64600260027C0C5C0C5C0C5C0C5AF
:20862000C0C5C0C5C0C5C0C5403D490849008D46704710B50446C046C0462046FFF78BFF84
:2086400010BD0000004870473830002080B50748011F0968C90708D00168C90705D00121D9
:20866000016005F075F904F06BF980BD10300140F0B587B000260696012405940496039691
:20868000022502950095102001902E4801AF394604F074FF05940496039602952020019086
:2086A0002848394604F06AFF0594049603960295402001902348394604F060FF22497D20D5
:2086C000C00017220E604A608E600A460C3251C28E611E4F384604F055FB1D4D60202E6262
:2086E0006E62AE6211C52C606E60AE60EE602E616E6138463146083D2A4604F0CBFB3846CE
:2087000021462A4604F0C6FB384600992A4604F0C1FB20070F4908600F490A6880231343EC
:208720007F2293430B600D4908603C61F8682043F860386820433860E003796C81437964DD
:2087400007B0F0BD400C004014320020003001403032002080E100E01CE400E000E100E0EE
:20876000F0B599B06E4C0027032502202060064605906560A760E76027616761E648C030FE
:20878000214604F0FBFE0120079040020490A661E061069525626762A762E7622763DE4EBC
:2087A000803621461C31304604F0E8FE079908028903616321463831A1C16764A764E764B2
:2087C00021463831304604F0D9FE079DA90203916803206561650698A065E76527666766A6
:2087E000A76621465431304604F0C8FEE803E06625672E4606986067A767E767254670354E
:208800002F616F61C448294604F0B8FE310301918C20215026468C3620200690A86177600C
:20882000B760F76037617761BB4D2846314604F0A5FEA8200421029121502046A830B7618F
:2088400047608760C760076147610646403500952846314604F092FE0798C002C42160509E
:208860002546C435B7616F60AF60EF602F616F61A948294604F082FEE02004992150E034F9
:20888000AF616760A760E76027616761A248214604F074FEA761234C019881C42760676009
:2088A000A760E760009D2846083C214604F066FE0398A061E76127626762A762E762183488
:2088C0002846214604F05AFE1897079C1794029815900598149040201690139713A804F09B
:2088E000F7F808A906980C54FF20023008810B97099708970C970D970E97200512901197C4
:208900000B200F90084804F043F90848076247628762C76265301021FFF765FE19B0F0BD04
:2089200010310020D8300020005C0140C832002000280AD0002908D0002A06D00B780370FE
:20894000521E491C401C002AF8D1704780B5002806D0002A04D00B4611461A46FFF71EFEF1
:2089600080BD00000348417B3F220A40403242737047C0468837002010B5C94C6068C006DD
:2089800006D52068C00603D501F0D8F81020A0602068400607D56068400604D502480121E8
:2089A00001704020A06010BD43330020F0B59FB0002418941794169415941494139411A8B9
:2089C00000908480119406A802902C21FFF70DFE1E941D941C941B9403271A9704970C206C
:2089E00019904D48803019A904F0C8FD4B4801680126314301601F21090202680A430260B2
:208A0000384604F003FC16960225149501954020059013901794159413AF3F48394604F02B
:208A2000ADFD1696149580201390179415943A48394604F0A3FD169614961794159430022F
:208A4000039013903448394604F098FD300300998880334811909B4804F06AFB029D2E73F0
:208A600010960E960D966B480C900894079406942C4F0A9793482946224604F0A9FA2E73E3
:208A800020370A9710960E960D9662480C900894079406948B4F38462946324604F098FA15
:208AA0002E7321480A9010960E960D9659480C9008940794069438462946019A04F088FA19
:208AC0002E73049A50020A9010960E960D960C900894079406943846294604F079FA0E4966
:208AE0008869039A1043886110207862396A0143396205997962386A08433862F0070B49D5
:208B00000860FF2109060A4A13688B4319181160084908601FB0F0BD000C0040202400407A
:208B200000000A03A10300002302000080E100E01CE400E000E100E0B0B5104B1C685A6877
:208B40000F21114018D09A68DB68E50A04D06505ED086400A40B6419046043724271017177
:208B60001C0E04731C0CC4721B0A8372130E0372130CC371120A82710846B0BD5094014004
:208B8000F0B587B0076823494A1C974207D3BA0C0A40B903490851180322D2028F18427A23
:208BA000837AC17A0691017B05914179049181790391C1790291057A0679394C20684007D8
:208BC00007D501200192009304F020FB009B019A206860696761A0690F2188433043A0619C
:208BE000E069280602990904081803990902401804994018E061206A059800060699090428
:208C0000081819024018801820622068002007B0F0BDC046FF070000B0B5174A121D002476
:208C2000144B1D68854206D0651C14330832012C2C46F6D9B0BD481E81411170B0BDC046BA
:208C400080B50A4908700A4800F0F0F809480A49032201F007F8094809490622002300F053
:208C6000ABFF1420014601F015F880BD1630002048E5000098E7000074380020F8E60000D8
:208C8000443300207047704705480068410A012088437047024800688005C00F7047C04669
:208CA0001C9401400748016802229143016000207047C0460348016802220A43026000202E
:208CC0007047C0460094014080B5FFF76FFE002080BD0000F0B581B004460120012A06D1CA
:208CE000E14A5378002910D010252B430FE0DE4A52780125D3060CD5FD230B40012B2ED17B
:208D00009206D50F00282DD005E0EF252B4053700125002826D0FD200F4607407A1E3E4672
:208D20009641022900D20025204001280ED12846314600F0B5FE781E8741B801CA494A785E
:208D40009F2313406A019A1810184870FE200440022C07D12846314600F09CFE02E0002028
:208D60000028D8D101B0F0BDB0B5C04D2868002804D0BD4C20782121084200D0B0BDE06913
:208D800000280AD004F0E0FDE169401A2968C98A8842F3D90020E061B0BDA0789628EDD081
:208DA00001F038FA03F078FCB0BDC04680B5FFF779FF00F063FEAC48017803220A43027071
:208DC00041780E220A43427080BDC046A6484078410801208843704710B5A34C2078C007C3
:208DE0001BD0FFF771FFA189491CA181012101402078FE2202405018207000290DD100F025
:208E000035FEFFF740FF002020822078FD210140217060780E210143617010BD9248962126
:208E20008170704790480021817070478F4908607047C04670B58C4C2078C0071BD0FFF7AF
:208E400043FFA189491CA181012101402078FE2202405018207000290DD100F007FEFFF7D8
:208E600012FF002020822078FD210140217060780E21014361702078C10700D0F3E0400731
:208E800000D5EEE0F14D2868002800D1DEE000F00DFEA08000F010FEE080FFF7F5FE002820
:208EA00052D1607800074FD504F04EFDA061FFF7E9FEFFF7F7FE00F0E1FD207803210143B6
:208EC000217060780E2630436070FFF7FDFEA189491CA181012101402078FE22024050184B
:208EE000207000290CD100F0C1FDFFF7CCFE002020822078FD210140217060783043607009
:208F0000FFF7D0FE00F0AAFE6068A0606078F121014061702078022101432170608A54491A
:208F2000884201D0401C6082E2892868C38B9A4203D2511CE1811A3004E08A4201D0511C57
:208F4000E1811C3000886061607800071AD404F0FBFC6169A269801A88420BD204F0F4FC68
:208F6000A169401A2968098B88420BD3FFF792FE002807D1FFF79EFE00F088FD6078082132
:208F8000014361706078800714D42078800711D504F0DAFC6169A269801A88420AD36078B8
:208FA0000221014361702078FD21014021702868008D2082607840070FD404F0C5FC6169B1
:208FC000A269801A884241D96078410618D4E188628991421AD3524219E02078FD21014065
:208FE00021702868808C002830D004F0ADFCA169401A2968898C884228D30020E08125E02A
:20900000002161820421084360701FE0D24351188AB229684B8C9A4205D300226282A2602F
:20902000042210436070A0882289904201D3524200E0D243101880B2498C884206D30020F3
:209040006082A06060780421014361702078800707D4208A002802D0401E208201E000F0AD
:209060001FFE00F0B1FD70BD6034002098380020FFFF0000F0B581B00446744E30680028C4
:2090800000D1E1E004F060FC002802D004F05CFC00E0012031680A88A24210D96C4A0023D6
:2090A00013606C4A1368002B1FD0C21A0B8A9A421ED97C4A1378EF251D40157018E04A889D
:2090C000A24215D2774A1378DD0611D4604D2F68002F0CD0C51B0F8ABD4209D95D4D002737
:2090E0002F6010252B43137002E0106000E028608A88A24210D2584A00231360574A1368D5
:20910000002B1FD0C01A098A88421ED965480178F7220A40027018E0CA88A24215D9614A45
:2091200013781D0711D44C4D2F68002F0CD0C01B098A884209D949480021016008200343C5
:20914000137002E0106000E02860564D28781821014018394A1E91418900FB220240881802
:20916000287004F0F1FB002802D004F0EDFB00E0012031680A89A2420FD9394A002313608F
:20918000384A1368002B1FD0C21A4B8A9A421ED92A78BF2313402B7019E04A89A24216D22A
:2091A0002A78530613D42E4B1E68002E0ED0831B4E8AB3420BD92B4B00261E602A4B18606C
:2091C00040231A432A7002E0106000E018608A89A2420FD2254A00231360254A1368002B99
:2091E0001FD0C21A4B8A9A421ED92A787F2313402B7019E0CA89A24216D90023EA56002A1E
:2092000012D41A4C2668002E0DD0841B4E8AB4420AD9174C2360144B186080231A432A70C2
:2092200002E0106000E020602A789309022B08D90D4B1B68C01A898A884205D9DF2002407F
:2092400001E0202002432A7001B0F0BD98380020A0300020A83000209C300020A4300020F8
:20926000B0300020B8300020BC300020AC300020B430002070B50C4605460A4E7078EF21C8
:209280000140717004F060FBF06100207082F081307823210140D83131702846214600F0ED
:2092A00085FC70BD6034002080B501460248082200F0ACFC80BDC046D5070000D449002266
:2092C0000A604179D44A917080798006C00FD0707047C046007B4006800FCF490870704769
:2092E000CC4900220A60007A4006C00FCA4948707047C04680B50279411D012000F0D6FDC4
:2093000080BD80B50279411D022000F0CFFD80BD10B504460078617981420AD100F0BEF941
:20932000A4790120204000F0C3F9E006C00F00F0C3F910BDF0B585B0B5480168632901D810
:20934000491C0160B3480168C72901D8491C0160B148037840787D21CE00B0490A7882427D
:20936000019303D1AE48002101704FE0AC4A13785B1C1370DBB2322B48D33446087000213B
:209380001170A84E60223260A74D002820D0012778027162B06238027760B760F1603161A4
:2093A0007161B161F46130622846324603F072FD28463946324603F06DFD022128463246CF
:2093C000264603F067FDF803696C014369641DE07162B16201277760B760F160316171613B
:2093E000B161F16131622846324603F053FD28463946324603F04EFD02212846324603F0AE
:2094000049FDF803696C814369642646002199480A46435CD218491C1029FAD10025002AA6
:20942000294600D1A7E00178022906D39849497B01220A4302218A4307E095494A7B032135
:209440008A43C17A012900D9921C91494A73CB7A3F2423400279012A049600D94033CB72E8
:209460000E7B26404278012A00D940367322029216408278012A039400D9361D7424264064
:20948000C278012A00D9761C0E7342790F2A03D20C2A08D2072A03D34A7B0F26164006E065
:2094A000042A00D2ABE04A7B0F26164010364E738279012A01D8002200E001228E7A0F2768
:2094C000BE43B618C279012A00D9361D8E72029A1340027A012A00D91B1D2340427A012A3A
:2094E00000D95B1C039C45221A40837A012B00D91032CA72027B012A09D0042A0ED14B7BE8
:209500000C229343019A012A05D1042204E04B7B0C22934301E0082213434B73427B012AD0
:2095200006D0042A08D18B7B01221A43022301E08A7B03239A438A73827B002A07D0032399
:209540001A403A239E43012A03D0103601E0C52216408E72C27B002A08D003200240887A6B
:209560002040012A049E04D0403002E0887A2040049E88720121A920FFF74EFB2B4829468E
:20958000425D89186D1C102DFAD100292AD08279511E8A413E498B7E3F24A3439A18C379DB
:2095A0005C1EA3415B009A18437A5C1EA3419B00D218037A5C1EA341DB00D218837A5C1E89
:2095C000A3411B01D21843785C1EA3415B01D2188A7640218A430078411E884180011018CB
:2095E000012104E02A48807E7F2188430021284A9076B0363046FFF70FFB05B0F0BD4F7B69
:209600000F263E40002A00D051E740364FE7C0460C32002098300020FC350020C03000200C
:20962000C13000203032002000300140783200207047000080B516491A310822FFF778F935
:2096400080BDC046B0B500200A490B4A0B4B02E0401C10280CD00C5C002C01D0641E0C54AB
:20966000CC7B8D7B2543F3D1002414701C70EFE7B0BDC04668320020D5300020D3300020F0
:2096800080B503490A310822FFF752F980BDC046883700207047012101707047F148012125
:2096A0008174017C491CCAB28A4200D101747047EC4948757047C046EA4908757047C04672
:2096C000B0B5E84800248483047084758476447644608460C4600461022001252946224679
:2096E000FFF7F8FA032128462246FFF7F3FAB0BDDC4988757047C046F0B581B0D94F3878AB
:2097000002281BD0012846D0002864D102200125002429462246FFF7DDFA0321284622468E
:20972000FFF7D8FAB87D012859D104F00DF9786004F00AF9B860022600245BE07878022857
:2097400000D19EE0012800D1B7E0002800D050E104F0FAF8B968401A040904F0F5F87C2C09
:2097600000D93DE17968401ABF494239884200D837E1B87D012800D023E102200025294692
:209780002A46FFF7A7FA0124204629462A46FFF7A1FA04201DE10220012500242946224662
:2097A000FFF798FA032128462246FFF793FA04F0CBF8F968401A00097D2837D37C76BC7458
:2097C0003C748020B8833C7004F0BEF8B860FFF725FB01B0F0BD0020387001B0F0BDB87CC2
:2097E0000128FAD1BC7404F0AFF8786004F0ACF8B8600226304621462246FFF76BFA012534
:20980000284621462246FFF765FAB87D012804D195482946FFF700FA7D763E707C740A208C
:209820000F21FFF727FDBD837C7025E0B87D012860D104F089F8786004F086F8B860022421
:209840000025204629462A46FFF744FA0126304629462A46FFF73EFAB87D012804D18248C3
:209860003146FFF7D9F97E763C707D740A200F21FFF700FDBC837D7004F066F8B86001B084
:20988000F0BD0024BC760220012529462246FFF721FA04F059F8B968401A00097D284AD30A
:2098A00004F052F87C76F8603D70032128462246FFF710FA4020B88398E00024BC7604F01C
:2098C00043F8B968401A00097C2800D986E0787D012849D100247C7504F036F8786002207D
:2098E00021462246FFF7F6F9012021462246FFF7F1F94CE0B87C012800D06EE7BC7404F012
:2099000023F8786004F020F8B8600225284621462246FFF7DFF90126304621462246FFF79C
:20992000D9F9B87D012804D14F483146FFF774F97E763D7072E7B87D012830D10220002412
:2099400021462246FFF7C6F9284621462246FFF7C1F90820B8837D7003F0F6FFB860387E90
:20996000012846D13C7644E0387E012854D13C7603F0EAFF7860022021462246FFF7AAF9DD
:209980000125284621462246FFF7A4F9BD760A200F21FFF76FFC2020B8837C701EE0787D89
:2099A000012845D17C7503F0CFFF7860022021462246FFF78FF9012021462246FFF78AF906
:2099C00048E002240125002220462946FFF782F928027C70B8830020F875B88203F0B4FFED
:2099E000B860F87C012804D10020F87403F0ACFFB860B87C012804D10020B87403F0A4FF87
:209A0000B860787C052803D317480021FFF704F9FFF708FA01B0F0BDB87D0028E1D1022439
:209A20000125002220462946FFF754F96802B3E7387E0128DDD13C7603F086FF7860022011
:209A400021462246FFF746F9284621462246FFF741F9BD760A200F21FFF70CFC1020B8839F
:209A60007C70C3E724340020310600000248016820220A4302607047180C0040024801682F
:209A800020220A4302607047140C00408048002181707047814A51734A4908737047C046D3
:209AA0007E4AD172474988727047C046A12040006949085A7047C046512080006649085A80
:209AC0007047C046F0B581B004463E48007A002832D03C48C0C800250CE003F035FF3860A3
:209AE000F168002926D110366D1C3F1D3548007A854221D2002E1FD0002F1DD0B17A206825
:209B00003268824204D104290CD22E480A300DE0FE2319400629E6D19042E4D371688842DE
:209B2000DBD9E0E70429D8D126480C3000780028D9D1D2E72046884701B0F0BDF0B585B0BA
:209B400001A8FEF7F9FF00282ED0D24C1D4E14E0625C1001019B23502018029B039D4360D6
:209B60008560049B0373737A002B1AD0FFF7AAFF01A8FEF7E1FF002816D0A1204000215A42
:209B8000491C21520027C14887702920C50003F0DBFE605105208101605C1428D8D1675438
:209BA000D6E7501C6054E3E705B0F0BDB74A9060D16005205070704710B5024C6372227262
:209BC00003C410BD4C370020F0B581B0FF214231B04D6E5C05208701E85D8642009111D0F2
:209BE0001424F0B2142800D10026F0B200012818FFF768FF761C641E200403D0E85DF1B225
:209C00008142EED100982E5401B0F0BD80B503469F48027103600A7842714A7882718A7823
:209C2000C271CA7802720A7942724A7982728A79C272C9790173FEF7A3FF002801D00120AF
:209C400080BD5120800093490A5A521C0A528F490020887080BDC046003600208B4801214E
:209C60008170704710B5884B1A7203C3874B002098700F249C60DC6006245C70002A05D0F8
:209C8000034608605B1C08319342FAD310BDC046603700207C4A10615161704770370020D0
:209CA000F0B587B0784F3D687C6878484078411E042924D8002004267944097949008F44D3
:209CC0001C020C130D0003F03FFE704A51689268401A904213D301200FE0022603F034FE2E
:209CE0006A494860304608E003F02EFE674A5168401AD168884202D3032064494870387AB6
:209D0000002800D1BDE0093500221646039209E0F97A002924D01435761C0834387A864252
:209D200000D3AEE005920492092DF4D068780328EED90428EFD1787B0028ECD153484078B2
:209D40000328E8D84AD0277903F0FEFD2168401A012F38D14C4F7969884222D200203AE0DF
:209D6000012829D003281ED00228D4D147484078012833D00028CED103F0E6FD039A2168A3
:209D800000292BD0401A691F0968884226D220790128C0D103F0D8FD2168401A3969884220
:209DA000DCD3012017E003F0CFFD039A2168401A691F09688842AED32079411E484248414E
:209DC0000028A8D00AE0691F0968884201D2002000E001202C4F039A00289CD007202858EF
:209DE000002898D0E81D01902079009004AF0021029108223846FEF7A9FD244902980870EB
:209E0000019802683846904728782149087128460938006808600498487178788871B8787A
:209E2000C871F87808720598487278798872B879C872F879144F08730846FEF7A1FE039A84
:209E4000002800D067E751208000124A115A491C11520E480299817003F076FD2060687894
:209E6000012803D0032803D10098029002982071032028580028039A00D14CE78047039AC2
:209E800049E707B0F0BDC04670370020603700206438002000360020DD482C307047C0465A
:209EA0002121DB4A505C002353547047F0B585B015460C460646087802280CD161783E2974
:209EC00009D1A178802906D1D148018A042002F099FBF02115E0F02108402621CC4A505461
:209EE0002821535C302803D10146002B04D004E00F21C943002B00D101461278002A00D011
:209F000001462622C2488154CAB20421CA41032A00D97BE17A44127952009744013863852E
:209F200020210022425421214254222142542321425424214254252142542A214254C276CD
:209F40000283C277782181850285F021C18423780F211940C185072D41D9002900D155E1DF
:209F600008293CD202463232631C0C461D7815705B1C641E521C002CF8D1AA2286540246C1
:209F8000183291810621117401215172F0E002214E40C27A324300D138E120230022C2543D
:209FA0002123C2542223C2542323C2542423C2542523C2542A23C254C2760283C2777823E1
:209FC00083850285F023C38423781B071B0DC38566789B19C385072D01D9062B54D8C285DF
:209FE00005B0F0BD2721415C042900D00EE121780F220A40C37E9A422DD1878CC28D01217B
:20A00000BA420E4679D9D61B0496B6B2062E01D907260496082D05D3049DEDB2ED19868D70
:20A02000B54269D9002668E02822825C032A00D0ECE02278332A0ED2312A2AD0322A0AD026
:20A04000082D01D0402D06D1022E00D0C7E0C27A002A00D0C3E020220021815421228154E6
:20A06000222281542322815424228154252281542A228154C1760183C1777822828501853B
:20A08000F021C18405B0F0BD792B04D32922815412E041796DE029214254A91E0A060AD0E3
:20A0A000A21C03463233CCB215781D70521C641E5B1C002CF8D18184AA2101234354B421E0
:20A0C000082242544178F44C4C43AC228450C3764376034618330521D973017A0176014665
:20A0E000AC314C605B7C022B4FD0012B4FD0002B00D08BE030234BE00126002E00D185E0FA
:20A1000001AD86C504990D060DD0641C0499CDB2039EB2B28218277832215754641C6D1ED6
:20A12000761C002DF5D1417A01760499C9B2039A511804461834A1815B1CDAB2102A00D184
:20A140000023029AC37689B28A4215D100210183C176C177782282852172A172E1722173D8
:20A16000617301226272A17406212182F021E1810179017605B0F0BD417F491C4177827898
:20A18000C9B291420BD300210AE0322300E03123835482784A70C078887005B0F0BD0121C0
:20A1A000002A00D00191019900292FD14378BA495943AC23C150B425082646553025C55406
:20A1C00000234377012545766374437903760346AC3359605A70C078987005B0F0BD024620
:20A1E0001832117481790176637883770223E35600240477002B01D45B1C00E0012313724D
:20A20000C377DAB2914201D80A33037605B0F0BDAC370020F0B581B02820F54D285C401E6F
:20A22000032800D9A6E0C046784400794000874401193D58687E002800D19BE06878964C83
:20A240004443AC22AC50002169842B46AC335C60E88D08286CD30024AC5458700223002876
:20A260006AD17CE0687E002800D183E068788A494143AC202950EA8D130A10241C432C54E2
:20A28000002068842B46AC3359605A70A98DAE2202E0521CB42A45D083B28B42F9D2401C6D
:20A2A0006884EB1832241B5DAB54F2E7287E002860D12021002068542121685422216854F0
:20A2C0002321685424216854252168542A216854E8762883E8777821A9852885F020E8841C
:20A2E00048E02021685C002844D0AA7A831A00D200236B5490423DD86878DD4A4243AC233E
:20A30000EA50E87E0143E954012169762946AC314A60698CEA8D521A072A009000DA8FE043
:20A3200007228EE0B420082129540120E87621E0A8540123002812D0AA8D5B19AC3304468E
:20A3400003E0641E5B1C002C09D08EB29642F8D2491C6984AE193227F65D1E70F1E70021EE
:20A36000E976082803D3801CB421685402E0B42008212954287E002860D0A97A421A00D2A0
:20A3800000222A7688420FD96A69002A56D0687E002822D000206876AC20295C002925D1B8
:20A3A000401CB428F9D149E020210020685421216854222168542321685424216854252111
:20A3C00068542A216854E8762883E8777821A9852885F020E88401B0F0BDAC20295C00298A
:20A3E0001CD1401CB428F9D100201BE0C0B2B42824D0B426A95D2C46AC342046904700287A
:20A4000045D0264801210170AC2028582449AA5D244B1A70626805C101B0F0BDC0B2B43821
:20A42000411E8841002809D01C4C2078002805D01C4801781A489047002826D001B0F0BD64
:20A44000D2B2002A12D0AB8D2C46AD34164603E0761E641C002E09D08FB29F42F8D2491C36
:20A460006984EF193220385C2070F1E7082A01D3511C00E00821009AB4202954501CC1B253
:20A480000F2900D852E7002050E70020207000F035F801B0F0BDC04601010101D1300020C6
:20A4A000C8300020D030002010B56F491CC81CC11CC81CC110BDC04620226B4800218154A7
:20A4C00021228154222281542322815424228154252281542A228154C1760183C17778224C
:20A4E00082850185F021C1847047C046AA205E4901220A540020C88508867047B0B528206B
:20A50000594C205C2721615C052908D1002806D1204618300421C173607A2076B0BD012802
:20A520002DD0042806D0022844D1204618300321017421E0E08D618C81423CD225461835B2
:20A54000E07F2872A179227951182176C9B20A30884200D92076E189042002F053F8207FF5
:20A56000401C2077A17F002924D0C0B2884221D3002020770320287460792076B0BD2021E8
:20A580000020605421216054222160542321605424216054252160542A216054E076208317
:20A5A000E0777821A1852085F020E084E189042002F028F8B0BD2021002060542121605454
:20A5C000222160542321605424216054252160542A216054E0762083E0777821A1852085E6
:20A5E000F020E084E189042002F00CF8B0BDC046AC37002070B5012420021B4E3083002144
:20A60000F176F1777820B0853546183529726972A972E97229736973A9742982F020E88131
:20A6200030793076032001F0EDFFF08D082800D302242C7470BDC046AC210B480B4A425249
:20A64000AF2178224254B42108224254012141763221415C0246AC329170017901764078CC
:20A660000349414351607047AC370020037F000001010101F0B581B04F4B1968022421439E
:20A680000125A943196010210246CA414B4E4C4F4C49032A009028D87A44127952009744AF
:20A6A0000109121B386882B27240040CA24224D0802423E0381F006882B27240040CA242B5
:20A6C0002AD0802429E0083F386882B27240050CAA4232D0802531E00C3F386882B2724080
:20A6E000060CB24239D0802638E0386882B27240040CA24241D0802440E0C4B20868FF2237
:20A7000090432018086018680322904318602E4A13680F2083433EE0C4B20868FF229043F6
:20A72000201808600320C0431A6802401A60264A13682B430E2083432DE0C5B20868FF22B3
:20A7400090432818086018680322904318601E4A136823430D2083431DE0C6B20868FF224C
:20A7600090433018086018682843A0431860164A136823430D2083430DE0C4B20868FF22E8
:20A7800090432018086018680322904318600E4A13680F20834313600F2000040A1F136844
:20A7A00083430098034313600720C04308390A6802400A6001B0F0BD00100040FFFF00004D
:20A7C00040FBFF1F0824004004E0014080B5012001F068FE012801D0002080BD222080BD0C
:20A7E00005480078811E48424841704702480078411E484248417047423300202748406A92
:20A800002749884201D80020704701207047C0462248006A2249884201D800207047012096
:20A820007047C0461D48806A1D49884201D80020704701207047C04618480069184988425A
:20A8400001D80020704701207047C046134880691349884201D80020704701207047C04672
:20A860000E48C0690E49884201D80020704701207047C046094840690949884201D800209B
:20A88000704701207047C046044840680449884201D80020704701207047C04688320020B0
:20A8A0006F17000003480068C72801D800207047012070479830002003480068632801D8E9
:20A8C00000207047012070470C32002080B5FEF77DFA80BD80B503F057FC80BD80B503F0AD
:20A8E00059FC80BD002070470020704780B50346CAB20220194600F07BF9002080BD80B5A7
:20A900000346CAB20120194600F072F9002080BD002907D0044A13780370491E401C521CBD
:20A920000029F8D1002070470AE5000080B50A4602A1FDF7FDFF002080BDC046562E303000
:20A940002E3030300000000080B50346CAB20320194600F04DF9002080BD0000002907D02A
:20A96000044A13780370491E401C521C0029F8D10020704712E50000002907D0044A1378C1
:20A980000370491E401C521C0029F8D10020704732E50000002907D0044A13780370491E80
:20A9A000401C521C0029F8D10020704728E5000080B5002901D0FDF716FE002080BD000063
:20A9C000002907D0044A13780370491E401C521C0029F8D1002070471EE5000070B581B0D8
:20A9E0000022009211A3845C9D5C65406C46A554521C042AF7D16B465878F0220446144031
:20AA00001D782E0126430E700F242C40DD782E013419CC709B781A402C09A2188A70000188
:20AA20001A06120F8018487001B070BD7E03CDE2F0B581B014460D460026304601F032FD38
:20AA400001270028384604D10A20012101F0DAFD304628702770002001B0F0BD80B501F0F6
:20AA60009BFE80BD80B5FEF735F980BD80B50821FEF71AFC80BD80B503F0AAFB80BD0000BB
:20AA800080B590B00AA84549018245490D9145490B9145490F9145490C9145490A91FFF7B0
:20AAA00003FDFFF709FDFFF721FD02A80521018240490991404908914049079140490591AE
:20AAC00040490491404903914049029101F0AAFC3F480A2101F00AFD012803D1002001219F
:20AAE00001F052FE3B4803213222C82300F01EF9012803D10220012101F046FE3648012112
:20AB000000F04EFA012803D10320012101F03CFE00F030FB012803D10420012101F034FE0F
:20AB200000F040FF012803D10520012101F02CFE01F00CF8012803D10620012101F024FE3A
:20AB400026480090264801210322022301F09EF9012803D10720012101F016FE21480221BE
:20AB600001F078FA012803D10820012101F00CFE1D48012101F03EFB012803D10A20012136
:20AB800001F002FE1948012101F0B2FB012803D10B20012101F0F8FD10B080BD88130000DB
:20ABA00078008813469632466DAA0000329605000055001465AA00005DAA000077AA0000AA
:20ABC000A00F3200E80388133200A00F3200C80074E5000058E7000064E700001027000019
:20ABE0006CE700007CE7000088E7000094E7000010B53F22D2021468974B1C701468240A27
:20AC00005C7054889C70D478DC7054681C715468240A5C71D4889C71D479DC7194681C725B
:20AC20009468240A5C7254899C72D47ADC72D4681C73D468240A5C73D4899C73D47BDC7387
:20AC400014691C741469240A5C74548A9C74D27CDA74032805D002280AD0012807D11B1DA5
:20AC600007E008330A2208461946FDF761FE10BD9B1D022208461946FDF75AFE10BDC04611
:20AC800070B5FFF709F900284CD004464088022809D1704D287800280AD001F0F3FC0128D5
:20ACA00008D17F2032E01320012101F0CDFB70BD11202BE02878002815D0AA68E379002454
:20ACC000214604E0121D641C491C814222D21678B34204D05678B342F4D1002EF2D08142CC
:20ACE00005D1122012E000210C468142F9D0002001F05AFBA100AA6851188A7802420DD0B6
:20AD0000C87801F0CFFB00280DD02220002101F09BFB70BD01468142E3D0E8E77E200021D1
:20AD200001F092FB70BD00F019F870BD10B5494CA38062802170A060012200280CD00029FA
:20AD40000AD0002203E0491E001D002904D00378002BF8D10122F6E7D0B210BDB0B501244B
:20AD600000252046294601F04DFC0220294601F049FC8A484572C480FFF78EF80446C0790C
:20AD800001060AD47F210840022809D17E20205C012813D1FFF750FC10E001F071FB0DE03F
:20ADA00006206080A0794030A0712A48418849BA2181808840BA6081FFF71CFCE1797F2029
:20ADC0000840032811D0022814D0012830D1002401252046294601F015FC0320214601F04B
:20ADE00009FC284600F04CFEB0BD0020042101F009FC1DE07E20205C012819D1002502218C
:20AE0000284601F0FFFB0320294601F0FBFB01F035FC072020563F21CC020F4D002808D413
:20AE20008720A8707820E87096206870692007E0B0BD6920A8709620E87078206870872032
:20AE400028703F2002F0C6FC20222046294602F0D9FCB0BD803400205C330020F0B583B0A1
:20AE6000FFF71AF8002862D00446408802280AD1574D2878002809D0E77901F003FC01289B
:20AE80000AD17F2003E01320012101E01120002101F0DAFA03B0F0BD2A78501E114681417F
:20AEA0000020002A22D06B681D78AF421ED001935E1C0025284602973B463778BB4201D1D6
:20AEC000002F11D1401C904201D3002100E0012190420AD2C700019BDF5D08366D1C029B8B
:20AEE000BB421F46E8D101E02846029FC9071AD00297C600364F7868801980780190002582
:20AF0000284601F051FA0199084212D0786880194068002801D080470546002D029F0AD0ED
:20AF200001212846B4E71220002101F08DFA03B0F0BD7E20ABE77F200740032000252946EE
:20AF400001F058FB0126304600F09AFD2846314601F058FB3046294601F054FB0220029087
:20AF6000294601F04FFB0D48867107202056002807D402986080A0794030A071FFF73AFBFC
:20AF800001E001F07DFA022F03D100F0D3F903B0F0BD01F073FB03B0F0BDC0469C34002092
:20AFA0000B4A11705060012200280FD000290DD0002204E00122491E0830002906D0837819
:20AFC000002BF7D00378002BF4D0F4E7D0B270478C340020F0B587B0FEF75EFF002800D1FA
:20AFE000C1E004464088042805D101F04BFB012807D17F2000E01320002101F025FA07B0CA
:20B00000F0BDE0790004217A09020818617A46180020564DAE420DDC002E1BD001210A0541
:20B0200096421CD089058E4220D15948807801281ED043E00121C9058E4215D003218905D3
:20B040008E4237D04A498E4210D15148407901280ED033E04E480078012809D02EE04C48B7
:20B060004078012804D029E04948C078012825D101276780A0794030A071FFF7BBFA0020B6
:20B08000AE420DDDF9058E421AD0032189058E4218D037498E42034616D10523384613E09B
:20B0A000012319058E420ED099058E4203460BD1022308E0364800790128D9D031209BE764
:20B0C000032300E004230020964E317D00294AD0002708250424C0430390019306E0019B26
:20B0E00010340A357F1C307D87423CD23068005D181A411E884103990142F1D1B068002185
:20B10000415540194170421F117051709170D1701171C01F0170B068415D10220A4342550C
:20B12000B068415D40220A43425530690028D7D0328B3946514389B2401800210290FDF7A1
:20B1400005FC307BC119C8B2727B9042C7D204A8417003218170029905917A4989690691A8
:20B1600001F03AFBBBE707B0F0BDC046FFFF7F00FFFFFF0080B501200102002000F002F8C0
:20B1800080BD0000024A9180106000207047C04618350020634B1983DA821861914201D890
:20B1A000002300E00123511E8A41414241411140194308467047C0465A49886041424841DA
:20B1C0007047C046F0B585B0564D5E484078002847D1A868002844D0287D002841D0002449
:20B1E0000826274609E0A86880190838012101700A367F1C287D874233D2A868845580197F
:20B200004470411F0C704C708C70CC700C71C01F0470A868815D10220A438255A868815DA8
:20B2200040220A43825528690028DCD02A8B3946514389B2401800210190FDF787FB287BFD
:20B24000C119C8B26A7B9042CDD202A8417002218170019903913B498969049101F0BCFAF5
:20B26000C1E7A86800280ED0287D00280BD000200821AA68535CFD241C4054540A31401CA2
:20B280002A7D9042F5D305B0F0BDC046F34A117510604A1E91414242504108407047C0467E
:20B2A000002805D00178407800024018FA4988810020704770B5E84C01236370F64C257BB1
:20B2C000401BC0B22669002E03D13546022906D070BD258B4543ADB275190229F8D1022A22
:20B2E000F6D1217D8842F3D2002EF1D00A214143A06840182A7842706E78C670AE7806714F
:20B30000ED784571D20703D0027A082515430572A0684018C1560029DAD5017A20220A4395
:20B32000027270BD34350020B0B5CD4C049D2FC40020B0BDCA488068C7494860C878401CF6
:20B34000C870704718300020F0B585B0C24C6068002802D0401E60603DE0207801283AD1E5
:20B36000CD4A5068002828D0006880472074CA484068406880476074C748406880688047B8
:20B38000A074C5484068C0688047E074FD48406800698047FB4A2075217C002918D1A17CDE
:20B3A000491E4A424A41E17C491E4B424B411343012B06D1F248C06808E000202075206159
:20B3C00006E0A168002900D133E1481EA060ED4A207C002801D005B0F0BD107D0028FAD05D
:20B3E0000027012000903E463D4612E08019017AEF220A400272E34880688019017ABF2291
:20B400000A40027210370A366D1CDE4A107D8542E1D29068815D0129F4D101963E46A17C32
:20B420004A1E51425141E27C012A009B00D00B46F64C216837468A598919012B0BD163689A
:20B440009C699442844C3746019E18D014331B689342D7D113E0804CA368002B3746019EE5
:20B46000D0D10B79042B0AD1637C002BCAD1237D012B00D0D9E0E54B5B681C33E7E7C96862
:20B480000029B3D08847E149896889194A7A904206D1CA88531CCB80002805D0082204E0F0
:20B4A00048720020C880ADE70A22D84C2468E4190194A25A9BB29342674CA3D3CA800028AF
:20B4C00032D00879002801D000200871087A8007CE4B05D44879401CC2B2824200D148717D
:20B4E000087A020708D40822104308729868801981214170E178817098688019017A012281
:20B500000A43027298688019017A04220A43027298688019017A02220A43027298688019DD
:20B52000017A20220A4331E0087A0007B74B28D58A78E078824224D088700879401CC2B20D
:20B54000824200D10871019880790A79824210D3487800280DD0C878401CC2B2824200D1B7
:20B56000C8700020087180204870087AF72202400A7298688019017A8A0702D4FB22114060
:20B58000017298688019017AFE220A40027298688019017AEF220A40027298688019017A4F
:20B5A000BF220A4002721869002800D12AE7FC4B198B69438AB28118825C986880194078C6
:20B5C000904201D1002001E0087001209A689219D2784B789A4201D04A700120F04A9268B7
:20B5E000921912798B789A4201D08A700120EC4A926892195279CB789A4201D0CA70012059
:20B60000002800D1FEE6E64B187B4219D0B25B7B984200D3F6E602A8427003228270039146
:20B62000A169049101F0D8F8ECE623460C3300220DE7617C0029DA4A00D0C9E6012803D174
:20B64000D6480069E060C3E6E068002800D1BFE6401EE060BCE6C04618300020343500205D
:20B6600020350020CE49002813D04860016800290DD0416800290AD0C168002907D081685E
:20B68000002904D00069002801D0002070470120704700204860704734350020F0B587B0B8
:20B6A000F64ABF4D297D0029019049D0D1780691007A02900022032308211746059207E08D
:20B6C0000346B74D10320A317F1C287D87423CD2AC686618083E3678012EF3D118462E681C
:20B6E000B518EB68002BEBD0635C029C2340069C2342E5D00395019C25880495064685B2CA
:20B70000281D049B98421FD803984088A41D6055A34D28688058000A731C9BB2E054286899
:20B720008058B31C9BB2E054A868405C069B1840F31C9BB2E0540598401C0590331DC1E726
:20B7400003230020059000E03346019A5380CB49C878107290794030907107201056002842
:20B7600003D4FEF747FF07B0F0BD0598000603D0012008560028F4D500F082FE07B0F0BD99
:20B780002035002034350020F0B581B0BB49C978834A147D002C009118D0057A0D40166843
:20B7A00097680C36002204E0641E10360A37002C0DD039780129F7D131680029F4D0397A54
:20B7C0000B07F1D50D42EFD0521CEDE7002200990172C27206214180110A8172A74B197965
:20B7E000417281794031817107214056002803D4FEF700FF01B0F0BD100403D000201856B5
:20B800000028F5D500F03CFE01B0F0BD3435002070B5FEF741FB00285BD004464688012E35
:20B8200004D81320012100F00FFE70BDE57900F029FF012801D17F2030E07F20E1790A4644
:20B8400002400A2A08D0022A0CD0012A25D1F31E5E1EB341894E0AE0B31E5E1EB341874E19
:20B86000B61C04E0F31E5E1EB341844E761C002B02D03378002BD4D1012A06D00A2A06D0AA
:20B88000022A0AD17D4A521C03E07C4A01E07B4A921C12780A408A4204D21220002100F0B6
:20B8A000D3FD70BD05400A2D07D0022D09D0012D0BD12046FFF768FF70BD204600F00AF8DE
:20B8C00070BD2046FFF7EAFE70BD1220002100F0BBFD70BDF0B583B0418802293ED1674A16
:20B8E0002F4C217D00293FD0D1780091032200252E462F46029006E0294C10350A367F1CDD
:20B90000217D8F4233D2A168895D0129F5D121684B19DC68002CEFD00088019094B2201D1C
:20B920000199884222D858880299891D08551C4C20684059000A531C9BB2C854206840599F
:20B94000931C9BB2C854A0688019007A009B1840D31C9BB2C854121D0298CEE71320002197
:20B9600000F072FD03B0F0BD032200E002984280424AD17801728179403181710721405644
:20B98000002803D502201056002803D4FEF732FE03B0F0BD00F074FD03B0F0BD2035002065
:20B9A00034350020F0B587B02A480C21FFF76EFC07462948FFF756FE04902848042130269C
:20B9C0003246FFF7E7FB03902548FFF769FC0690642000907D20830022482349C822FFF73C
:20B9E000A3FC0290214D2846FFF7E6FB059000241A4821463246FCF7A9FF7822284621465F
:20BA0000FCF7A4FF781E41424141012F01D0012000E00220049A012A00D008460399012924
:20BA200000D1401C0699012900D1401C0299012900D1401CC0B20599012900D1FF24041BA4
:20BA4000601E8441FFF7BEFB00F012F8204607B0F0BDC046E8E50000C4E500007C330020E5
:20BA6000E4E5000001020A0901010101AC33002002488068054948607047C046203500208A
:20BA8000411E012901D8014908707047183000202C4A117110604A1E914142425041084064
:20BAA0007047C046F0B581B0FEF7F6F900282ED004464088032805D100F0E4FD012807D104
:20BAC0007F2000E01320002100F0BEFC01B0F0BD1C4B1E79002E10D0207AE17909020A185E
:20BAE0001968204609302388DB1EF70000268D5B954210D00836B742F9D10020010408D0C8
:20BB0000C01C6080A0794030A071FEF773FD01B0F0BD3120D7E78A1951889BB2994203D97D
:20BB20000120C043401CE9E75268002AE5D09047002801D00448E1E7024800688019408825
:20BB4000DCE7C04694340020FEFF000080B502480A21FFF79DFF80BDA8E60000F0B583B058
:20BB6000FEF79AF9002800D181E004464088022801D2132078E0EF4F7878002806D0E579BF
:20BB800000F080FD012803D17F206DE011206BE0797800290ED0F86900263701C25D954226
:20BBA0000AD0C21953789D422ED0761C8E42F4D30E4654E0002653E0DE4A917A491C917283
:20BBC0009278C9B2914208D901210902D94A518191889181117A491C11726188022931D156
:20BBE000C01945790020029000F0DEFB284232D0D04DE87A002844D03720029C214600F0C0
:20BC000023FC6C722F462BE00025CA4B9D72D078801C6188884217D155790020029000F06F
:20BC2000C3FB284217D0C34DE869C15DEA7991421FD1E97A00293ED03720002100F004FC4E
:20BC40002F460DE0132007E0132029461F4600F0FBFBFD7104E07E20002100F0F5FBB54F86
:20BC60007878864203D11220002100F0EDFB03B0F0BD2420029C214600F0E6FBEC712F46C1
:20BC8000EEE7E869C15DE971C019C0680028029D59D08047002849D0A6480078002852D05D
:20BCA0000120294600F0AEFC0220294600F0AAFCA048057047E0C019C27828461230214685
:20BCC0000831FCF735FE0120019000F06DFB01280DD1022000F068FBE969C9190979C0B257
:20BCE000814204D107202056002877D4C1E0E869C0198268002A04D028460E302946163187
:20BD00009047E869C019C0780028019900D182E029461631029D02E0491C401E77D00A7832
:20BD20000B1F1B789342F7D00125F5E70120814D2870014600F066FCE869029DC019017945
:20BD4000022000F05FFC0120019000F02DFB01280AD1022000F028FB7649C969C91909791E
:20BD6000C0B2081A45424541002D06D0002071490882C8814872887226E06E4A9079401E99
:20BD800041424141907A401E424242410A43012A1AD102953A4A10680321414339480D18EB
:20BDA000156001F0D1FD291837484840344908600E21604A5054491C000A1229FAD1002010
:20BDC000907101985072029D0720205600280199084600DA00204D40054302D100F050FBDE
:20BDE0003DE7544AD069C0198078A1794031A171801C6080D069C01917468278083439463A
:20BE00000E312046FCF794FDFEF7F4FB28E7E8B241424141474DE879002817D0002915D055
:20BE200002256580A0794030A071FEF7E3FB0020404C20810120014600F0E4FBE069C019E3
:20BE400027460179284600F0DDFB09E7002810D00020384FF871387A411C3972F878C9B218
:20BE6000814208D938720120F872B888B881362002E02420F0E63520002100F0E5FAEFE604
:20BE8000003000204387361373568912F0B5294DE86100242C70059EAE80EB70AA70697098
:20BEA0000125002827D0002925D0002A23D0002B21D0002E1FD00901254603E015461034D2
:20BEC000A14218D02A4603195E790125002EF6D01E79002EF3D09E78002EF0D0DE78002E0A
:20BEE000EDD05E78075D7F1CB742E8D19B68002BE4D10125E3E7E8B2F0BDC0460D48002168
:20BF0000C17141727047C04610B50A4CA089002805D020460C3000F0C5FB002800D010BD27
:20BF200000206072E072207A0028F8D0401E207210BDC0469C340020F0B585B0FDF7ACFF07
:20BF4000002861D004464088032809D14D4D2878002808D000F096FB01280AD17F2003E030
:20BF60001320012101E01120002100F06DFA05B0F0BD2878421E01469141002840D004909B
:20BF800040484668207AE37932789342029001D100261EE00396771C002216463D781846B1
:20BFA000AB4201D1002D12D1761C049B9E4201D3002100E001219E4222D205257543039B56
:20BFC0005D5D7F1D521C0346A842E7D101E0164603460193C80713D005277743294E7068B1
:20BFE000C019C578002000F0DFF928420ED07068C019007900F04CFA012809D13320B3E7AB
:20C000001220002100F020FA05B0F0BD7E20ABE7029D002D12D07068C0198078691EC8404B
:20C02000C0070BD002206080A0794030A07107202056002804D4FEF7DDFA03E0312093E7AB
:20C0400000F01EFA01990F200140284600F0D2FA05B0F0BD0B4A11705060012200280FD092
:20C0600000290DD0002204E00122491E401D002906D00378002BF7D08378002BF4D0F4E79C
:20C08000D0B27047BC340020F0B587B0FDF704FF002879D0044641880806800E0DD0684FD0
:20C0A000387800280CD0039107202556268900F0E9FA01280AD17F2003E01320012101E058
:20C0C0001120002100F0C0F907B0F0BD3B78581E19468141002B2AD0029432043C4617BA73
:20C0E0006668C0B2401C01900020049003E000210C36834223D07288974213D132782C468E
:20C10000EDB2954244D005913946727801270497954205D1002A25460F46059902D00FE0DD
:20C1200025460F46401C9842E1D20121E0E700200246C90709D1012A22D11220C1E70198CA
:20C14000029C3F4F049AC907F5D00C264643786880190179039AD2B2914217D1059547799C
:20C160000025284600F020F9384218D0344F78688019807900F08CF9012812D13320A0E771
:20C180003120002100F060F907B0F0BD132098E701222546029C2A4FC907D6D1CBE77E2062
:20C1A0008FE7786880198368002B16D006AA15707F20059E304021460A31984701280ED81D
:20C1C000002E13D406A80078001D6080A0794030A071FEF70FFA07B0F0BD262071E77828ED
:20C1E00000D06EE7FEF728FA07B0F0BD00F048F907B0F0BD10B5124A11705060012200286D
:20C200001BD0002919D0002204E01A46491E0C30002912D0134644790122002CF6D0448816
:20C22000002CF3D00479042CF0D30478002CEDD08268002AE9D10122E8E7D0B210BDC04625
:20C24000C4340020F0B581B0FDF726FE002848D004464088022809D1334D2878002808D062
:20C2600000F010FA01280AD17F2003E01320012101E01120002100F0E7F801B0F0BD2878E9
:20C28000421E01469141002827D06A68E3791578AB4213D0551C00262F78BB4201D1002F3F
:20C2A0000CD1761C864201D3002100E00121864213D27700D75DAD1CBB42EDD1C8070CD0C9
:20C2C0000720205600280ED402206080A0794030A071FEF78FF901B0F0BD1220002100F0FD
:20C2E000B3F801B0F0BD00F0CBF801B0F0BDC04610B50D4A117050600122002812D000297B
:20C3000010D0002304E0491E801C0029134609D004780122002C00D013464478802CF2D8B2
:20C320001A46F0E7D0B210BDCC34002010B5FDF7B3FD002831D004464088022808D100F0C0
:20C34000A1F9012809D17F20002100F07DF810BD1320012100F078F810BDE0797F21014092
:20C3600040B2022909D0012913D10E4901220A70002813D40220608005E00A4A02211170D7
:20C3800000280BD46180A0794030A071FEF732F910BD1220002100F057F810BD00F070F877
:20C3A00010BDC046183000200A281BD8800001A108588746E1C30000E9C30000EDC30000CE
:20C3C000F5C30000FBC3000001C4000007C400000DC4000013C4000019C400001FC40000EF
:20C3E000242004E000207047252000E02620E549085C7047E348008D7047E248408D70476D
:20C40000E048808D7047DF48008E7047DD48408E7047DC48808E7047DA48C08E7047D948E9
:20C42000008F704770B5D74C211D6CC86CC16CC86CC1262000212154A185A1620120A08424
:20C44000FDF72AFDE06370BD10B5CE4CE26B012908D07E21515C012904D0FEF72DF800209F
:20C46000208510BD91797F239371E26BD171E16B0872E06B03214180FEF7BCF810BDC04699
:20C4800080B5FEF719F8BF480021018580BDC0462621BC4A515C01404A424A41411E8841F6
:20C4A0001040704710B5B749CA8E521E531E9A41C30813400A8F521E541EA24104091440BF
:20C4C0001C438A8E521E531E9A418308134023434A8E521E541EA241440814401C43098EB2
:20C4E000491E4A1E91410840204310BDB0B502464220A44B19541A600120002A0ED00029EC
:20C500000CD00023DC0014196568002D06D06478002C03D05B1C8B42F4D30020B0BDC046CA
:20C52000F0B581B0974C2568FDF7BAFC012859D120892085E08960854220265C701E334631
:20C540008341E06B00908179002E04D0002D02D0287888422ED12A46002B0FD01088402165
:20C56000884C60527E20009B185C9178014210D0516800290DD0884701B0F0BD7E20009A38
:20C58000105C01287F4C29D17F209071E06BC17106E0012828D198797F219971E16BC871DC
:20C5A000E06B11210172E06B03214180FEF722F801B0F0BD08350020074607E00123B74240
:20C5C000CAD21546083514788C42C5D02A467F1CB742F3D30346B742F3D3BDE7FDF76CFF63
:20C5E0000020208501B0F0BDFDF766FF0020208501B0F0BD80B5634A136A002B01D001221E
:20C60000984780BD0A2838D8800001A2105887463DC6000041C6000045C600004DC600003C
:20C6200053C6000059C600005FC6000065C600006BC6000071C6000077C60000242002E0A7
:20C64000252000E026204F4A115470474D48018570474C48418570474A48818570474948F7
:20C66000018670474748418670474648818670474448C18670474348018770474148418A7B
:20C680008185704724203F49085C4122895C0140484248417047C04680B500F013F8FFF72E
:20C6A0003FFF80BD10B501463648828A0B889C1A0020934200D204460C80934200D90120B4
:20C6C00010BDC046B0B52F4D288D002823D0A98A421A00D200222A85884225D8FDF7ACFF3E
:20C6E00068892885E88D401CE88580B20B281BD3E86B7E21415C012910D181797F228271E3
:20C70000E86BC171E86B72210172E86B03214180FDF770FF06E00020E88505E0FDF7CCFE8A
:20C720000020288500202885688D002819D0A98A421A00D200226A85884212D826200021CC
:20C7400029540124AC84FFF7D9FB2046FFF798F92B6A002B03D00320002101229847FDF783
:20C76000ABFEA88D00280AD0A98A421A00D20022AA85884203D8A869002800D08047FFF7BC
:20C78000C3FBB0BDD43400200A2801D8014A11547047C0465434002010B5962066490A5C96
:20C7A0000120012A0ED197228A5C002A09D000230C245C430C19A478002C03D15B1C93422D
:20C7C000F6D3002010BDC04698205B4903220A54962001220A547047F0B59721564D6A5C0A
:20C7E000002A0ED0467800231C466F78B7420BD05B1C0C35641CE7B29742F6D314463B46E5
:20C800000AE00024234607E004262E708678AE7046686E608668AE60E4B2944211D10B2ADB
:20C820000FD80C245C43444B04251D55521C5A54191942784A7082788A7042684A60806826
:20C840008860F0BDF0B581B098213B48425C032A1AD19621425C012A53D19722835C942289
:20C860000092855C00249D4215D20C266E438619B71C2E463A78002A0FD10C37761CF2B25D
:20C880009342F7D11E460BE00322425496210122425401B0F0BD2E4602E095228654012417
:20C8A000F2B29A420AD1002D08D0871C00263A78002A06D10C37761CB542F8D1002C05D105
:20C8C0001FE0952286540124002C1AD0002646549522855C6C1CE2B29A4200D334460C22C2
:20C8E0006A4382185368009D4455946890254451124C0425E5729578257323606360527827
:20C90000A272425C002AC4D10C4BDA7A042AC0D0012444549521415C0C244C4302550119FD
:20C9200000248C7090214458002CB2D0197B987AA04701B0F0BDC04650350020EC35002005
:20C94000B0B55A4A10885A4C21680140138B24681C40584A1578022D11D0012D31D0002DA5
:20C9600051D1554D2D68002D00D094E0814200D091E09C4200D08CE0012313708BE04E4D22
:20C980002D68012D44D1814242D09C4202D14C4B02241C70494B00241C601470484A13781B
:20C9A000002B4FD0474C2478A3424BD102231370454A13785B1C1370DBB21F2B47D31F230E
:20C9C00044E03D4D2D68012D2FD181422DD09C4202D03B4B01241C70384B00241C60147098
:20C9E000374A1378002B41D0364C2478A3423DD101231370344A13785B1C1370DBB21F2B5D
:20CA000038D31F2335E02D4B00241C60147042E0E31A5C425C410B1A5D425D41254316D10D
:20CA2000264B00241C60147011E0E31A5C425C410B1A5D425D4125431CD1204B00241C6076
:20CA4000147017E0022313701F4A012313701B4A13685C1C14601D4B9C421CD9184C002513
:20CA60002570194C25705B1C136014E001231370154A1370114A13685C1C1460134B9C42C2
:20CA800009D90F4C002525700F4C25705B1C136001E0022313700A4A12780A4B1A70081A5D
:20CAA0004142414104480160B0BDC046D83000205C0C0040043000200C3100200831002077
:20CAC000D3300020D4300020D5300020B70B0000F0B585B0016804220B461343042B4DD1CB
:20CAE000866802233446DC41062C48D24768042F46D2C36806241D46E541042D41D20469B7
:20CB0000022C3FD202944469032520460395E841042838D201200490000200901A4810381D
:20CB200001940468009D2C43046004980004164D6C6804436C6028681C24A04330432860EC
:20CB40000398C64328683040384328600F4C20689043084320602068C0218843184320609E
:20CB600020683040029908432060206818218843019908432060049805B0F0BDFEE7FEE79E
:20CB8000FEE7FEE7FEE7FEE748240040145C0140F0B58CB0754CA04200D0FEE702460125FD
:20CBA0006B02086806461E439E4200D0CEE0EF024E680B963E43BE4200D0C8E00890CE687E
:20CBC00004200A9609900643042E00D0C0E00E69042E00D3BDE00796202006900E5C022EE7
:20CBE00000D3B7E005964E6A11200496C641082E00D3B0E0886A14260396019006460398D0
:20CC0000C641092E00D3A7E000972803584F3E6806433E60574F3E460C3E0396564E03983A
:20CC20000660E805029038463E68029F3E4306600668029FBE4306602F0606683E43066063
:20CC40000668BE4306604D4E039806604C480668F607064605D10127B76006683E430660AE
:20CC6000064603953768354602263E432E600026009F8568ED0704D1751CB60A7D2E2E4694
:20CC8000F7D39568039E354395602569354325611568ED06FCD5102525609468039DAC43AD
:20CCA00094609468E40758D194699C43089B1C4394619069B8430B9B18439061087A431ED4
:20CCC00098418002AB0294699C4320189061487A431E984100022B0294699C432018906117
:20CCE0009069099B98430A9B184390615069069B98435061D06803239843079B1843D0607F
:20CD0000F020C043936903404C691C439461D369034088691843D061D0690F239843C96944
:20CD20000143D16191690598002818D0072040048143049801439161180591698143019861
:20CD4000014391612804916901430BE0FEE7FEE7FEE7FEE7FEE7FEE7FEE7002503E00120DC
:20CD600000048143916128460CB0F0BD005C01403424004020280040DF9B57132064A8EC69
:20CD800000A40140F0B584B002468E4B18461038824200D0FEE78F6804203C46C441062CC1
:20CDA0001BD801200546A5405724254215D04C69002C05D00502AC4202D04502AC420BD1DA
:20CDC0000D69022D07D20295039008688025EE43304203D0FEE7FEE7FEE7FEE72B4E766835
:20CDE0000195AE430643294846600568064610200090054335600398C5033046F6682E434E
:20CE0000C660156BFF26B5438E692E431663202F03D0602F01D0402F04D115686026B543AD
:20CE20003D4307E01568009885433D43156015686026B5431560D56A154F3D40CE682E4382
:20CE4000D66203252D021668AE4326431660946A3C404968214391620298411E4C424C415F
:20CE6000E10114680198844361181160516903980143516105211A684C1E9143C9070029E0
:20CE80002146F8D1186004B0F0BDC046402400400000FFFFF0B589B004464A4E3046103863
:20CEA000844200D0FEE713680420C341082B08D29369022B06D2D3680225EF433B4202D063
:20CEC000FEE7FEE7FEE75769022F0DD2576A022F0BD29768022F09D20793176A08973A4FB6
:20CEE000089B3B4203D0FEE7FEE7FEE7FEE70595976A0697354F069D3D4200D0FEE7176998
:20CF0000049708270297FF43049B3B4200D0FEE78F0003973B46012701979F403B46276A40
:20CF200000939F432762039FB840276A874327620398079B8340059D8540206AA84318433E
:20CF400020624800089F8740019B1B02834065689D433D436560069D8540019B1F465B0265
:20CF600083406068984328436060049B03988340029D8540206AA84318432062CB00022977
:20CF800000D3103B03209840022901D31C2300E01823E5588543E550204600F005FD206A03
:20CFA00000990843206260693843606105203168421E8843C00700281046F8D138463760FA
:20CFC00009B0F0BD10300140FFFEFFFFFFFDFFFFF0B582B0086802280CD24F68022F0AD262
:20CFE0008868022808D2087B022806D24B6A9B0C04D0FEE7FEE7FEE7FEE7FEE78B69DB0A36
:20D0000000D0FEE7CB69022B08D20B6A022B06D28B6A022B04D2032A03D9FEE7FEE7FEE7F6
:20D02000FEE7F04C3D4B661C1D464C3D2D683542F9D1012F12D14F69BF0C2740D4001C19FD
:20D0400001946568374C25403D43019C6560344F3D404F69BF037F082F4309E00D6925406D
:20D06000D4001C19019467682E4C27402F43019C6760CC690025012C00D02E460095D40058
:20D080001D59284F7F1E01973D4035431D51264E35400E6A761E774277413E03AE191E512E
:20D0A000224F3E408D6A012D02D01D4F009D01E07D1C1B4F75191D511A4E2E408D6935435D
:20D0C0001D513D404E6A76032E431E511C196568019E35400E68F6022E436660124D2E40CC
:20D0E0004D682D0335436560104E35408968C90769186160012805D101219140181F0068A7
:20D10000084306E00F20C043D1430143181F00680840191F0860012002B0F0BD6494014014
:20D12000FF1F008000F8FFFFFFEFFFFFFFFFFF7FF0B582B04C78042C48D28B78102B46D2B8
:20D14000CA78082A44D24879050906017519EDB2042D3ED201250195EE040096244E3668AD
:20D16000009F3E43224F3E60AD033E692E433E61BE683025AE430643BE601E480568019ED4
:20D18000354305600325ED01C668AE43E4013443C460C4680F25AC431C43C460C36870246C
:20D1A000A34312011A43C2608268FF239A430B79D2188260097801290CD0002911D1416883
:20D1C000022291434160016811430DE0FEE7FEE7FEE7FEE7416802221143416001681143F9
:20D1E00002E00168022291430160012002B0F0BD3C240040009401401748016804220A435B
:20D200000260016801220A430260704710B5002806D004467D20C00000F004F8641EF9D118
:20D2200010BD000010B5044609480068094901F071F86043010E01D001200006411E064856
:20D240004160002181600168C903FCD510BDC0460830002040420F0010E000E0B0B50168CB
:20D26000094A114200D0FEE7084B1868802404431C600120C4079D6925439D611C691440E8
:20D280000C431C61B0BDC046FFFFFFBF34240040F0B581B00D4604465048844212DD5048A3
:20D2A000844200DD36E04F48844200DC43E00120C1028C4200D14BE001038C4200D147E0E1
:20D2C000400343E0601E3F2800D92FE078440079400087443D3D4D3D4D4D4D3D4D4D4D4D7F
:20D2E0004D4D4D3D4D4D4D4D4D4D4D4D4D4D4D4D4D4D4D3D4D4D4D4D4D4D4D4D4D4D4D4DAE
:20D300004D4D4D4D4D4D4D4D4D4D4D4D4D4D4D4D4D4D4D3DE348844213DD012001048C4244
:20D3200016D041048C4213D080040FE0802C0FD0012000020AE0012041028C4208D080027A
:20D3400004E0012081038C4202D0C00384420FD12968042909D26868032807D2A868022894
:20D3600005D2012C05D100220AE0FEE7FEE7FEE7FEE700202246401C5208012AFBD1C2B28A
:20D380005000814000929000174A1258174E103E30469047164F2740A868012803D113485B
:20D3A0000068384302E011480068B8430F490860009880083C2101400E4843586A68304635
:20D3C000214698473220FFF72DFF0848476001208107094A116001B0F0BDC046FF010000CB
:20D3E000FF3F0000FF070000D4E70000D00D0040FFFF070020E8000080E200E0F0B581B0EC
:20D40000584B984200D0FEE7574BCC18641E9C4200D2FEE7554C236820252B4323600023B8
:20D420008E073CD107267604076A37400124E604B74234D0A6074D4F7B69009633437B619A
:20D440004369A3434361466902231E434661EFF3108672B6134F8761134F876186F3108875
:20D460000A6022040021521E0ED0066AF6050BD4066AB60508D4066A760505D4066AB6076B
:20D48000F0D50362234600E00B46009A374CC94381616069904360612068A843206018460F
:20D4A00001B0F0BDA5A5A5A5F1F1F1F1F0B581B0F04A904200D0FEE72B4A8B185B1E9342B9
:20D4C00000D2FEE7294B1A68202422431A6000228D0743D107256D04076A2F400126F50415
:20D4E000AF423BD0B5075A6900952A435A6103221202476997433202BF18476147690225A7
:20D50000AF434761456935434561EFF3108572B6174F8761174F876185F310880662164D8F
:20D520000D60370400217F1E0ED0056A15420BD1056AAD0508D4056A6D0505D4056AED07EB
:20D54000F0D00662324600E00A46009DC94381615869A84358611868A0431860104601B029
:20D56000F0BDC046001000400100FCFF38240040969696963C3C3C3CCDAB3412F0B585B030
:20D58000474A904206D0454A82180623DA41042A00D3FEE70A68531E424CA34218D24B680C
:20D5A000042B16D28C68022C14D2CD68022D12D24E69022E10D2019602950094F24C2568AE
:20D5C00080262E432660002A64D00027039316E0FEE7FEE7FEE7FEE7FEE7046A049B9C4338
:20D5E000039B046276431C46744303257543C668AE432643C6607F1C1446FC404AD0012655
:20D60000BE401640F7D0B3B20493DC43039B032B11D105682540056045682540456085684B
:20D6200025408560019D012D0DD1846A049B1C43039B846225E0856A25408562002B06D045
:20D640000568254006E0856A2540856219E00568049B1D430560009D002D03D08568049BE4
:20D660001D4301E0856825408560029D002D04D04468049B1C43446002E0456825404560AB
:20D68000039B022BAED10C69012CA6D1046A049B1C43A5E7012005B0F0BDC04600F4FFBFF4
:20D6A000000D0040FFFF0000026803239A430A430260704702680C239A430A430260704770
:20D6C00003221205036893430B430360704703229205036893430B430360704703221206C3
:20D6E000036893430B430360704703229206036893430B430360704703221207036893439C
:20D700000B430360704703229207036893430B4303607047426803239A430A4342607047E7
:20D7200042680C239A430A4342607047426830239A430A4342607047026830239A430A4326
:20D74000026070470268C0239A430A430260704703221202036893430B4303607047032219
:20D760009202036893430B430360704703221203036893430B430360704703229203036864
:20D7800093430B430360704703221204036893430B430360704703229204036893430B431D
:20D7A0000360704749434A4303234B4381689943114381607047090C49434A4303234B43EF
:20D7C000C16899431143C160704780B5FFF714FD80BD000010B53F280FD1C40225482146F9
:20D7E000FFF764FE002081006158491C07D1411C7E280846F7D9002010BD022010BD01201C
:20D8000010BDC046F0B583B03F23DC020223A0422CD1002A25D00294009300250192029E79
:20D820004819C278130482781202D2184078101800020F46495D4418A9190E482246FFF78F
:20D84000DDFD00280FD0032029468143705884420BD1281D85B2019A95423946E0D30023E4
:20D8600004E0002302E0012300E0009B184603B0F0BDC046001000400320810406480246CE
:20D880000C3A12680A408A4205D00168890502D50121490201607047D40D0040F0B581B093
:20D8A000234E3169C90301D4224D04E031690903490F214D8D4021490A680C23134310229D
:20D8C00093430B601C2141431D48421890691D490840B1690143B1613446083C0127276003
:20D8E0003068384330603068022101433160183200922068C0070AD13E460120FFF792FCC6
:20D900002068C00703D1701CAE420646F5D32760074B186A1968B943196000990968094AA6
:20D9200011409A698A439A6180B201B0F0BDC046085C014034080000681000004824004030
:20D9400010310020FFFFFF7F044800687047C04602480168491C01607047C04644340020AB
:20D9600010B50948016804221143016007490B68074C23400B600168914301600548016815
:20D980002140016010BDC046342400403010014000FEFFFF30F00140704780B5012040042B
:20D9A000FCF768FE80BD0000F0B582B01346022901D31C2200E018221D688658CC00019189
:20D9C0000229274601D32746103F00947024BC40A643BD40354385505A6A012A1D4609D19C
:20D9E0000199012910D88022009B9A4083691343836117E0019901290DD88022009B9A4087
:20DA00008369934383610DE0009B103B80229A40C369134305E0009B103B80229A40C3691C
:20DA20009343C361CB006A69012A07D101290DD804229A4084691443846115E001290CD810
:20DA400004229A408469944384610DE01A46103A04249440C269224305E01A46103A042443
:20DA60009440C269A243C261AA69012A07D101290DD808229A4083691343836113E0012933
:20DA80000BD808229A408369934383610BE0103B08229A40C369134304E0103B08229A400A
:20DAA000C3699343C361AA68012A05D18A0004239340026A1A430262032912D87944097927
:20DAC00049008F4401030507343004E0383002E03C3000E04030E9690268034B13400B4321
:20DAE000036002B0F0BDC0460000FFFFF0B58DB000242046FFF7D2FEF1494118FF279237AC
:20DB0000F04E962904D83020EF4900240C5411E08119B94205D23020EB4901220A5400249A
:20DB200008E03021E84A5454E8494018FC30B84200D201243120E44D0C902C540124204603
:20DB4000FFF7ACFEE2494118962902D80024EC8618E031187831B94201D2012005E0DB4990
:20DB60004118B94205D201200002D74DE886002408E00021D44AD186D64A8018B84200D39E
:20DB80000C46D14D38202C5402200190FFF786FED14D401901260024B842304600D32046A5
:20DBA0003921C94A50540320FFF778FE4019B84200D326463A21C44F7E548C22FE48835A22
:20DBC000FE4A15681D40EB1A5D1EAB41322502957B55A823C35A156C1D40EB1A5D1EAB41C7
:20DBE00033257B55C423C35A15681D40EB1A5D1EAB4134257B55E023C05A12680240101A87
:20DC0000421E904135220692B8540C983A5CEC48012A0ED1795C012921460DD1E949096879
:20DC20004C1C0146C8318C4205D90446C934012102E0214600E000213C23F954E1490C609B
:20DC40000021012A0CD13722BA5C012A0A460AD1DD490968491C814204D9411C012202E0D8
:20DC60000A4600E000223D203A54D7480160D74800780590D64800780490D6480078039068
:20DC8000D548036830240026D44D0EE000230B6003700B9B0D461078069978542D1DB61C6A
:20DCA000641C3E2CC34F00D118E121462C460B930C967E5C7A181046103805460078079021
:20DCC000137C0A9108463038B342099208940DD10C9ABE5A022E0DD8731CBB529BB2032B70
:20DCE0000A9C079908D3099A117805E0167400230C9ABB520A9C07992A462970C0B20A289F
:20DD00001DD8012633468340B64A13422A4616D0302C11D12023A74FFB5C002BAE4D089C68
:20DD200020D00B99491C2960C82921D33B23FE54C8210B91296020E00899099F20E001294B
:20DD400036D1069B099FFB5C002B08997BD1352C48D10C46A44D6B79002B0C9E00D199E044
:20DD60002146AAE000210B9129602146099F06E00B913B2300278F4DEF54099F21460A9C82
:20DD80001378002B5FD1069BFB5C012B5BD1964B302C11D11B78002B55D1059B5E40F30712
:20DDA00051D004230C46904D2B700A9C0C9E4BE00C9E0899099F47E00A2827D0072831D063
:20DDC00001283BD15B78002B3DD1049B7340DB0739D0039B5E40F30735D004230C46824D42
:20DDE0006B70E2E7804B1E19303E3378002B2AD1042333700B2855D00D280C9E58D00C28E1
:20DE000022D10C460125724B049555E09B7A002B19D1049B5E40F30715D004230C46724D8E
:20DE2000AB72C2E7DB79002B0DD1039B5E40F30709D004230C466C4DEB71B6E71E19303EE0
:20DE40003378002B2AD00C9E0A2818D8012383406648034213D01346654800193038137857
:20DE6000012B00D012E70423037008680D465C4988420B9B00D30EE7401C28600BE7154642
:20DE80005B480319303B002018701378012BECD00860FEE611236B7121460EE004233370C2
:20DEA0000C9ED1E70C460125484B05951D707CE70C460125474B03951D700A9CC4E7C046E5
:20DEC00096F0FFFF98F4FFFFC8320020CCF7FFFF22F2FFFFABFBFFFFC8F5FFFF2020385C14
:20DEE000002802D10020394908702A20395C2120385C014309063C4A02D10021344B197084
:20DF00002721795C084302D100203249087039480078022804D1917B002901D10E3205E08F
:20DF2000012807D1D07B002804D10F3232480078800010700420FFF7B1FC304988420DD37B
:20DF4000334800210170314801702F480178491C0170C9B231292AD9012222E028490A4646
:20DF60001E3290420DD22848002101702848017026480178491C0170C9B23129019A10D8A8
:20DF800015E0204A8018884211D21F48002202701E4802701E480178491C0170C9B232297F
:20DFA00005D3029901707E4802700DB0F0BD0DB0F0BDC046C8320020103100201C0C004088
:20DFC0001F030000603200205C3200203E330020D23000201032002064320020883200201A
:20DFE000711700008304000068320020C307000078320020D3300020D53000208C0A0000E6
:20E00000F70400009CFAFFFF3F3300204033002041330020F0B581B0212080022849086046
:20E0200001200103274802680A430260016880231943016024490A1D244C2260244A1768F7
:20E040001F22BDB24D403E0C1024B542009201D0274600E017401F4A17601F4F7D6AAEB272
:20E060004E402A0C964201D01D4600E0EDB202460C3A15603D68AAB24A402E0CB24200D1C4
:20E08000EBB2203803601248006882B24A40010C8A4201D0204601E0009908400D49086018
:20E0A0000320C0010D490A6802430A600C48052101600C48016802220A43026001B0F0BD3C
:20E0C00008ED00E034240040FFFF00000400004098FAFF1F3820004020FBFF1FC40C004000
:20E0E0000028004000E0014010B5FFF72DFC194C2168401A022804D3FFF726FC2060FAF7E1
:20E1000099FEFFF721FC6168401A05280CD3FFF71BFC6060FBF70EF900F046F8FBF7ECFA5A
:20E12000FAF722FEFEF78EFBFFF70EFCA168401A0A280CD3FFF708FCA06000F033F800289F
:20E1400001D1FDF701F9FFF7D1FC00F04BF8FBF7F5FC10BD4834002010B5FEF735FBFCF7E0
:20E160008FFCFAF7FFFB01242046FAF769FDFAF71DFEFAF731FEFBF7A3FA2046FBF7B8FA82
:20E18000FAF7EEFA10BD000005480078411E48424841704702480078811E484248417047C0
:20E1A000423300200020704780B5064906480881C880064A8A80FAF75DFF0120FBF798FA04
:20E1C00080BDC0460C300020E02E00008813000080B51A4801210170FFF7B6FB194908605C
:20E1E00080BDC046B0B5FFF7AFFB134C2168401A4009124D192805D32878002802D1FFF743
:20E20000A3FB20602878012814D10D4CFFF79CFB0C49096872B6BFF34F8F0B4A0B4B1360B0
:20E22000401ABFF34F8FC934A04201D200BFFDE700BFFDE7B0BDC0468C38002094380020B9
:20E240001F030000903800200CED00E00400FA05704700008AB0FFF783FBFFF79EFBFFF7EE
:20E26000B4FAFFF799FB0025099508950795069505950495039502950195009501267006A5
:20E280001F490A6802430A606846FEF7E7FF0895079606950595402004901A4F38466C3086
:20E2A00004AC2146FFF76AF90396022001900290700201A9FEF7ECFFB00713490860FF2179
:20E2C0000904124A13688B43F10559181160104908600895079506950596F5030495384675
:20E2E00014382146FFF74AF9386828433860FAF7BFF962B6FFF730FFFFF7F6FEFCE7C046D6
:20E3000000240040140C004080E100E01CE400E000E100E043088B421AD3002203098B4257
:20E3200079D3030A8B425ED3030B8B4242D3030C8B4227D30902FF2212BA030C8B4202D317
:20E340001212090203D0030B8B4233D31AE0D3E0411A8041401C704703460B4371D44308D7
:20E360008B42F5D3002203098B4254D3030A8B4239D3030B8B421DD3030C8B4202D39446AA
:20E380006EE0090AC30B8B4201D3CB03C01A5241830B8B4201D38B03C01A5241430B8B422D
:20E3A00001D34B03C01A5241030B8B4201D30B03C01A5241C30A8B4201D3CB02C01A5241FC
:20E3C000830A8B4201D38B02C01A5241430A8B4201D34B02C01A5241030A8B4201D30B02B2
:20E3E000C01A5241CDD2C3098B4201D3CB01C01A524183098B4201D38B01C01A52414309F9
:20E400008B4201D34B01C01A524103098B4201D30B01C01A5241C3088B4201D3CB00C01A6B
:20E42000524183088B4201D38B00C01A524143088B4201D34B00C01A5241411A5241100083
:20E440007047CA0F00D04942031000D34042534000229C4603098B422DD3030A8B4212D33A
:20E460008901FC2212BA030A8B420CD3890192118B4208D3890192118B4204D3890137D038
:20E48000921100E08909C3098B4201D3CB01C01A524183098B4201D38B01C01A524143094F
:20E4A0008B4201D34B01C01A524103098B4201D30B01C01A5241C3088B4201D3CB00C01ACB
:20E4C000524183088B4201D38B00C01A5241D9D243088B4201D34B00C01A5241411A00D209
:20E4E00001465241104663465B1000D34042704763465B1000D3404201B50021004201D079
:20E50000C9430846C046C04602BD48573A412E312E30333430323031302D524D30314D46E5
:20E52000570000000000000031333334000000000000312E30302E425F3232303731325F9E
:20E54000313333345F30300064192C1A1847504664192C1A18475046E803E803E80364009C
:20E5600014000A00A00005000800010032000200010000001007030081AC00001107030038
:20E580005DAE000014050300D5AF00001905030011B8000022070300A5BA0000270401002F
:20E5A0005DBB00002804030039BF00003106010089C000003E07030045C2000085040300C0
:20E5C0002DC30000E9A80000E5A80000DDA80000D5A80000CDA80000161791001717910039
:20E5E0000073C000000C0000161791000101280000000000E1A70000171791000101280083
:20E6000000000000EDA700008740C1000401010000000000A5A800008746C10004010100F7
:20E6200000000000B9A8000077159E000301010000000000FDA7000077169E000301010076
:20E640000000000011A8000077179E00030101000000000025A8000077189E0003010100D1
:20E660000000000039A8000077199E0003010100000000004DA80000771A9E00030101005D
:20E680000000000061A80000771B9E00030101000000000075A80000771C9E0003010100E9
:20E6A0000000000089A8000087F10C005DA900008AF10A0095A9000097F10A00C1A90000E0
:20E6C00089F1150079A9000089F0080011A9000080F10A002DA900008CF10800B1A900001E
:20E6E00084F10A0049A9000000A00200EDA8000001A00200FFA80000A10300006400000020
:20E7000000080200D5920000C10300006400000000080200E192000023020000320000008C
:20E7200000080200BD920000550700000000000000080500F5920000DF07000000000000AA
:20E740000008050003930000000600007F060000000806001193000001810500020004103C
:20E760000383050001810500CDA700000102040401040000DDA900000000000000800504F4
:20E780000003830504000000010003020404010031AA000000800000A900000014000000C3
:20E7A00000080300459600008196000098040000F40100000008020031960000359600002F
:20E7C00001060000F4010000000803009596000097960000A9D60000B5D6000039D70000C0
:20E7E00045D7000051D700005FD700006DD700007BD7000089D7000097D70000C1D60000A4
:20E80000CFD60000DDD60000EBD60000F9D6000007D7000015D7000021D700002DD700004A
:20E82000A5D70000B7D7000048E8000000300020380000000485000080E80000383000209D
:20E840006818000020850000931954760400000000366E010102040000000000000001006C
:20E86000010000000000000000000000000000000000000000000000B5B200000000000030
:00000001FF
